:020000040800F2
:100000006020002015020008614F00084B3F0008E7
:10001000F94E00080D0A00085D68000800000000A5
:10002000000000000000000000000000415B00082C
:10003000590F000800000000A3560008B55B000837
:100040002F0200082F0200082F0200082F020008CC
:100050002F0200082F0200082F0200082F020008BC
:100060002F0200082F0200082F0200082F020008AC
:100070002F0200082F0200082F0200082F0200089C
:100080002F0200082F020008150700082F020008A1
:100090002F0200082F0200082F0200081511000887
:1000A0002F020008355C00082F0200082F0200080C
:1000B000415C00082F0200084D5C00082F02000878
:1000C0002F0200082F0200082F0200082F0200084C
:1000D0002F020008296800082F0200085168000854
:1000E0002F0200082F0200082F0200082F0200082C
:1000F000595C00082F0200082F0200082F02000898
:100100002F0200082F0200082F0200082F0200080B
:100110002F020008356600082F0200082F02000891
:100120002F0200082F0200082F0200082F020008EB
:1001300000F002F800F05FF80AA090E8000C82449A
:100140008344AAF10107DA4501D100F054F8AFF277
:10015000090EBAE80F0013F0010F18BFFB1A43F0A5
:10016000010318471CD000003CD000000A444FF0A7
:10017000000C10F8013B13F0070408BF10F8014B06
:100180001D1108BF10F8015B641E05D010F8016B4B
:10019000641E01F8016BF9D113F0080F1EBF10F8AF
:1001A000014BAD1C0C1B09D16D1E58BF01F801CBD2
:1001B000FAD505E014F8016B01F8016B6D1EF9D555
:1001C0009142D6D37047000000230024002500266A
:1001D000103A28BF78C1FBD8520728BF30C148BFAA
:1001E0000B607047642900F09980002070471FB5AC
:1001F0001FBD10B510BD00F05FFA1146FFF7F7FF05
:1002000008F06AFA00F07DFA03B4FFF7F2FF03BCCE
:1002100006F072FD0948804709480047FEE7FEE7FF
:10022000FEE7FEE7FEE7FEE7FEE7FEE7FEE7FEE7A6
:1002300004480549054A064B70470000335C000836
:1002400031010008601A002060200020601C00209E
:10025000601C002010B54C1084EA530404D54042C1
:10026000C1F1000138BF491E1B4204D55242C3F1FF
:10027000000338BF5B1E00F00DF914F0804F04D06E
:100280004042C1F1000138BF491E14F0004F04D0B4
:100290005242C3F1000338BF5B1E10BD0FB40449C6
:1002A00010B503AA029800F0D1F910BC5DF814FB58
:1002B000940000202DE9F0410E4604460020206203
:1002C0002046E168884730B3252805D0D4E90121CC
:1002D0009047206A401CF2E7E168204600278847E3
:1002E000050018D0A5F14100192802D820354FF497
:1002F00000673246294620462760FFF773FF40B16A
:10030000012804D0F61D26F007060836D8E7361D6A
:10031000D6E72846DAE7206ABDE8F0812DE9F0410A
:100320000646002410687529314616A510D0AFF393
:100330000080002802DA404213A507E031688A07EE
:1003400001D512A502E0490704D511A5012401E059
:10035000AFF3008000210A2206F1240709E0B0FB78
:10036000F2FCB0FBF2F302FB1C003030785418466C
:10037000491C0028F3D123462A463046BDE8F04107
:1003800000F00AB9000000002D0000002B00000062
:100390002000000040EA010310B59B070FD1042A9A
:1003A0000DD310C808C9121F9C42F8D020BA19BA40
:1003B000884201D9012010BD4FF0FF3010BD1AB1A5
:1003C000D30703D0521C07E0002010BD10F8013BFA
:1003D00011F8014B1B1B07D110F8013B11F8014B21
:1003E0001B1B01D1921EF1D1184610BD02F0FF0374
:1003F00043EA032242EA024200F002B84FF0000250
:100400000429C0F0128010F0030C00F01B80CCF126
:10041000040CBCF1020F18BF00F8012BA8BF20F894
:10042000022BA1EB0C0100F00DB85FEAC17C24BFE8
:1004300000F8012B00F8012B48BF00F8012B704792
:100440004FF0000200B5134694469646203922BF6D
:10045000A0E80C50A0E80C50B1F12001BFF4F7AFB8
:10046000090728BFA0E80C5048BF0CC05DF804EB9A
:10047000890028BF40F8042B08BF704748BF20F808
:10048000022B11F0804F18BF00F8012B7047704706
:100490007047704753EA020C00F069802DE9F04B79
:1004A0004FF00006002B1FBFB3FA83F503FA05F4E3
:1004B00024FA05F65E4012BF1643B2FA82F502FA3C
:1004C00005F4C5F120051EBF22FA05FC44EA0C0420
:1004D000203556EA044C4FEA144418BF641C4FF010
:1004E00000084FF00009904271EB030C39D300294A
:1004F00019BFB1FA81F701FA07F6B0FA80F700FAEE
:1005000007F6C7F120071EBF20FA07FC46EA0C06D3
:100510002037B6FBF4FCA7EB0507103F07F01F0BD5
:10052000CBF120060CFA0BFB2CFA06F644BFB346BF
:100530000026202FA4BF5E464FF0000B5BEA060C9E
:1005400008BF4FF0010B19EB0B09ABFB027C48EB2A
:100550000608C01B06FB02CC0BFB03CC71EB0C01A5
:10056000C1E70B46024641464846BDE8F08B13B54D
:100570004FF000004FF00001AFF30080BDE81C40D9
:10058000704710B500F074F8006810BD10B504464F
:1005900000F06EF8046010BD2DE9F0470D46994655
:1005A0009246044600F124080168880604D5E069F3
:1005B00021F01001216000E00120A84201DD471B6D
:1005C00000E00027A1697A1902EB0900081AA0616E
:1005D0002078C00602D42046AFF30080002608E051
:1005E000D4E901211AF806009047206A401C761CC5
:1005F00020624E45F4DB2078C0060AD52046AFF3D2
:10060000008006E0D4E9012130209047206A401C98
:100610002062381EA7F10107F4DC07E0D4E90121CC
:1006200018F805009047206A401C2062281EA5F19A
:100630000105F3DC2046AFF300802078000602D5E8
:100640000220BDE8F0870120FBE70000074B70B5F2
:100650000D467B4400F015F80446284600F024F8C7
:1006600010B14FF0FF3070BD204670BDAF7A000072
:1006700000487047FC19002001694A1C0261087893
:10068000704700B58FB0CDE90131002105910549D2
:100690007944CDE9031011466846FFF70BFE0FB011
:1006A00000BD0000E5FFFFFF007B00F08000704709
:1006B00000487047FC1900207546FFF7F9FFAE4669
:1006C00005006946534620F00700854618B020B55E
:1006D000FFF7AEFDBDE820404FF000064FF00007E9
:1006E0004FF000084FF0000B21F00701AC46ACE8DA
:1006F000C009ACE8C009ACE8C009ACE8C0098D4647
:10070000704710B50446AFF300802046BDE81040A6
:10071000FFF77ABD10B5044801F098F8BDE8104025
:10072000024801F093B8000018030020480300209D
:1007300070B5044600688168C943C90717D181684C
:1007400021F00101816001F0D3FD05460AE000BF00
:1007500001F0CEFD401B022804D920688068C04308
:10076000C00706D020688068C043C007F0D00020D2
:1007700070BDA06A40F01000A062E06A40F0010085
:10078000E062012070BD0000F8B500260446009626
:1007900000688168C943C9072DD0816841F0010113
:1007A0008160164816490068B0FBF1F000E0401E79
:1007B00000900028FBD101F09BFD054616E000BF2C
:1007C00001F096FD401B022810D920688068C043C4
:1007D000C0070BD0A06A40F01000A062E06A40F0B1
:1007E0000100E06284F824600120F8BD2068806880
:1007F000C043C007E4D10020F8BD000098000020ED
:1008000040420F002DE9F04F4748032187B00068B0
:100810004000A0F6AC0090FBF1F6002E01DA0026B5
:1008200002E0642E00DD6426404CA0680AF044FC1F
:100830003F4DDFF800812A4643460AF02DF90AF0C1
:1008400095F8070000D5474260680AF035FC2A4653
:1008500043460AF021F90AF089F8050000D545421F
:100860002078F0B100202070334C217801291AD073
:1008700000284DD0314800680AF080FD0546304818
:1008800000680AF07BFD04462E4800680AF076FDF9
:1008900007B02B462246BDE8F04F01462AA0FFF7DD
:1008A000FDBC0120DFE72C4800680AF067FD8346A5
:1008B0002A4800680AF062FD8246294800680AF06A
:1008C0005DFD8146274800680AF058FD80462648AD
:1008D00000680AF053FD0746244800680AF04EFD00
:1008E0000646234800680AF049FD0546214800688D
:1008F0000AF044FD8DE8C00F02461F482B460188D0
:100900001EA0FFF7CBFC0020207007B0BDE8F08FE1
:10091000224800680AF032FD009033463A462946E4
:100920001FA0FFF7BBFCF0E76C000020FC010020DB
:100930009A9999999999F13F49000020F80100206E
:10094000DC010020D80100207B4225643A25643A6E
:1009500025647D24000000003400002030000020C9
:100960002C0000202800002024000020200000206F
:100970001C000020180000200C0000207B43256490
:100980003A25643A25643A25643A25643A25643A5E
:1009900025643A25643A25647D2400007000002017
:1009A0007B4125643A25643A25643A25647D240018
:1009B00070B5044610480D4600680AF01BFD21463C
:1009C0000AF080FE0D49044685F0004009680AF0EF
:1009D00071FD0B490AF010FC05460B4809490068F7
:1009E0000AF00AFC21460AF065FD29460AF06AFE73
:1009F000BDE870400AF0C2BC040000201C000020CA
:100A00000000C8420000C8C218000020FEE7000035
:100A100010B50B4B4FF4004158B10A4C2268521CE0
:100A20002260824204DB184601F055FC0020206061
:100A300010BDBDE810400022184601F054BC000073
:100A4000000801409C00002070B518480078052877
:100A50001DD117480088012819D0164800880128A0
:100A600015D0154C00256079401CC0B26071042877
:100A70000ED000D9657100F071FA104C68B11048C1
:100A8000007888B15FF00000FFF7C2FF256070BDFD
:100A900004F0ACFE00F044FBECE70A482060BDE83F
:100AA00070400020FFF7B4BF6420EDE71000002085
:100AB0003C0000203E000020A80100204C00002047
:100AC0000E000020000096432DE9F0410F46104E25
:100AD000104C40380AF08EFC0546214638460AF094
:100AE000E9FC0446314628460AF0E4FC21460AF0B7
:100AF0000FFB044600F032FA012803D106480078C3
:100B000000B900242046BDE8F0410AF037BC0000DF
:100B10000000F0418FC2F53D0E000020024610B5E6
:100B20000020012903D000290BD10A4B0EE0094B0C
:100B30000021323B03E05C5C6040491CC9B2914239
:100B4000F9D310BD5C5C6040491CC9B29142F9D335
:100B500010BD0000681800202DE9F0410D4C0A4638
:100B600007460B4E104621680AF0A4FC216B0AF0E0
:100B7000CFFA014608480AF09DFC05463146384642
:100B80000AF098FC29460AF0C3FA2063BDE8F08118
:100B90000AD7A33C3402002048E17A3F2DE9F04116
:100BA0000D4C0A4607460B4E104621680AF082FC9F
:100BB000216E0AF0ADFA014608480AF07BFC0546B2
:100BC000314638460AF076FC29460AF0A1FA20663A
:100BD000BDE8F0810AD7A33C3402002048E17A3F07
:100BE000F8B500266B46012275216820009607F0B3
:100BF000EDFC334F0120387032A0FFF74FFB9DF81A
:100C0000000068280CD0BFF34F8F37480168374A7F
:100C100001F4E06111430160BFF34F8F00BFFDE7B6
:100C200007F076FE002848D1782008F02FFB10B995
:100C300024A0FFF733FB782007F09CFD10B92CA00F
:100C4000FFF72CFBC82008F0E1FA10B932A0FFF73B
:100C500025FB06F0F3FE10B939A0FFF71FFB45484E
:100C6000044607F015FD0546E01C07F011FD45EAB6
:100C7000C005A01D07F00CFD45EA801080B207F00A
:100C80009DF810B93CA0FFF709FB40F2731006F085
:100C9000ADFD10B942A0FFF701FBC82006F0F6FF3A
:100CA00010B949A0FFF7FAFA09F028FB012008F073
:100CB000D3F910B94DA0FFF7F1FA3E70F8BD00006E
:100CC0000F0000206D70755F7365745F73656E73E0
:100CD0006F7220636F6D706C657465202E2E2E2EE2
:100CE0002E2E0D0A000000000CED00E00400FA05B5
:100CF0006D70755F636F6E6669677572655F666953
:100D0000666F20636F6D706C657465202E2E2E2EBD
:100D10002E2E0D0A000000006D70755F7365745F04
:100D200073616D706C655F7261746520636F6D7067
:100D30006C657465202E2E2E2E2E2E0D0A000000BE
:100D4000646D705F6C6F61645F6D6F74696F6E5F0F
:100D50006472697665725F6669726D77617265202B
:100D6000636F6D706C657465202E2E2E2E2E2E0DE9
:100D70000A000000EC010020646D705F7365745F11
:100D80006F7269656E746174696F6E20636F6D70E8
:100D90006C657465202E2E2E2E2E2E0D0A0000005E
:100DA000646D705F656E61626C655F6665617475C8
:100DB000726520636F6D706C657465202E2E2E2E0B
:100DC0002E2E0D0A00000000646D705F7365745F65
:100DD0006669666F5F7261746520636F6D706C65C4
:100DE0007465202E2E2E2E2E2E0D0A006D70755F2E
:100DF0007365745F646D705F737461746520636F95
:100E00006D706C657465202E2E2E2E2E2E0D0A0010
:100E100070B5164800680AF0EDFA15490AF0ECF9C9
:100E2000044614480121006800F06CF812480A21B9
:100E30000068B0FBF1F00AF0F5FA022100F062F868
:100E40000321204600F05EF8032000F01BF80B4A57
:100E500000210B4C131D06E015686D06FCD5655C82
:100E60001D60491CC9B28142F6D370BD6C000020E0
:100E70000000C842700000207C00002000380140C3
:100E8000C01900200A2839D890B31D4924220B2804
:100E90000A7033D2DFE800F032060A0E12161A1E6C
:100EA00022272D000520487106207047092048722E
:100EB0000A2070470D2048730E2070471120487497
:100EC0001220704715204875162070471920487663
:100ED0001A2070471D2048771E207047212081F876
:100EE000210022207047252081F825002620704708
:100EF00004E0292081F829002A20F8E70020F6E7FD
:100F0000C019002003B50A2912D8002910D00B29D6
:100F10000ED2DFE801F00D06080E10121416181A92
:100F20001C00012200E005220A49684600F076F91B
:100F30000CBD0922F8E70D22F6E71122F4E715228D
:100F4000F2E71922F0E71D22EEE72122ECE7252245
:100F5000EAE70000C019002070470000F0B5134810
:100F60000021007801281ED1114C124D124A134F56
:100F7000002040F2BB2600BF02EBC0035B682344A5
:100F8000AB4208D332F83030A3F1010CB44502D2A1
:100F9000491CC9B23B60401CC0B2E128ECD3032914
:100FA00001D90120F0BD0020F0BD00001400002098
:100FB000000060BE01000A02F00C00207C0000204E
:100FC00070B50AF074FB0D4E0446B1690AF07AFB65
:100FD0000B4909680AF06EFA0A490AF00DF905464C
:100FE0000948214600680AF065FA08490AF004F940
:100FF00029460AF067FBB46170BD0000A80000201C
:10100000340000200000C842300000200000C8C2A8
:101010000020401C0A28FCDB7047000070B51F4808
:101020000078042830D11E48008801282CD01D48A3
:101030000088012828D0042000F03CF91A4CE06018
:10104000052000F037F920610F2000F033F96061CE
:101050002369E26803EBC30101EB031102EB810595
:10106000C72101FB00511A44104491FBF0F0A0612C
:10107000FFF774FF0D4C40B10D48007860B10020BF
:10108000FFF7C6FC0020206070BD0A482060BDE864
:1010900070400020FFF7BCBC6420F1E71000002086
:1010A0003C0000203E000020A80100204C00002051
:1010B0000E000020000096432DE9F041134814462D
:1010C000104E8069104F64380AF094F9054639468D
:1010D00020460AF0EFF9044685F0004031460AF058
:1010E000E9F921460AF0EEFA0446FFF737FF012836
:1010F00003D10748007800B900242046BDE8F0413C
:101100000AF03CB900007042CDCC4C3EA801002052
:101110000E0000204FF4007000F0D0BF72B6FEE762
:1011200070B53A4A3A4C0F231088E080237001468C
:10113000267832F816508D4200D32946761CF5B237
:1011400025707B2DF4D3E18020812370257832F83F
:101150001560864200D830466D1CEDB225707B2D9F
:10116000F4D3208108442B49C0F347000870237052
:10117000237832F81310814212D902EB43014D88D3
:1011800085420DD98D8885420AD9CD88854207D2FE
:101190000D89854204D24989814201D2A37004E0BD
:1011A0005B1CD9B221707629E2D376216170CBB273
:1011B00032F81310814212D202EB43014D8885426E
:1011C0000DD28D8885420AD2CD88854207D90D89F6
:1011D000854204D94989814201D9E37004E05B1E4C
:1011E000D9B261700F29E2D8E078A1780A4D08449D
:1011F000400828702179401A08F0CEF85A2801DDFD
:10120000207928702878207170BD0000A018002077
:10121000A8010020910000209000002003788B544A
:10122000114443784B7082788A70C078C8707047D8
:101230002DE9F0410AF03BFA194C05461949A06224
:10124000206B884202DC1849884200D92163284675
:10125000616B0AF037FAA1680AF02CF90646216B97
:10126000E0680AF027F907466068294680F00040E8
:101270000AF020F939460AF025FA31460AF022FA36
:101280006563E062094801680948006805F09EF955
:10129000012801D100202063E06ABDE8F081000050
:1012A000A800002000007A4400007AC46C000020EE
:1012B000700000203EB56946009007200290012092
:1012C00001900A4800F03EFA084800F0AFFC1E21E9
:1012D000064800F00DFC054800F0B3FA800503D580
:1012E000024800F0B0FA84B220463EBD1803002048
:1012F0002DE9F05F044604F095FB8349DFF80C828A
:10130000DFF80C92DFF80CA2834D844F0860012CAB
:101310007ED04421D02002F019FE04464321D02083
:1013200002F014FE04EB00207D4C4621A083D02067
:1013300002F00CFE06464521D02002F007FE06EB27
:10134000002020844821D02002F000FE06464721DC
:10135000D02002F0FBFD06EB0020E0833C21D020F2
:1013600002F0F4FD06463B21D02002F0EFFD06EB33
:101370000020E0823E21D02002F0E8FD06463D211B
:10138000D02002F0E3FD06EB002060824021D02057
:1013900002F0DCFD06463F21D02002F0D7FD06EB2F
:1013A000002006B2A682B4F91C0040420AF022F8DE
:1013B000C8F80000304609F008FB06468846B4F934
:1013C000120009F002FB3246434605F01FFFDFF82A
:1013D00054B100225B4609F05FFB534A534B09F0BE
:1013E00031F909F0C3FA2083B4F9140009F0EDFAD9
:1013F00006468846B4F9160009F0E7FA4346324635
:1014000005F004FF00225B4609F046FB464A00E077
:1014100028E0464B09F016F909F0A8FA6083B4F900
:101420001C0009F0D2FADFF808814FF06636324628
:10143000434609F007F909F017F88346B4F920008C
:1014400009F0C3FA3246434609F0FCF809F00CF8FB
:1014500006463848DFF8E0800078022817D00328D5
:1014600027D03BE004F00CFA344C28683860B4F91B
:10147000000009F0BFFFC8F80000B4F9040009F04B
:10148000B9FFC9F800002E48B0F9040030E0B4F903
:10149000180009F0AFFF594602F032FF80F000401B
:1014A0002860B4F91A0009F0A5FF314602F0D6FF12
:1014B00010E0B4F9180009F09DFF5946FFF74CFB06
:1014C00080F000402860B4F91A0009F093FF31461B
:1014D000FFF764FB80F00041C8F80010286838600E
:1014E000B4F91E0009F086FFC9F80000B4F9140031
:1014F00009F080FFCAF800001249386809F008FEB8
:101500003860BDE8F09F00006800002074000020F3
:10151000780000208C000020D801002070000020FE
:101520005001002000806640F1D4C853FB210940DF
:101530006666304008000020DC010020E001002049
:10154000E60100200000B0412DE9F05F8B4609F074
:101550003CFA274C0022234609F09EFA6FF0010561
:101560002A460AF056F9234E0022334609F06AF85B
:10157000214F00223B4609F065F808F075FF09F09D
:101580009BFDDFF87880DFF878A04246534609F0EB
:1015900083FADFF8709000224B4609F07DFA08F0DC
:1015A00063FF19490860584609F00FFA00222346E4
:1015B00009F072FA2A460AF02CF90022334609F0A3
:1015C00041F800223B4609F03DF808F04DFF09F0D4
:1015D00073FD4246534609F05FFA00224B4609F07C
:1015E0005BFA08F041FF09490860BDE8F09F000080
:1015F0000000694000003E4000407F40F1D4C853E5
:10160000FB21094000C050400002002004020020DD
:1016100010B5114800F00AFB0A210F4800F068FAE3
:101620000D4800F010F980B209F0E6F94FF066328B
:101630000A4B09F031FA0022094B09F02DFA002279
:10164000084B09F029FA6FF00B020AF0E2F8BDE846
:10165000104009F08BB900004803002066660A407C
:101660000000264000005940F8B5002504460095CA
:1016700090F82400012808D0012084F82400204696
:10168000FFF756F8060002D053E00220F8BDA06A2A
:1016900020F4885040F00200A062022000F0DAFE40
:1016A00026490968B1FBF0F0400000E0401E0090C0
:1016B0000028FBD12046FFF767F82068816841F0D9
:1016C0000801816000F014FE074608E000F010FEFB
:1016D000C01B0A2803D920688068000715D4206839
:1016E00080680007F2D42068816841F004018160BD
:1016F00000F0FEFD074612E000F0FAFDC01B0A28CC
:101700000DD920688068400709D5A06A20F0020042
:1017100040F01000A06284F824500120F8BD206839
:1017200080684007E8D4A06A20F0020040F0010081
:10173000A06284F824503046F8BD000098000020D4
:1017400070470000F8B50024009490F82420254646
:10175000012A12D0012280F824204A681F23072A78
:101760000DD20668776B521E02EB820293409F43B4
:101770000B6893401F43776319E00220F8BD0668A9
:101780000D2A0AD2376BD21F02EB820293409F438D
:101790000B6893401F43376309E0F76A0D3A02EB89
:1017A000820293409F430B6893401F43F7620A688D
:1017B000072306680A2A0AD3F7680A3A02EB4202AC
:1017C00093409F438B6893401F43F76008E037695D
:1017D00002EB420293409F438B6893401F43376163
:1017E0000A68102A01D0112A20D1124B02689A42AD
:1017F00017D193681B0219D4936843F400039360D4
:101800000968102912D10C490C4A0968B1FBF2F1A0
:1018100001EB8101490000E0491E00910029FBD144
:1018200004E0816A41F020018162012480F82450A3
:101830002046F8BD002401409800002040420F00DF
:101840007047806A70470068C06C704710B50446E6
:1018500000684168890626D50168890723D5A16AF1
:10186000C90603D4A16A41F40071A1628168C1F381
:101870004241072910D1217B71B9416821F0200133
:101880004160A06A20F48070A062A06AC00403D402
:10189000A06A40F00100A0622046FFF7D1FF216856
:1018A0006FF0120008602068416809062ED50168B3
:1018B00049072BD5A16AC90603D4A16A41F4005196
:1018C000A1628168C1F30231072909D04168490545
:1018D00015D48168C1F34241072910D1217B71B928
:1018E000416821F080014160A06A20F48050A0622C
:1018F000A06AC00503D4A06A40F00100A06220469F
:10190000FFF71EFF21686FF00C0008602068416837
:1019100049060DD50068C0070AD0A06A40F480309F
:10192000A062204600F096F821686FF00100086080
:1019300010BD00002DE9F04104004FF000057FD0FC
:10194000A06A002628B9E66284F82460204600F0E8
:1019500083F82046FEF7ECFEA16AC90600D420B148
:10196000A06A40F01000A0626AE0A16A21F48851E8
:1019700041F00201A162334923688B42E16904D13D
:10198000B1F5402F01D14FF40021277B4FF4807C2B
:1019900041EA470261680A43A168614508D001290C
:1019A00006D0002194F814E0BEF1010F02D00AE045
:1019B0006146F7E7C7B1A76A47F02007A762E76A61
:1019C00047F00107E7625F6827F469470F435F60EC
:1019D000236899681C4F394011439960A16861459B
:1019E0000BD0012909D00CE0DFF860E0A7690EEB0D
:1019F00047370F4347F40061E5E7218A0D05A5F558
:101A000080152168CB6A23F470032B43CB622168D5
:101A100089680F4B1940914208D1E662A16A21F012
:101A2000020141F00101A162BDE8F081A06A20F04D
:101A3000020040F01000A062E06A40F00100E062A5
:101A40000120F1E7003C0140FDF7E1FF00E0FFFF6E
:101A5000FE0E1FFF7047000010B586B000210091F8
:101A60000191029103911E4C03681E4903221E48F6
:101A7000A34211D18B6943F400738B618B6903F42A
:101A8000007304938B6943F010038B61896901F043
:101A900010010491012113E0144CA3421DD18B6964
:101AA00043F480638B618B6903F4806304938B69D7
:101AB00043F010038B61896901F010010491022148
:101AC000CDE90012694600F005FB00221146122004
:101AD00000F08EFC122000F07EFC06B010BD00006D
:101AE0000024014000100240001001400028014085
:101AF0002DE9F84300270D460446009700F0F8FB57
:101B0000804620688168C90508D5A06A40F0200099
:101B1000A06284F824700120BDE8F8834168C905FB
:101B200003D4C06A10F4700F2AD0022000F092FC97
:101B30003B490968B1FBF0F62068036939490B425B
:101B40004FEA61014FEAA1121FD1C3684FEA611C3D
:101B500013EA0C0F19D103690B4225D1C06810425A
:101B600022D1142023E0681C0AD02DB100F0C0FB64
:101B7000A0EB0800A84203D920680068800725D59B
:101B8000206800688007EED52DE003690B4202D182
:101B9000C168114206D0026923490A4206D1C068D1
:101BA000084203D1542002E0292000E0FC204643F3
:101BB000009816E0681C11D02DB100F099FBA0EB45
:101BC0000800A8420AD90098B04207D2A06A40F0A3
:101BD0000400A06284F8247003209DE70098401C54
:101BE0000090B042E6D321686FF012000860A06A4E
:101BF00040F40070A06220688068C0F3424007286B
:101C00000CD1207B50B9A06A20F48070A062A06A39
:101C1000C00403D4A06A40F00100A06200207BE76A
:101C200098000020244992244992240070B504466B
:101C300090F8240001280DD0012084F824002046CB
:101C4000FEF7A2FD02004FF0000005D084F824004A
:101C5000104670BD022070BDA16A40F20123994375
:101C600041F48071A1621F4D23681F49AB4218D116
:101C70000E6816F4702F14D0A66A46F48016A66279
:101C80000E68760505D5A66A26F4005646F48056F9
:101C9000A662A66AF6040AD5E66A26F00606E66299
:101CA00006E0A66A26F48016A6625E68E9E7E062AE
:101CB00084F824006FF00200186020688368C3F382
:101CC0004243072B05D1A84208D1096811F4702FAF
:101CD00004D0816841F480118160B9E7816841F4E2
:101CE000A001F9E7002801400424014010B590F854
:101CF00021100022022905D00421816380F82020D0
:101D0000012010BD01680B6823F00E030B60016811
:101D10000B6823F001030B6090F84030C46B012185
:101D200001FA03F3636080F8211080F82020104648
:101D300010BD00002DE9F05F90F821100024022969
:101D400003D004218163012485E001680A6822F040
:101D50000E020A6001680A6822F001020A603F4E22
:101D60003E4FB215DFF8F4C0DFF8F090DFF8ECA0DA
:101D7000DFF8E8B0DFF8E4E00168783F130115020E
:101D8000ACF1640CA9F15009AAF13C0AABF1280BA3
:101D9000AEF1140E4FF48018B14227D9B9420ED0DB
:101DA000614512D049451DD0514518D0594518D02C
:101DB000714501D1424615E0294EB14201D10122BF
:101DC00010E0274E1436B14201D110220AE0244E11
:101DD0002836B14206D0224A3C32914201D11A46FD
:101DE00000E02A461E49091F0A602BE0B94213D0C1
:101DF000614517D0494522D051451DD059451DD0C8
:101E0000714501D142461AE0B14202D14FF08072D1
:101E100015E0134EB14201D1012210E0104E1436EC
:101E2000B14201D110220AE00D4E2836B14206D04F
:101E30000B4A3C32914201D11A4600E02A4607493A
:101E400080394A60012180F82110002180F820109B
:101E5000416B01B188472046BDE8F09F80000240F9
:101E6000080402402DE9F05FB0F5007F7ED17E4985
:101E7000DFF8F8817E4E08680025B0F5167F11DA8C
:101E8000401C086098F800104046012907D13178BD
:101E9000491CC9B231700A2901D135700570002181
:101EA0000846CDE0734C207800B300202070042059
:101EB00003F0A0FDDFF8C0A1D146CAF80000082059
:101EC00003F098FD6D4F404238606D480078FFF791
:101ED0000FFA03F013F83968D9F80000FFF734FB64
:101EE00098F800104046012902D009E00120DDE702
:101EF0003178491CC9B231700A2901D13570057099
:101F000060480178491CC9B201700A2905D15E49AF
:101F10005E4A0D700121117005702078012810D1E2
:101F2000FFF776FB6062A16A491CA162E26A64293C
:101F30001044E06205D190FBF1F155480160E56283
:101F4000A562544C2078072801D0082801D103F05D
:101F50002DFD03F0F7FD03F005F802F045FB02F05C
:101F6000BDFB02F039FCFFF759F800E07AE0FEF71C
:101F70006BFD2078092801D102F094F92078A04661
:101F8000F0B3002002F018FB4348DFF8109101681D
:101F9000D9F80000FEF70CFD834654463968DAF89C
:101FA000000004F0BFFC064698F800103C480529E4
:101FB0004CD0042950D0006804F088FA0BEB0601DD
:101FC00001EB000CDFF8DCB0DFF8DCA0081ACBF87E
:101FD00000C0DFF8D880CAF800005B46564642468B
:101FE00041F6F421604603F055FB1860424641F685
:101FF000F421306803F04EFB3060B8463B6800E0E7
:1020000022E02B484E462268D9F80010006803F001
:1020100049FB284F08B101203870D8F8002021680A
:10202000306803F0A1FB00B13D70194801683068C9
:1020300004F0CCFA002815D1DAF80010DBF8000023
:10204000BDE8F05F03F094BD64209BE701681A4887
:102050000078FEF739FDB1E7026839682068FFF7BC
:102060002BF8ABE7BDE8F09F8400002012000020B1
:102070008000002050010020580000205C0000205B
:10208000080000200000002088000020110000202F
:102090006C00002010000020740000207000002060
:1020A0007800002060000020640000200CE5FFFFA5
:1020B0008C0000200200002090000020044910B590
:1020C0000A68024202D00860FFF7CCFE10BD000093
:1020D000140401402DE9F84FDFF8C891002409F1FC
:1020E000040A0AF1040B23460F270BF1040ED1E07A
:1020F0000125A54006EA0502AA4276D1DFF8A8C16B
:102100004E68A6EB0C0866452BD00DDC032E34D0B0
:1021100005DC36B3012E19D0022E2FD11BE0112E73
:1021200016D0122E2AD119E0B8F5881F19D006DC76
:10213000B8F5803F15D0B8F5801F1FD111E0B8F574
:10214000001F0ED0B8F5041F18D10AE0CB6815E0C7
:10215000CB681B1D12E0CB6808330FE0CB680C3353
:102160000CE08B682BB1012B4FF0080303D04561C5
:1021700004E0042302E0056100E00023FF2A01D807
:10218000064601E000F104064FEA840501D9A5F1F5
:102190002005D6F8008007FA05FC28EA0C0803FAA7
:1021A00005F548EA0508C6F800804D68ED0070D5D1
:1021B0003E4DAE6946F00106AE61AD6924F00306FE
:1021C00005F0010500953A4D06EB050CDCF80850CA
:1021D000A607360F07FA06F825EA0805DFF8D480C7
:1021E000404503D14FF0000825E052E0DFF8C880F9
:1021F000404502D14FF001081DE0DFF8C0804045A6
:1022000002D14FF0020816E0DFF8B480404502D159
:102210004FF003080FE0DFF8AC80404502D14FF0EB
:10222000040808E0DFF8A080404502D14FF005081F
:1022300001E04FF0060808FA06F848EA0508CCF86D
:1022400008804D68D9F80060ED034D4601D516436E
:1022500000E096432E604D68DAF80060AD03554605
:1022600001D5164300E096432E604D68DBF8006010
:10227000ED025D4601D5164300E096432E604D68A1
:10228000DEF80060AD02754601D5164300E09643C6
:102290002E60641C0A681646E2407FF429AFBDE850
:1022A000F88F0000000401400000111000100240EF
:1022B0000000014000080140000C014000100140F6
:1022C0000014014000180140001C014080680840D3
:1022D00000D001207047C26821EA02030A4043EAA5
:1022E0000241016170470AB1016170470904FBE7CF
:1022F00001488068704700000C0300200248816894
:1023000002781144816070470C030020074810B523
:10231000016841F010010160032000F089F80320FA
:1023200000F006F800F024F8002010BD0020024064
:1023300070B50D4D04464FF47A712878B1FBF0F07A
:102340000A490968B1FBF0F000F0E0FB48B9102C35
:1023500007D200222146501E00F04AF800206C608F
:1023600070BD012070BD00000C030020980000200B
:102370000E4808B5816941F001018161816901F070
:1023800001010091C16941F08051C161C06900F053
:1023900080500090052000F04BF80548416821F07E
:1023A000E06141F00071416008BD00000010024092
:1023B0000000014000280DDB00F01F0201219140C8
:1023C0004009800000F1E020C0F88011BFF34F8F7A
:1023D000BFF36F8F7047002809DB00F01F02012157
:1023E00091404009800000F1E020C0F800117047E2
:1023F000F0B40E4B1B680C46C3F30223C3F1070570
:10240000042D00D90425191D072901D2002300E05D
:10241000DB1E012606FA05F1491E214099409E4027
:10242000761E16403143F0BC04F0DFBB0CED00E03B
:10243000064900F0070208684FF6FF03184040EA1B
:102440000220034A10430860704700000CED00E0D2
:102450000000FA0510B52CA401461DCC86B08DE80D
:102460001D002DA02D4C00680490002004292FD0C1
:102470000BDC01292FD0022928D100F071F9616805
:10248000C1F38131491C49001EE0082920D01029E0
:102490001CD161682268D20118D5C1F38342C903F7
:1024A0001DF8020009D5616804AAC1F34041515CDE
:1024B0001B4AB2FBF1F1484301E01A494843616805
:1024C000490203D440000321B0FBF1F006B010BD77
:1024D00000F056F9FAE7226AC2F30121012903D17B
:1024E000920701D5C803F1E7022905D1626A920774
:1024F00002D549F64040E9E70329E7D1216889037D
:10250000E4D54FF22440E1E7020304050607080979
:102510000A0B0C0D0E0F10100102000000100240FB
:1025200000127A0000093D002DE9F84305460078C5
:10253000354CC00754D0E0690026C00008D4E069DB
:1025400040F08050E061E069012600F0805000908A
:102550002E480168C90512D40168804641F4807193
:102560000160FFF7C5FE074605E000BFFFF7C0FEAC
:10257000C01B642823D8D8F80000C005F6D5206A0F
:1025800010F4407021D0A98801F4407181421CD020
:10259000206A1F49012220F440700A6000220A606C
:1025A0002062C00711D0FFF7A3FE074641F288382A
:1025B00008E000BFFFF79CFEC11B414502D9032084
:1025C000BDE8F883206A8007F4D5206A696820F4A2
:1025D0004070084320621EB1E06920F08050E06145
:1025E0002878800705D56068A96820F44040084332
:1025F00060602878C00605D56068696920F48000AD
:10260000084360600020DBE70010024000700040DB
:10261000400442422DE9F0470F46050061D0434E89
:10262000306800F00700B84209D2306820F0070097
:1026300038433060306800F00700B84251D1286854
:102640003B4C810712D5400703D5606840F4E06039
:1026500060602878000703D5606840F460506060CF
:102660006068A96820F0F000084360602878C0071F
:1026700028D06868012810D02168022810D0890766
:1026800000292EDA616821F0030101436160FFF740
:102690002FFE804641F288390DE021688903EFE77B
:1026A0008901EDE7FFF724FEA0EB0801494502D9B7
:1026B0000320BDE8F0876068696800F00C00B0EBAB
:1026C000810FEFD1306800F00700B8420BD93068B5
:1026D00020F0070038433060306800F00700B8424F
:1026E00001D00120E5E72878400705D56068E96852
:1026F00020F4E060084360602878000706D5606831
:10270000296920F4605040EAC100606000F038F8A8
:102710006168084AC1F30311515CC840064908606A
:1027200006480068FFF704FE0020C2E700200240D0
:1027300000100240EAB800089800002010030020B2
:102740000448054900684968044AC1F30221515C04
:10275000C84070479800002000100240FAB80008F6
:102760000448054900684968044AC1F3C221515C24
:10277000C84070479800002000100240FAB80008D6
:1027800012A185B00FC98DE80F0014A0144A00688B
:1027900004905168134801F00C03042B10D0082B4F
:1027A0000ED1C1F38343C9031DF803000AD5516854
:1027B00004AAC1F34041515C0A4A5043B0FBF1F016
:1027C00005B0704708494843FAE7000002030405D2
:1027D000060708090A0B0C0D0E0F1010010200006D
:1027E0000010024000127A0000093D002DE9F84F68
:1027F000040070D02078C04DC00749D06868C0F38D
:102800008100012807D06868C0F38100022809D13F
:102810006868C00306D52868800339D56068002839
:10282000E7D035E06068B0F5803F0BD010B1B0F56F
:10283000A02F11D0286820F480302860286820F468
:10284000802002E0286840F480302860606890B101
:10285000FFF74EFD06460AE0286840F48020286015
:10286000F0E700BFFFF744FD801B642873D8286899
:102870008003F7D50CE0FFF73BFD064605E000BFFF
:10288000FFF736FD801B6428F0D828688003F7D452
:1028900020789A4E80074FF001094FF0000839D593
:1028A000686810F00C0F07D06868C0F38100022838
:1028B00009D16868C00306D42868800714D5206948
:1028C000012808D110E02069B0B1C6F80090FFF7E8
:1028D0000FFD074605E00AE1FFF70AFDC01B0228CD
:1028E000C4D828688007F7D52868616920F0F80007
:1028F00040EAC10028600DE0C6F80080FFF7F8FC50
:10290000074604E0FFF7F4FCC01B022823D8286820
:102910008007F7D4207800072CD57948A169D9B170
:10292000C0F80090FFF7E4FC074604E0FFF7E0FC86
:10293000C01B02280FD8686A8007F7D571484FF48A
:10294000FA510068B0FBF1F0009000BF0098411E02
:102950000091FAD20EE080E0C0F80080FFF7C8FCDA
:10296000074604E0FFF7C4FCC01B022875D8686A5C
:102970008007F7D42078400760D5E8690027C000B9
:1029800008D4E86940F08050E861E869012700F068
:10299000805000905C480168C90513D401688346E3
:1029A00041F480710160FFF7A3FC824606E000BF9E
:1029B000FFF79EFCA0EB0A0064284ED8DBF800006D
:1029C000C005F5D5E06801280AD008B1052813D064
:1029D000286A20F001002862286A20F0040002E042
:1029E000286A40F001002862E06841F2883B98B113
:1029F000FFF77EFC82460BE0286A40F00400286264
:102A0000EEE700BFFFF774FCA0EB0A0159455AD866
:102A1000286A8007F6D50CE0FFF76AFC824605E0DD
:102A2000FFF766FCA0EB0A0159454CD8286A8007DD
:102A3000F6D41FB1E86920F08050E861E06988B3FE
:102A40006968C1F38101022944D00228C6F8608078
:102A500004D0FFF74DFC044638E034E0FFF748FCB3
:102A6000074604E0FFF744FCC01B02282BD8286867
:102A70008001F7D4206AB0F5803F05D16868A1686D
:102A800020F4003008436860D4E90801084369680D
:102A900021F4741108436860C6F86090FFF728FCC1
:102AA000044606E025E000BFFFF722FC001B0228D9
:102AB00009D828688001F7D51BE000BFFFF718FC94
:102AC000001B022802D90320BDE8F88F2868800186
:102AD000F4D40EE00128F7D06868226A00F480314F
:102AE000914204D1616A00F47010884201D0012043
:102AF000EAE70020E8E70000001002400000424240
:102B000080044242980000200070004010B5401E32
:102B1000B0F1807F01D3012010BD4FF0E02460614F
:102B20000F21601704F061F80020A06107202061E8
:102B3000002010BD7047704770B590F83C20012A06
:102B40002CD0012480F83C40022280F83D2003680C
:102B50005A689D6822F070060A6832435A60104B2A
:102B600002689A420ED00F4B9A420BD0B2F1804FBE
:102B700008D00D4B9A4205D00C4B9A4202D00C4B18
:102B80009A4204D1496825F080031943916080F886
:102B90003D40002180F83C10084670BD022070BD09
:102BA000002C0140003401400004004000080040B7
:102BB000000C004090F83D10012901D00120704721
:102BC000022180F83D100168CA6842F00102CA6023
:102BD00000680E4988420ED00D4988420BD0B0F1F2
:102BE000804F08D00B49884205D00B49884202D05B
:102BF0000A49884204D1816801F00701062903D0FF
:102C0000016841F00101016000207047002C014083
:102C1000003401400004004000080040000C004067
:102C20002DE9F0410D46040003D094F83D0018B1A1
:102C300008E00120BDE8F081002084F83C00204637
:102C400000F040F8022084F83D002068816844F2DA
:102C5000070291438160211D206803F003F8226878
:102C600090689169166A2B68AF69034340F203309C
:102C7000814341EA0721A868EF6908434FF6FC4108
:102C80008843E96840EA0720014328692F6A000168
:102C900040EA0730084369686D6926F0220646EA73
:102CA0000515294393602268906154F8460B016230
:102CB000012004F81F09E0752076E0762077A075E2
:102CC0000020B7E700B585B0002100910191029185
:102CD0000391224B02682248C0219A421BD1C2694B
:102CE00042F00402C261C26902F0040204928269E5
:102CF00042F0080282618069009100F008000490AF
:102D000069461848FFF7E6F9032201211E20FFF764
:102D10006FFB1E201DE0144B9A421CD1826942F4C5
:102D200000528261826902F400520492826942F088
:102D3000100282618069009100F0100004906946E1
:102D40000A48FFF7C7F9032201212C20FFF750FBA7
:102D50002C20FFF740FB05B000BD0000000800403C
:102D600000100240000C01400034014000100140FE
:102D700070B590F83E60044690F83F5090F84230AD
:102D800090F84320022021B104290ED0012E1BD13E
:102D900014E0012E18D1012B16D184F83E0084F8DE
:102DA000420001220021206820E0012D0CD1012ADF
:102DB0000AD184F83F0084F8430014E0012D03D1C8
:102DC000012B01D1012A01D0012070BD84F83E0001
:102DD00084F83F0084F8420084F843000122002177
:102DE000206802F085FF01220421206802F080FFA4
:102DF0002068016841F001010160002070BD000001
:102E00002DE9F04707464FF0804000696C4C0026E2
:102E10004FF00109E068B0F5C86F06DD6948017838
:102E200019B980F8009068480670684DAF427DD1AE
:102E3000387F022847D16088010677D4410641F2E5
:102E4000111840F2444A1DD540F0800060800421F2
:102E5000284600F030FCA0802868016A11EA080FBB
:102E600007D1016A11EA0A0F03D1016821F00101BB
:102E700001602868016A21F0A00101622868016AE6
:102E800001621CE0A680402060802868016A11EA87
:102E9000080F07D1016A11EA0A0F03D1016821F076
:102EA00001010160286846622868016A21F0A001DA
:102EB00001622868016A41F0200101622868016806
:102EC00041F001010160387F4FF4FA7A04283BD1C8
:102ED000DFF8FC804FF0080198F8010000283B481B
:102EE00013D000F0E8FBD8F80420801AA060226913
:102EF000801A00D54042504519DD2078401CC0B2F0
:102F00002070052813D8A26012E000F0D4FBC8F8A6
:102F1000040029680A6A22F400720A6229680A6AAF
:102F200042F400720A6288F801900DE039E02670E0
:102F3000A06820612868026A22F400720262286890
:102F4000026A026288F80160387F082829D1204F80
:102F50004FF00C010C3F787800281C4812D000F08C
:102F6000AAFB7968401AE0606169401A00D54042C6
:102F7000504518DD6078401CC0B26070052812D83A
:102F8000E16011E000F097FB78602868016A21F4A5
:102F9000005101622868016A41F40051016287F81A
:102FA0000190BDE8F0876670E06860612868016A9A
:102FB00021F4005101622868016A01627E70F0E725
:102FC000340100204800002013000020C00300202E
:102FD000941800202DE9F041054690F83C000C467D
:102FE000012836D0012085F83C008AB3042A42D05B
:102FF0002868082A51D0D4E90023E168066A26F43B
:1030000080560662C669076A26F4407646EA0323BC
:103010004FF6FF7606EA013123F4704319434FF46B
:10302000005627F4005306EA02321A43C1610262D5
:103030002868C16921F44061C1612868C169A2683A
:1030400041EA0221C161002085F83C00BDE8F08121
:1030500001E00220FAE7D4E90012E368286802F0F0
:1030600017FF2868816921F00C0181612868816956
:10307000A26811430FE0D4E90012E368286802F067
:103080003DFF2868816921F4406181612868816978
:10309000A26841EA02218161D5E7D4E90027267BB5
:1030A000016A21F480710162C169036A21F00301A0
:1030B000394321F0F00731074FF4007647EA1161F8
:1030C00023F4007306EA02221A43C16102622868EF
:1030D000C16921F00C01C1612868C169A26811436E
:1030E000B0E710B5040003D094F83D0010B107E03C
:1030F000012010BD002084F83C00204600F01EF89E
:10310000022084F83D00211D206802F0ABFD012063
:1031100084F8460084F83E0084F83F0084F84000BC
:1031200084F8410084F8420084F8430084F84400A5
:1031300084F8450084F83D00002010BD00B585B03E
:1031400000210091019102910391234B02682349D0
:1031500023489A421BD18A6942F400628A618A69D3
:1031600002F4006204928A6942F004028A61896969
:1031700001F004010491C11400916946FEF7AAFF11
:10318000002211461920FFF733F919201FE0B2F190
:10319000804F1ED1CA6942F00102CA61CA6902F0B9
:1031A000010204928A6942F004028A61896901F08D
:1031B000040104910E210091022102916946FEF75B
:1031C00089FF022201211C20FFF712F91C20FFF7C2
:1031D00002F905B000BD0000002C014000100240C3
:1031E0000008014010B5044651B104290DD008294A
:1031F00010D094F8410094F84520012811D10EE038
:1032000094F83E0094F84220F7E794F83F0094F8D1
:103210004320F2E794F8400094F84420EDE7012AB7
:1032200001D0012010BD022051B1042911D008297C
:1032300018D084F8410084F845000C291BD13CE0EB
:1032400084F83E0084F842002068C26842F002021E
:1032500010E084F83F0084F843002068C26842F020
:10326000040207E084F8400084F844002068C26843
:1032700042F00802C2600122206802F039FD1149C3
:10328000206888420ED0104988420BD0B0F1804FA0
:1032900008D00E49884205D00D49884202D00D4918
:1032A000884204D1816801F00701062903D0016832
:1032B00041F001010160002010BD2068C26842F0A9
:1032C0001002D7E7002C0140003401400004004008
:1032D00000080040000C004070B504460068016919
:1032E0004FF00005C943890715D4C168C943890750
:1032F00011D4E91E016101202077206880698007D0
:10330000204602D0FFF77CFD04E000F0D1F8204613
:1033100000F074F9257720680169C943490717D47B
:10332000C168C943490713D46FF004010161022049
:1033300020772068806910F4407F204602D0FFF794
:103340005FFD04E000F0B4F8204600F057F925775F
:1033500020680169C943090716D4C168C943090730
:1033600012D46FF008010161042020772068C06941
:103370008007204602D0FFF743FD04E000F098F8F4
:10338000204600F03BF9257720680169C943C9064A
:1033900017D4C168C943C90613D46FF01001016185
:1033A000082020772068C06910F4407F204602D0B2
:1033B000FFF726FD04E000F07BF8204600F01EF940
:1033C000257720680169C943C90708D1C168C94385
:1033D000C90704D1891E0161204600F06BF92068FD
:1033E0000169C943090609D4C168C943090605D45E
:1033F0006FF0800101612046FFF79CFB20680169A6
:10340000C943490609D4C168C943490605D46FF0C8
:1034100040010161204600F063F920680169C94359
:1034200089060BD4C168C943890607D46FF020010F
:1034300001612046BDE87040FFF77DBB70BD000014
:1034400030B585B00021009101910291039100688F
:103450001349884221D11348816941F004018161F7
:10346000816901F004010491816941F008018161E1
:103470008069022500F008000490C020CDE9000515
:103480000324694603940848FEF724FECDE900456D
:10349000694606480394FEF71DFE05B030BD0000E6
:1034A000000400400010024000080140000C0140F0
:1034B000704770B5044690F83C000D4601280AD0CC
:1034C000012084F83C0042B1042A18D0082A2AD0EE
:1034D0000C2A4DD139E0022070BD206802F016FCA4
:1034E0002068816941F0080181612068816921F0CB
:1034F00004018161206881692A69114311E0206813
:1035000002F034FC2068816941F400618161206827
:10351000816921F480618161206881692A6941EAB9
:103520000221816124E0206802F056FC2068C16914
:1035300041F00801C1612068C16921F00401C16145
:103540002068C1692A69114311E0206802F078FC03
:103550002068C16941F40061C1612068C16921F43A
:103560008061C1612068C1692A6941EA0221C161A3
:10357000002084F83C0070BD10B5040003D094F81E
:103580003D0010B107E0012010BD002084F83C0090
:10359000204600F01FF8022084F83D00211D20681D
:1035A00002F060FB012084F8460084F83E0084F8B5
:1035B0003F0084F8400084F8410084F8420084F819
:1035C000430084F8440084F8450084F83D0000205E
:1035D00010BD000008B500680649884208D10648B9
:1035E000C16941F00201C161C06900F002000090B0
:1035F00008BD0000000400400010024070470000B9
:1036000010B50446022249B104290ED0082913D06E
:1036100094F84100012816D0012010BD94F83E0016
:103620000128F9D184F83E200FE094F83F000128EA
:10363000F2D184F83F2008E094F840000128EBD153
:1036400084F8402001E084F841200122206802F043
:103650004FFB13492068134A884201D0904203D19E
:10366000436C43F400434364206888420DD0904289
:103670000BD0B0F1804F08D00B49884205D00B49E0
:10368000884202D00A49884204D1816801F00701CA
:10369000062903D0016841F001010160002010BD3E
:1036A000002C0140003401400004004000080040AC
:1036B000000C004070470246002041B1042909D0A7
:1036C00008290AD00C2901D11068006C70471068D5
:1036D000406B70471068806B70471068C06B704714
:1036E0007047704770470000F8B5026804461068DC
:1036F000D168536910F00F0F4FF0000553D003F05D
:10370000010601F4907737435FD0C20705D0CA05A0
:1037100003D5226C42F001022264420705D5DA0784
:1037200003D0226C42F002022264820705D5DA0738
:1037300003D0226C42F004022264020707D501F094
:103740002002324303D0226C42F008022264226C31
:10375000002A34D0800604D5880602D5204602F01F
:103760008FFF20684069216CC0F38010090700D4E6
:1037700030B3204602F06CFF2068416949061BD532
:10378000416921F040014161A06BA8B158494163F2
:10379000A06BFEF7CFFA002811D0A06B416B01B0EF
:1037A000BDE8F040084783060FD58B060DD52046AF
:1037B000BDE8F84002F064BF2046FFF793FFF8BD74
:1037C0002046FFF78FFF2564F8BD266B2023012ECE
:1037D00052D1C60650D5CE064ED51068506800901E
:1037E000506940062AD5A16B086840680004000CA7
:1037F000EAD0A68D8642E7D9E0858869202818D0CE
:10380000D06820F48070D0602068416921F0010107
:1038100041612068416921F04001416184F83E30F6
:1038200025632068C16821F01001C160A06BFEF71C
:103830005DFAA08DE18D401A81B219E0A08DE18D75
:10384000401A81B2E08D0028BED00029BCD0D068DB
:1038500020F49070D0602068426922F00102426139
:1038600084F83E3025632068C26822F01002C260EE
:103870002046FFF736FFF8BD05062BD50D0629D5E6
:1038800094F83D002128F6D1A068B0F5805F01D101
:103890002069B0B1206A411C21622168007848602B
:1038A000E08C401E0004000CE084E4D12068C16874
:1038B00021F08001C1602068C16841F04001C16011
:1038C000F8BD206A0088C0F308005060206A801CA0
:1038D0002062E5E74006F3D54806F1D5D1682046D9
:1038E00021F04001D16084F83D3000F02DFBF8BD9F
:1038F0004166000870B5040004D094F83D0000252E
:1039000010B106E0012070BD84F83C50204600F064
:1039100023F8242084F83D002068C16821F4005178
:10392000C160204602F008FF2068016921F490413F
:1039300001612068416921F02A0141612068C16864
:1039400041F40051C1602564202084F83D0084F8D2
:103950003E00002070BD000070B586B000240094C9
:10396000019402940394474D0368474802210322BF
:10397000AB422ED1C36943F48013C361C36903F41E
:1039800080130493836943F010038361836903F018
:1039900010030493836943F02003836180690392D9
:1039A00000F020000490C802CDE9000169463748C4
:1039B000FEF790FB0420CDE90004694634480294E8
:1039C000FEF788FB012211463520FEF711FD352058
:1039D00029E0304E3515B34229D1836943F4804341
:1039E0008361836903F480430493836943F0040390
:1039F00083618069284E00F0040004906810CDE9CE
:103A00000001039269463046FEF764FBCDE900549D
:103A1000694630460294FEF75DFB012211462520DF
:103A2000FEF7E6FC2520FEF7D6FC06B070BD1B4E67
:103A3000B342FAD1C36943F48023C361C36903F479
:103A400080230493836943F0080383618069CDE98F
:103A5000005100F00800CDE90320114D69462846C9
:103A6000FEF738FBE814CDE90004694628460294C5
:103A7000FEF730FB012211462720FEF7B9FC272074
:103A8000D1E700000050004000100240001001404B
:103A90000014014000380140000801400048004087
:103AA000000C014090F83E30202B0ED159B152B19C
:103AB00090F83C30012B08D0012380F83C300023E3
:103AC000036302F095BE012070470220704700009A
:103AD0002DE9F05F0068F74A0121F74D00244FF00F
:103AE000020A904278D105F10900F44E0078E860AE
:103AF000A872AB46B6F800C0DFF8C493F14AF24BA7
:103B0000F24DF34F592818D0804658281CD0C4468F
:103B10000A2823DD5A2839D0412849D045283AD0EF
:103B200042283CD043283AD0442838D046283BD0BD
:103B3000472839D0482837D00CE0ACF1640CA6F8FF
:103B400000C0A9F800A005E00CF1640CA6F800C0C4
:103B5000A9F8001014801C802C803C8084460A2820
:103B60002CDAA9F80010B0F1000C0FD001281FD0FA
:103B7000052810D002281DD003281BD0042819D0F6
:103B800006282AD0072828D0082826D014801C8090
:103B900003E03C8012E0148019802C80F9E7148047
:103BA0001C802C803980D9E714801C802980D4E7C0
:103BB0001180ECE714801C802C803980BE4AC54BF4
:103BC0005D4652787B280CD07D2811D02F78012FAC
:103BD00008D0022F0ED074E078E014801C80298079
:103BE000D7E7297003F802C0521C8BF8012068E067
:103BF00085F800A0D878502805D05878232858D0C8
:103C0000AA709A4629E0B448017052E06978081A0F
:103C100006F0DBFE02460B460020B04905F082FEAE
:103C20000746A87888468146504410F8010C303881
:103C300006F0CBFE3A46434606F02EFF80460F467E
:103C4000286907F039FA42463B4606F03FFC06F089
:103C50000BFC2861A9F10100A870A8780428D5D22E
:103C60009AF801003038092823D2DFE800F0050A6D
:103C70000D101316191C1F00286907F09BFB3080DC
:103C800017E09749286913E09649286910E096499A
:103C900028690DE0954928690AE09549286907E0F7
:103CA0009449286904E09449286901E09349286906
:103CB00008602C706C70AC70322186482C61FCF767
:103CC000BFFB7D49012209318D48EDE08D4A4FF05F
:103CD000060E90426FD1DFF8E0C177480CF10B0679
:103CE0009CF804209CF805B0EF78874B0B303678B1
:103CF0000BEB4B0C0CEB03090078164407F1010C9D
:103D0000F6B20CF0FF0C3A2F6DD2DFE807F01D235E
:103D10002A34373C4043464B43464B43464B43468D
:103D20004B43464B43464B43464B43464B43464B24
:103D300043464B43464B43464B43464B43464B431C
:103D4000464B43464B55595EA5280CD11870E97077
:103D5000A5320EE05A2806D1587085F803A05A32D1
:103D600007E03A2801D0EC703CE098700320E8703E
:103D70003A322A7137E0D870042024E01871052007
:103D800021E02E712FE0587185F803E0F9E7987172
:103D9000072018E089F8070001E089F8080085F895
:103DA00003C0EEE789F8090085F803C02E710BF116
:103DB0000100687117E01BE083F83700382002E04B
:103DC00083F838003920E870DBE783F83900EC70BD
:103DD0006C71904202D103F0E7FA03E03A214A48BD
:103DE000FCF70CFB2C71344901220B3147485BE096
:103DF000474988425CD13048464AC01D354E01785B
:103E0000297282F800E0A87964367B29315400D009
:103E100028B1401CC0B2A8710B2802D040E0AC71A0
:103E20003EE0AC71B07A7D283AD100210920FCF740
:103E300075FE717A884233D13179F07802F0BCFE98
:103E400035490860317AF07902F0B6FE334907F05F
:103E5000D3F9334907F02EFB4FF0FF3107F007FD90
:103E600007F02AF900222F4B06F0ECFB022207F0A4
:103E7000D0FC00222C4B06F00FFE00222B4B06F04C
:103E80000BFE2B4A2B4B06F0DDFB4FF066322A4B24
:103E900006F002FE06F0E8FA284908602848047097
:103EA000054901222748C91DBDE8F05FFFF7FABDAB
:103EB000BDE8F09F00480040200100200C000020D9
:103EC0000A000020380000203A0000203C000020BA
:103ED0003E0000200418002049000020000024407B
:103EE000180000201C0000202000002024000020DA
:103EF000280000202C00002030000020340000208A
:103F00006805002000500040B40C0020E0040020B0
:103F100000380140100000204C00002000007A44CE
:103F2000000020C30000694000003E4000407F4088
:103F3000D3DEE00B934F6A406666164050000020C7
:103F400001000020240500207047FEE770B50D46F3
:103F5000044600F0C1F8204600F08EF800F004F9A5
:103F6000284600F089F800F0FFF800F0B5F8641C6E
:103F7000E0B200F081F800F0F7F8002000F046F819
:103F8000044600F0D1F8204670BD000070B50D4C1D
:103F90000025C4F8B8510C48016821F07041016057
:103FA000016841F040510160C4F8BC51012004F5A2
:103FB000DC7403F0E3FB0120206003F0DFFB2560ED
:103FC00070BD000000802142040C014070B50D4C12
:103FD0000025C4F8B8510C48016821F07041016017
:103FE000016841F0405101600126C4F8BC613046CF
:103FF00004F5DC7403F0C2FB2660012003F0BEFB75
:10400000256070BD00802142040C01402DE9F0477D
:10401000814617480024016821F070410160016861
:1040200041F000410160134E254627464FF001083C
:10403000C6F8B871022003F0A1FBC6F8B88160068B
:10404000040ED6F83C0108B1641CE4B2022003F06F
:1040500095FB6D1CEDB2082DEAD3B9F1000F02D02B
:10406000FFF794FF01E0FFF7B1FF2046BDE8F087BE
:10407000040C0140008021422DE9F041064614481D
:10408000016821F070410160016841F04051016018
:10409000104C0027C4F8B8713D464FF00108F009F4
:1040A000C4F8BC017006060E012003F067FBC4F8DB
:1040B000B881012003F062FBC4F8B871012003F05D
:1040C0005DFB6D1CEDB2082DE9D3BDE8F081000069
:1040D000040C01400080214270B51148016821F0B4
:1040E00070410160016841F0405101600D4C0120B8
:1040F000C4F8BC01D4F83C1149B1C4F8B80103F0CC
:104100003DFB0025C4F8BC51D4F83C0108B10020A7
:1041100070BD012003F032FBC4F8B851012070BD1E
:10412000040C0140008021420D4810B5016821F0C7
:1041300070410160016841F040510160094C00206C
:10414000C4F8B801C4F8BC01012004F5DC7403F024
:1041500015FB012020606060BDE8104003F00EBB3D
:10416000040C01400080214270B51348002401680E
:1041700021F070410160016841F0004101600F4D84
:104180000126C5F8BC61304603F0F8FAC5F8B861FD
:1041900007E0641CE4B2322C03D9FFF7C5FF00200E
:1041A00070BD012003F0EAFAD5F83C010028F0D1F7
:1041B000C5F8B801012070BD040C01400080214207
:1041C00010B51446FFF7C2FE2070012010BDF8B5EF
:1041D00015461C460E4607466A46FFF7F1FF0120CA
:1041E0009DF80010A8400CB1084301E021EA00004E
:1041F000C2B28DF800203146384600F02BF8F8BDE9
:104200002DE9F84314461D460F4680466A46089E2F
:10421000FFF7D6FF00281BD0611CFF20C4F1080265
:1042200000FA01F12A44521ED0400143C5F10800B2
:104230008640F2B2C4F10700C2409DF80000084079
:1042400010438DF80000C2B23946404600F002F833
:10425000BDE8F88307B502AB012200F001F80EBDFE
:104260002DE9F0411E461546884607460024FFF713
:1042700033FF3846FFF700FFFFF776FF4046FFF7B2
:10428000FBFEFFF771FF06E0305DFFF7F5FEFFF77D
:104290006BFF641CE4B2AC42F6D3FFF745FF01208C
:1042A000BDE8F0810948D0F820010949D1F8202162
:1042B00040EAC200D1F81021D1F82411920042EA5C
:1042C000410108430349487001F08CBF008021423E
:1042D00000002242B802002041060748826942F0ED
:1042E000010282610548426822F0E0624260426851
:1042F0000A43426070470000001002400000014085
:104300002DE9F34F524D8DB00846E9684F4E0891A4
:1043100007F0D8F92968009107F0CCF8A96806F0F1
:10432000F7FE05F16404069067683046394607F0E9
:10433000C9F9D4F80890494607F0C4F9454908601E
:10434000E268904682F00046434A4E60C1E902624C
:10435000009907F0AFF8216806F0DAFE8346304690
:10436000009907F0A7F80646394606F0D1FE8246C6
:104370003046494606F0CCFE81463748009907F0A2
:1043800099F8414606F0C4FE804606990D9807F05C
:1043900099F9039059464FF07E5007F08BF8064686
:1043A00049464FF07E5007F085F8049031464FF0B3
:1043B0007E5007F07FF84FF07C5106F0A9FE0746CB
:1043C0000146304606F018FF01903946049806F081
:1043D00013FF009051464FF07E5007F06BF80746F0
:1043E0003146019807F066F8594607F060F92060F9
:1043F0003946019807F05EF8514607F058F96060B9
:104400003146009807F056F8494607F050F9A06089
:104410003946009807F04EF8414607F048F9E06049
:104420000399019807F046F8069906F071FEA86016
:1044300004460399009807F03DF8089906F068FED5
:10444000E8600FB02046BDE8F08F00006F12833A9D
:1044500034020020A0190020A69B443B2DE9F34F15
:10446000524D8DB00846E96B4F4E089107F02AF97E
:104470002968009107F01EF8A96B06F049FE05F1C6
:104480007404069067683046394607F01BF9D4F883
:104490000890494607F016F945490860E2689046D9
:1044A00082F00046434A4E60C1E90262009907F07B
:1044B00001F8216806F02CFE83463046009906F08C
:1044C000F9FF0646394606F023FE82463046494645
:1044D00006F01EFE81463748009906F0EBFF414684
:1044E00006F016FE804606990D9807F0EBF803904B
:1044F00059464FF07E5006F0DDFF064649464FF024
:104500007E5006F0D7FF049031464FF07E5006F003
:10451000D1FF4FF07C5106F0FBFD074601463046C7
:1045200006F06AFE01903946049806F065FE009098
:1045300051464FF07E5006F0BDFF074631460198C8
:1045400006F0B8FF594607F0B2F8206039460198E6
:1045500006F0B0FF514607F0AAF8606031460098B7
:1045600006F0A8FF494607F0A2F8A0603946009877
:1045700006F0A0FF414607F09AF8E0600399019821
:1045800006F098FF069906F0C3FDA8630446039958
:10459000009806F08FFF089906F0BAFDE8630FB0A7
:1045A0002046BDE8F08F00006F12833A34020020ED
:1045B000B0190020A69B443B094A68B109490B6821
:1045C0005B1C0B60834206D1D2F88801C043C2F85D
:1045D00088010020086070470120C2F888017047F8
:1045E00000002242A40000202DE9F05F2C480026A4
:1045F000354600783746012849D12A4800880128E5
:1046000045D029480088012841D0DFF8A0A0DFF874
:10461000A0B0DFF8A090002409EBC400406800EBD4
:104620000A035B4521D339F83480A8F10101B1F5C3
:10463000957F1AD8204A761C2049F6B2C2F800802D
:10464000884204DD1E4907F03DF8294605E0174978
:104650004942884204DA0146284606F059FD0546DB
:10466000B8F1960F01D27F1CFFB2641CE4B2E12CBA
:10467000D2D314480021144A082E01D2134B04E06F
:1046800005D911600A2F04D9114B13600160BDE8F0
:10469000F09FB5F5000F01DB0E49F7E70E49F5E78E
:1046A000100000203C0000203E0000200000B8BDAB
:1046B00001005301F00C00207C00002000009B430F
:1046C0000000B443500000204C000020000048438C
:1046D000000048C3000048C4000048442DE9F041F0
:1046E0002F4800264FF6FF750078374640F2DC5C15
:1046F00002284DD12B480088012849D02A4800883B
:10470000012845D0294C2A4BDFF8A880206D0021D4
:1047100033F831205AB1624509D2761CF6B2AA426A
:1047200005D203EBC10015464068C8F80020491CBB
:10473000C9B2E129ECD320492065884203DD1F4935
:1047400006F0C0FF20658046616D06F0BBFF1C4986
:10475000884202DC1B49884201D93B2F01D1C4F8B1
:104760005480DFF86480194F052E13D9284606F0CF
:1047700059FE174900F09AF838600021206DFCF7C7
:1047800057FDC8F8000013483968814200DD3860E1
:10479000BDE8F08100203860C8F80000F8E70000AC
:1047A000100000203C0000203E00002050010020AE
:1047B000F00C00207C000020000034430000B443D3
:1047C00000005041000050C1500000204C0000206B
:1047D00000009643000016442DE9F047274A284977
:1047E000D08909780446032946D126490988012938
:1047F00042D02549098801293ED0254B2349254F20
:104800001960DFF894C0254B254D00214FF4FA794B
:1048100005EBC10676683E4466451DD2B3F80080BC
:10482000C84510D235F8310008F1010800F1C8067A
:1048300016821FFA88F6A6F580781E80B8F1F30874
:1048400001D1A3F8009035F83160B2F810804645E8
:1048500002D23446134E3460491CC9B2E129D7D381
:10486000D08106F0DFFD0546204606F0DBFD294637
:10487000FCF7A6FB0C490860BDE8F087500100205A
:10488000100000203C0000203E00002000004843B3
:104890004C000020FFFF71BDFFFF05005400002009
:1048A000F00C00207C000020500000202DE9F04199
:1048B00006F0FDFE0C4E0546716A06F003FF06F099
:1048C000FBFB07460C46284606F0F6FB0022074B8A
:1048D00006F0E2F83A46234606F004FB05F0C4FD74
:1048E0007562BDE8F0810000A80000200000F8BF5C
:1048F00010B5022000F011F8032000F020F800208D
:1049000000F014F8002000F02FF8002000F026F846
:10491000BDE81040002000F01BB808B5032300904C
:1049200002226B21D020FFF76BFC08BD08B50223E3
:10493000009004221C21D020FFF762FC08BD08B5BE
:104940000223009004221B21D020FFF759FC08BD50
:10495000034601223721D020FFF739BC0346052248
:104960006A21D020FFF733BC034606226B21D020FA
:10497000FFF72DBC3EB50024114800940194029429
:104980000E498460016004730475012505614FF4CC
:1049900060214460C161FCF7CDFF08B1FCF7BEFBAC
:1049A0000A20CDE90005694602940548FCF7CAFED5
:1049B000002801D0FCF7B2FB3EBD000000240140FE
:1049C000180300203EB5002412480094019402947C
:1049D0000F498460016004730475012505614FF47B
:1049E00060214460C161FCF7A5FF08B1FCF796FBAC
:1049F0000B20CDE90005694602940648FCF7A2FEAB
:104A000008B1FCF78BFB0348FCF72EFE3EBD00000F
:104A100000280140480300202DE9F04786B000241B
:104A200048480094019402940394816941F0100174
:104A30008161816901F010010491816941F02001D7
:104A40008161816901F020010491816941F00401D3
:104A50008161816901F004010491816941F00801DB
:104A600081618069DFF8E08000F008000490012295
:104A700044F210314046FDF736FC002248F20C01AA
:104A80004046FDF730FCDFF8C4A000224FF440415F
:104A90005046FDF728FCDFF8B8904FF4004700229D
:104AA00039464846FDF71FFC012238215046FDF7E4
:104AB0001AFCB810CDE90004694640460294FDF79F
:104AC00009FB4CF21C3001250226CDE90005CDE999
:104AD000024669464046FDF7FDFACDE900546946B5
:104AE00048460294FDF7F6FA4CF23800CDE900058D
:104AF000CDE9024669465046FDF7ECFA0097039669
:104B0000CDE9015469464846FDF7E4FA28028DE8EC
:104B1000310069465046FDF7DDFA680200900D4805
:104B2000CDE9010569465046FDF7D4FA012202217C
:104B30001720FDF75DFC1720FDF73CFC06B0BDE833
:104B4000F08700000010024000100140000C0140FE
:104B5000000801400000211010B586B0002419485B
:104B600005940494009401940294154903940160FF
:104B70004721C0E9011442F20F71C0E903148021FA
:104B8000C0E90541FEF7ADFA08B1FCF7C7FA049495
:104B900004A90C480594FDF7CFFF08B1FCF7BEFA55
:104BA0000120CDE9004002940C2269460548039497
:104BB000FEF710FA002801D0FCF7B0FA06B010BDDD
:104BC000002C01407803002010B586B0002427484F
:104BD000059404940094019402944FF0804103944E
:104BE00001604721C0E901144FF6FF71C0E90314C9
:104BF00080218161FEF775FA08B1FCF78FFA049401
:104C000004A91A480594FDF797FF08B1FCF786FA46
:104C10000120CDE900400294042269461348039420
:104C2000FEF7D8F908B1FCF779FA082269460F486F
:104C3000FEF7D0F908B1FCF771FA0C2269460B486F
:104C4000FEF7C8F908B1FCF769FA04210748FEF736
:104C5000C9FA08210548FEF7C5FA0C210348FEF7FA
:104C6000C1FA0248FDF7A6FF06B010BDC003002040
:104C700010B58AB0002407941C2168460894FBF7FD
:104C8000DFFB2A482849C0E9001441F61F41C0E96A
:104C90000241802104618161FEF76EFC08B1FCF7DE
:104CA0003DFA079407A921480894FDF745FF08B18C
:104CB000FCF734FA6020CDE9000402940022694632
:104CC0001A480494FEF7F5FB08B1FCF727FA042212
:104CD00069461648FEF7EDFB08B1FCF71FFA0822FB
:104CE00069461248FEF7E5FB08B1FCF717FA0C22FB
:104CF00069460E48FEF7DDFB08B1FCF70FFA00210C
:104D00000A48FEF77DFC04210848FEF779FC0821DB
:104D10000648FEF775FC0C210448FEF771FC0348B9
:104D2000FEF78EFB0AB010BD00040040080400200E
:104D300010B58CB024216846FBF782FB00241A488A
:104D4000099418490A94C0E900144FF6FF71C0E9AC
:104D500002418021046181610320CDE9000401202A
:104D6000CDE902040A210491CDE90540CDE90741CE
:104D700069460D48FDF754FF08B1FCF7CFF90994D7
:104D800009A909480A94FDF7D7FE08B1FCF7C6F94E
:104D900000210548FDF7ECFF04210348FDF7E8FF7B
:104DA0000CB010BD000800405004002010B58CB0BD
:104DB00024216846FBF744FB00241B480994194949
:104DC0000A94C0E900144FF6FF71C0E90241802146
:104DD0000461C0E905410320CDE900040120CDE9CB
:104DE00002040A210491CDE90540CDE90741694655
:104DF0000D48FDF715FF08B1FCF790F9099409A9D2
:104E000009480A94FDF798FE08B1FCF787F90021DC
:104E10000548FDF7ADFF04210348FDF7A9FF0CB0DD
:104E200010BD000000340140980400200E4810B569
:104E30000C4901604FF461314160002181600C2216
:104E4000C160C0E904128161C161FEF753FD08B180
:104E5000FCF764F9BDE81040012204490248FEF75E
:104E600021BE000000500040E00400202B01002083
:104E70000E4810B50C4901604FF4E131416000214A
:104E800081600C22C160C0E904128161C161FEF73A
:104E900031FD08B1FCF742F9BDE810400122044998
:104EA0000248FEF7FFBD0000003801402405002045
:104EB000270100200E4810B50C4901604FF416512F
:104EC0004160002181600C22C160C0E9041281614F
:104ED000C161FEF70FFD08B1FCF720F9BDE81040F5
:104EE000012204490248FEF7DDBD000000480040F1
:104EF0006805002029010020FEE7000010B501F040
:104F0000AFFC1349012816D0022817D0032814D16A
:104F10000878042801D005280FD10E490878A8B1D7
:104F200000200870002808D1BDE810404FF4A0719F
:104F30000948FBF785BA0920087010BD07480178B9
:104F400011B10021017010BD0121FBE70120E8E74C
:104F50001000002014000020AC0500200F000020ED
:104F6000FEE700000C480078002814D10B4A0C49D9
:104F700032F83030401CC0B20B60E128F8D3094849
:104F80000078012805D008480078012803D100F0F6
:104F900079BD00F02BBA704710000020F00C002003
:104FA0007C000020130000204800002010B40021E5
:104FB000084B0A465FF0000003EBC004401CC0B27F
:104FC00062548028F8D3491CC9B20829F2D310BC16
:104FD00000F0B0B8F813002010B57F2816D83F298C
:104FE00014D80723A3EBD10301F00701C1F1070493
:104FF0000121A140064CDBB204EBC000002AC25CD8
:10500000C9B201D00A4300E08A43C25410BD000077
:10501000F81300202DE9F04116460D4607460024FE
:10502000FFF7DAFF324629463846FFF7D5FF281941
:10503000C1B232463846FFF7CFFF641CE4B2082CF9
:10504000F5D3BDE8F081000010B5394C0020C4F85C
:105050009001642004F5C87402F076FB0120206002
:105060000021AE2000F04AF90021D52000F046F9D9
:105070000021502000F042F90021A82000F03EF964
:1050800000213F2000F03AF90021D32000F036F94A
:105090000021084600F032F90021402000F02EF9EE
:1050A00000218D2000F02AF90021142000F026F9BB
:1050B0000021202000F022F90021022000F01EF93A
:1050C0000021A12000F01AF90021C02000F016F9FB
:1050D0000021DA2000F012F90021122000F00EF970
:1050E0000021812000F00AF90021EF2000F006F9EC
:1050F0000021D92000F002F90021F12000F0FEF893
:105100000021DB2000F0FAF80021302000F0F6F852
:105110000021A42000F0F2F80021A62000F0EEF813
:105120000021AF2000F0EAF8BDE81040FFF73EBFD5
:105130000080214270B5114E002400BF04F1B00080
:10514000C0B2002100F0DAF80021084600F0D6F8DD
:105150000021102000F0D2F85FF0000506EBC5003A
:105160000121005D00F0CAF86D1CEDB2802DF5D371
:10517000641CE4B2082CE1D370BD0000F8130020D9
:105180002DE9FF4F203A1F460C46894602F0FF0AE0
:105190000025DDF834B032E00C2F09D01A4901EBBC
:1051A0000A104FF00008465D300607D55A4609E060
:1051B00016490AEB4A0001EB8000F2E7BBF1000F51
:1051C00012D0002221460098FFF706FF7006641CEB
:1051D000060EE4B2A4EB0900B84207D100984C4691
:1051E000401CC0B2009008E00122EBE708F101008A
:1051F00000F0FF08B8F1080FD6D36D1CEDB2BD4228
:10520000CAD3BDE8FF8F000076BD000802B90008D0
:105210002DE9FF4F81B00026DDF838A01D469346EA
:10522000814634464FF001084FEA5A0727E0281B11
:10523000401EC1B20A2004F0B4F8BBFBF0F00A2112
:10524000B0FBF1F201FB120026B9691E8C4201DAB3
:1052500048B101263030C2B207FB0490C0B25346B9
:10526000CDF8008006E007FB0490C0B25346202230
:10527000CDF800800299FFF783FF641CE4B2AC42D2
:10528000D5D305B0BDE8F08FF8B516460D460446F7
:10529000012714E07A2C02D900241035EDB23A2D02
:1052A00003D900242546FFF781FE009732780C23AE
:1052B00029462046FFF764FF0834E4B2761C3078B4
:1052C0000028E7D1F8BD000070B50A4D0A4E002451
:1052D00035F814003178884201D2012200E0002222
:1052E00000212046FFF796FE641CE4B2802CEFD329
:1052F00070BD0000A01800209100002070B50025AE
:105300000E4A012311B1C2F88C3101E0C2F88C5170
:105310000B4C0021C4F8B851060602D5C2F89431EE
:1053200001E0C2F89451C4F8B8314006491C000E9F
:10533000C9B20829EED3C2F88C3170BD0080214279
:10534000000022420020044902460A54401CC0B218
:105350000928FAD370470000F81700202DE9F84F0C
:1053600001248246ADF800401D4800254570ADF887
:1053700000401C4E1C4F81464FF6FF7826E000BFD0
:10538000BDF8001011EA0A0F02D0C6F8A44101E0EE
:10539000C6F8A451C6F8A041052002F0EFF9C6F8FE
:1053A000A051052002F0EAF9C6F8A041D7F8200183
:1053B00030B199F80110BDF80020114389F80110AF
:1053C000BDF8000008EA4000ADF80000BDF800009C
:1053D000FF28D5D9BDE8F84F102002F0CFB9000062
:1053E000F817002000002242008021422DE9F05FE2
:1053F000DFF81481D8F81410D8F81000C1F1800635
:10540000C0F180006FF01301884202DD142800DA39
:1054100000208E4202DD142E00DA002605F0EAFF9D
:105420003A4C05466FF0060A20685146834606F05E
:105430001EFA294606F03EF83549374D354F0860CB
:10544000D5F8009010F1FF4F304608D205F0D2FF9A
:1054500006464FF03C41484606F02CF806E005F0C1
:10546000C9FF06465146484606F001FA314606F0A5
:1054700021F83860D8F81C200020DFF8A0A02849C7
:10548000284E0B2A05D00C2A20D088F80100BDE850
:10549000F09F98F80020521CD2B288F80020142AFD
:1054A000F5D1C8F81C0088F80000584605F030FE19
:1054B0002060B04200DD26605146484605F028FED7
:1054C000194928608842E2DD2960E0E798F8012068
:1054D000521CD2B288F80120142AD8D1C8F81C0076
:1054E00088F801000F46584606F0ECF82060B842F4
:1054F00000DA27605146484606F0E4F82860B042DA
:10550000C5DA2E60C3E70000E00000204000002064
:105510004C00002050000020440000200000964372
:105520000000C842000048440000FA4470B5FFF78C
:1055300009FF00F053F80B480B4BB0F803100A4872
:10554000203381800020012413F8105000F1010065
:105550006D1E04FA05F20A42C0B202D01028F3D33D
:10556000002070BDF8170020E000002010B5FFF704
:10557000DDFF1249124AC861D379CB60137A0B61FF
:1055800054794C6192798A6101240E4A042801D130
:10559000107888B1886800280DD0762B0BDA107847
:1055A000002808D1084914700870094907480860A4
:1055B00009490848086010BD8C60EEE7E000002053
:1055C000F817002013000020480000200000964338
:1055D0004000002000004844440000202DE9FC4722
:1055E00000248DF800400125ADF80450254EC6F882
:1055F0009041254F3878FFF7B1FE7878FFF7AEFE7F
:1056000002208DF80000214FDFF884904FF6FF78DC
:1056100030E000BFADF8045020E000BFC6F8A05154
:10562000052002F0ABF8C6F8A041052002F0A6F86C
:10563000C6F8A051D7F8200150B19DF80010BDF870
:10564000042019F8011011439DF8002009F80210F8
:10565000BDF8041008EA4100ADF80400BDF80400EC
:10566000FF28DBD9102002F089F89DF80000401CCB
:105670008DF800009DF800000928CBD3C6F89051A2
:10568000BDE8FC8700002242E200002000802142A9
:10569000F8170020884200DD0846904200DA1046E4
:1056A000704770472DE9F0472C4C894601466088C9
:1056B0001F4690460025A8B9104603F06DFE02462D
:1056C000384603F069FE1044B0F5967F09DAA088E9
:1056D000401C80B2A0800A2804D901206080A580E7
:1056E00003E0A580608801281ED1E088401C80B2BC
:1056F000E080C82801D9E58065801948194E8142AB
:1057000012DD3068143805F075FE494605F09EFE3E
:105710000AD23068143005F06DFE494605F096FF58
:1057200002D20220608002E06088022813D1208922
:10573000401C80B22081642801D92581658008EB56
:10574000070003F029FE40F6B831884203DD65808A
:105750000120BDE8F0870020FBE700005001002099
:105760000060EA46040000202DE9F04180461C4814
:1057700015460E46007800282ED01A4C1A4F608924
:1057800088B938680A3805F035FE414605F05EFEF6
:1057900009D238680A3005F02DFE414605F056FF63
:1057A00001D206B91DB16089012802D016E001209E
:1057B0006081A089401C81B20020A181322901D9D9
:1057C000A0816081032E09DD032D07DD642E05DA3B
:1057D000642D03DA60810120BDE8F0810020FBE741
:1057E0000200002050010020040000202DE9F047B5
:1057F0000027214C01253E46C4F894513946C4F88F
:10580000907104F5C874FBF703FCFBF701FC6160C1
:105810002160FBF7FDFBFBF7FBFB61602560FBF7FD
:10582000F7FBFBF7F5FB65602560FBF7F1FBFBF78A
:10583000EFFB65602160A4F5C874FBF7E9FBFBF79B
:10584000E7FBDFF838908846C4F89481FBF7E0FB6B
:10585000FBF7DEFB0F20FBF72DFD010929F81610E1
:10586000761CF6B2C4F89451FBF7D2FB7F1CFFB252
:10587000802FE9D3BDE8F08700002142A018002066
:105880002DE9F04788B0474C07A8CDE9004004F166
:10589000220106AB02AA881F02F0DAF82088C005B0
:1058A0007DD5029805F0A6FD6FF01D06314605F086
:1058B000DEFF05466060039805F09CFD314605F06B
:1058C000D6FF8046A060049805F094FD314605F0AF
:1058D000CEFF0746E060059805F08CFD314605F0E7
:1058E000C6FF064620610121284605F0C0FF394663
:1058F00005F0E0FD05464FF040473946404605F0CB
:10590000D9FD314605F0D6FD294605F001FC05F02C
:10591000D3FB01F033FADFF890904FF0663842463F
:105920004B4605F0B9F804F09FFDA061E068012145
:10593000054605F09CFF8246294605F0BBFD05465D
:10594000A0683946064605F0B5FD314605F0B2FDC2
:10595000294605F0B7FE4FF07E5105F0D9FB05F062
:10596000ABFB07460D460121606805F080FF31461C
:1059700005F0A0FD06465046216905F09BFD314625
:1059800005F0C6FB05F098FB3A462B4601F03EFCBD
:1059900042464B4605F080F804F066FD606108B0B1
:1059A000BDE8F087C401002066A64C4010B50E4C3F
:1059B0000120C4F8BC010F2004F5DE7401F0DEFE06
:1059C00000222260094841880B060CD5848889068C
:1059D00004EB9121AA2461434FF47A74B1FBF4F1F2
:1059E000034B1960428010BD0000224234010020A8
:1059F0007C0000200021032805D0042805D00828B9
:105A000005D000207047044A02E0044A00E0044A3E
:105A10001068116000B27047240400402408004060
:105A20002434014010B54221D020FEF78FFA0446FD
:105A30004121D020FEF78AFA04EB002005F0F2FCA9
:105A4000B0F18E4F03DD4FF08F4105F03BFE094969
:105A500005F0D2FB05F030FB074A084B04F036FD99
:105A60000022074B05F018F804F0FEFCBDE81040DA
:105A700005F084BC0000AA43A4703D0AD74342400D
:105A8000000024402DE9F0414FF4FA64244B6510E6
:105A900022462946186804F0D5FC2246214C18609D
:105AA0002946206804F0CEFC20601D686FF0630179
:105AB000A0F2DC50A5F2DC55884202DD642800DA51
:105AC00000208D4202DD642D00DA002505F092FCF5
:105AD0000746154C284605F08DFC0646134D384602
