:020000040800F2
:10000000F02000201502000839540008274300089A
:10001000D1530008CD0D0008D56E00080000000087
:100020000000000000000000000000002162000845
:100030002913000800000000835D00089562000895
:100040002F0200082F0200082F0200082F020008CC
:100050002F0200082F0200082F0200082F020008BC
:100060002F0200082F0200082F0200082F020008AC
:100070002F0200082F0200082F0200082F0200089C
:100080002F0200082F020008150700082F020008A1
:100090002F0200082F0200082F020008E5140008B4
:1000A0002F020008156300082F0200082F02000825
:1000B000216300082F0200082D6300082F020008AA
:1000C0002F0200082F0200082F0200082F0200084C
:1000D0002F020008456D00082F0200086D6D000812
:1000E0002F0200082F0200082F0200082F0200082C
:1000F000396300082F0200082F0200082F020008B1
:100100002F0200082F0200082F0200082F0200080B
:100110002F020008516B00082F0200082F02000870
:100120002F0200082F0200082F0200082F020008EB
:1001300000F002F800F05FF80AA090E8000C82449A
:100140008344AAF10107DA4501D100F054F8AFF277
:10015000090EBAE80F0013F0010F18BFFB1A43F0A5
:100160000103184754D7000074D700000A444FF029
:10017000000C10F8013B13F0070408BF10F8014B06
:100180001D1108BF10F8015B641E05D010F8016B4B
:10019000641E01F8016BF9D113F0080F1EBF10F8AF
:1001A000014BAD1C0C1B09D16D1E58BF01F801CBD2
:1001B000FAD505E014F8016B01F8016B6D1EF9D555
:1001C0009142D6D37047000000230024002500266A
:1001D000103A28BF78C1FBD8520728BF30C148BFAA
:1001E0000B607047642900F09980002070471FB5AC
:1001F0001FBD10B510BD00F05FFA1146FFF7F7FF05
:1002000008F0A6FD00F07DFA03B4FFF7F2FF03BC8F
:1002100007F0AEF80948804709480047FEE7FEE7C7
:10022000FEE7FEE7FEE7FEE7FEE7FEE7FEE7FEE7A6
:1002300004480549054A064B70470000136300084F
:1002400031010008F01A0020F0200020F01C0020EE
:10025000F01C002010B54C1084EA530404D5404231
:10026000C1F1000138BF491E1B4204D55242C3F1FF
:10027000000338BF5B1E00F00DF914F0804F04D06E
:100280004042C1F1000138BF491E14F0004F04D0B4
:100290005242C3F1000338BF5B1E10BD0FB40449C6
:1002A00010B503AA029800F0D1F910BC5DF814FB58
:1002B000940000202DE9F0410E4604460020206203
:1002C0002046E168884730B3252805D0D4E90121CC
:1002D0009047206A401CF2E7E168204600278847E3
:1002E000050018D0A5F14100192802D820354FF497
:1002F00000673246294620462760FFF773FF40B16A
:10030000012804D0F61D26F007060836D8E7361D6A
:10031000D6E72846DAE7206ABDE8F0812DE9F0410A
:100320000646002410687529314616A510D0AFF393
:100330000080002802DA404213A507E031688A07EE
:1003400001D512A502E0490704D511A5012401E059
:10035000AFF3008000210A2206F1240709E0B0FB78
:10036000F2FCB0FBF2F302FB1C003030785418466C
:10037000491C0028F3D123462A463046BDE8F04107
:1003800000F00AB9000000002D0000002B00000062
:100390002000000040EA010310B59B070FD1042A9A
:1003A0000DD310C808C9121F9C42F8D020BA19BA40
:1003B000884201D9012010BD4FF0FF3010BD1AB1A5
:1003C000D30703D0521C07E0002010BD10F8013BFA
:1003D00011F8014B1B1B07D110F8013B11F8014B21
:1003E0001B1B01D1921EF1D1184610BD02F0FF0374
:1003F00043EA032242EA024200F002B84FF0000250
:100400000429C0F0128010F0030C00F01B80CCF126
:10041000040CBCF1020F18BF00F8012BA8BF20F894
:10042000022BA1EB0C0100F00DB85FEAC17C24BFE8
:1004300000F8012B00F8012B48BF00F8012B704792
:100440004FF0000200B5134694469646203922BF6D
:10045000A0E80C50A0E80C50B1F12001BFF4F7AFB8
:10046000090728BFA0E80C5048BF0CC05DF804EB9A
:10047000890028BF40F8042B08BF704748BF20F808
:10048000022B11F0804F18BF00F8012B7047704706
:100490007047704753EA020C00F069802DE9F04B79
:1004A0004FF00006002B1FBFB3FA83F503FA05F4E3
:1004B00024FA05F65E4012BF1643B2FA82F502FA3C
:1004C00005F4C5F120051EBF22FA05FC44EA0C0420
:1004D000203556EA044C4FEA144418BF641C4FF010
:1004E00000084FF00009904271EB030C39D300294A
:1004F00019BFB1FA81F701FA07F6B0FA80F700FAEE
:1005000007F6C7F120071EBF20FA07FC46EA0C06D3
:100510002037B6FBF4FCA7EB0507103F07F01F0BD5
:10052000CBF120060CFA0BFB2CFA06F644BFB346BF
:100530000026202FA4BF5E464FF0000B5BEA060C9E
:1005400008BF4FF0010B19EB0B09ABFB027C48EB2A
:100550000608C01B06FB02CC0BFB03CC71EB0C01A5
:10056000C1E70B46024641464846BDE8F08B13B54D
:100570004FF000004FF00001AFF30080BDE81C40D9
:10058000704710B500F074F8006810BD10B504464F
:1005900000F06EF8046010BD2DE9F0470D46994655
:1005A0009246044600F124080168880604D5E069F3
:1005B00021F01001216000E00120A84201DD471B6D
:1005C00000E00027A1697A1902EB0900081AA0616E
:1005D0002078C00602D42046AFF30080002608E051
:1005E000D4E901211AF806009047206A401C761CC5
:1005F00020624E45F4DB2078C0060AD52046AFF3D2
:10060000008006E0D4E9012130209047206A401C98
:100610002062381EA7F10107F4DC07E0D4E90121CC
:1006200018F805009047206A401C2062281EA5F19A
:100630000105F3DC2046AFF300802078000602D5E8
:100640000220BDE8F0870120FBE70000074B70B5F2
:100650000D467B4400F015F80446284600F024F8C7
:1006600010B14FF0FF3070BD204670BD27810000F3
:10067000004870478C1A002001694A1C0261087802
:10068000704700B58FB0CDE90131002105910549D2
:100690007944CDE9031011466846FFF70BFE0FB011
:1006A00000BD0000E5FFFFFF007B00F08000704709
:1006B000004870478C1A00207546FFF7F9FFAE46D8
:1006C00005006946534620F00700854618B020B55E
:1006D000FFF7AEFDBDE820404FF000064FF00007E9
:1006E0004FF000084FF0000B21F00701AC46ACE8DA
:1006F000C009ACE8C009ACE8C009ACE8C0098D4647
:10070000704710B50446AFF300802046BDE81040A6
:10071000FFF77ABD10B5044801F080FABDE810403B
:10072000024801F07BBA000080030020B0030020E3
:1007300070B5044600688168C943C90717D181684C
:1007400021F00101816001F0C1FF05460AE000BF10
:1007500001F0BCFF401B022804D920688068C04318
:10076000C00706D020688068C043C007F0D00020D2
:1007700070BDA06A40F01000A062E06A40F0010085
:10078000E062012070BD0000F8B500260446009626
:1007900000688168C943C9072DD0816841F0010113
:1007A0008160164816490068B0FBF1F000E0401E79
:1007B00000900028FBD101F089FF054616E000BF3C
:1007C00001F084FF401B022810D920688068C043D4
:1007D000C0070BD0A06A40F01000A062E06A40F0B1
:1007E0000100E06284F824600120F8BD2068806880
:1007F000C043C007E4D10020F8BD000098000020ED
:1008000040420F002DE9F04F4748032187B00068B0
:100810004000A0F6AC0090FBF1F6002E01DA0026B5
:1008200002E0642E00DD6426404CA0680AF0B0FFB0
:100830003F4DDFF800812A4643460AF099FC0AF052
:1008400001FC070000D5474260680AF0A1FF2A4674
:1008500043460AF08DFC0AF0F5FB050000D5454241
:100860002078F0B100202070334C217801291AD073
:1008700000284DD0314800680BF020F9054630487B
:1008800000680BF01BF904462E4800680BF016F9BF
:1008900007B02B462246BDE8F04F01462AA0FFF7DD
:1008A000FDBC0120DFE72C4800680BF007F9834608
:1008B0002A4800680BF002F98246294800680BF0CC
:1008C000FDF88146274800680BF0F8F88046264876
:1008D00000680BF0F3F80746244800680BF0EEF8C8
:1008E0000646234800680BF0E9F8054621480068F1
:1008F0000BF0E4F88DE8C00F02461F482B46018834
:100900001EA0FFF7CBFC0020207007B0BDE8F08FE1
:10091000224800680BF0D2F8009033463A46294648
:100920001FA0FFF7BBFCF0E76C000020FC010020DB
:100930009A9999999999F13F49000020F80100206E
:10094000DC010020D80100207B4225643A25643A6E
:1009500025647D24000000003400002030000020C9
:100960002C0000202800002024000020200000206F
:100970001C000020180000200C0000207B43256490
:100980003A25643A25643A25643A25643A25643A5E
:1009900025643A25643A25647D2400007000002017
:1009A0007B4125643A25643A25643A25647D240018
:1009B0002DE9F041674C05462089401C20812078B4
:1009C00008B100F0D9F86078012700260A284AD239
:1009D000DFE800F00519313B4B6F7B9E6D8A267076
:1009E000608908B1401E6081002D60D0A078002889
:1009F0005DD0608900285AD127706671E664E0688E
:100A0000606501209DE0E068B0F17C5F0DDC00F0E6
:100A100071F95149884208DCA079062809D2401CA6
:100A2000C0B2A071062804D200E0A6712089C828AF
:100A30003DD3022085E02089282838D3012147486A
:100A400004F003FFE77003207BE0606900F0E4F846
:100A5000012806D10121414804F0F7FE6771042006
:100A60006FE0022823D108206BE0607908B1002DE7
:100A7000F9D1E669E56A3046A16C0BF087F801D838
:100A800005205EE04FF07E50854200DA054629469B
:100A900030460AF01DFF32490BF0ACF831490BF03B
:100AA000A9F80BF027F82189C8308142DBD2BDE8D4
:100AB000F081607908B1002DD5D1A06900F0ACF8C3
:100AC0000128CED10620E6643BE0607908B1002D14
:100AD000C9D1616AE06C0BF059F9C4D92248007899
:100AE0000F28E4D009202CE0607908B1002DBAD19C
:100AF000616AE06C0BF04AF9B5D9216AA06C0BF081
:100B000045F901D807201CE020897828ABD2CEE730
:100B1000607908B1002DA6D1616AE06C0BF036F95E
:100B2000A1D9216C206D0BF031F90ED826704FF44D
:100B3000C8706081606DA0650121084804F085FEE1
:100B40000020BDE8F04100F0CBB82089F0288AD21F
:100B5000ADE700001003002000004842641A0020A6
:100B60000000484300002040BA02002010F1FF4F6F
:100B700001D380F00040704770B51F4800680AF04C
:100B8000D9FFFFF7F3FF04461C4800680AF0D2FFC4
:100B9000FFF7ECFF21460AF027FE4FF0FF310BF084
:100BA00006FA0AF0F5FD164A164B0AF0E1FA09F0CA
:100BB000C7FF154C05460146A06C0AF015FEA0645F
:100BC0006078062803D0092801D0072804D12946D7
:100BD000E06C0AF009FEE0640C480068FFF7C6FF0D
:100BE0000B490BF007F80B490BF004F8216D0AF0E4
:100BF000FBFD206570BD00005C0000205800002057
:100C00002E2C211C0BBD6C3F10030020780000200F
:100C100090C1793D0AD7A33B10B5074C216D0AF06E
:100C2000B5FF01D8012010BD2089B0F57A7F01D32E
:100C3000022010BD002010BD100300202DE9F0415E
:100C4000254C002520466178436C244A406D4FF0C6
:100C50007E560A2909D2DFE801F00805070C230CAB
:100C6000252C052500211EE06565E5602561BDE8B0
:100C7000F081A16A00F056F86065E060A16AB142B7
:100C800002DD0AF025FE00E000200146A06B0AF01C
:100C9000B1FF206161780529E9D180F0004018E0BA
:100CA000E16A00E0216B00F03DF86065C4E90305EE
:100CB000DDE7616B00F036F86065E060616BB142C2
:100CC00002DD0AF005FE00E000200146E06B0AF0BC
:100CD00091FF2061CBE70000100300200000A0403E
:100CE000034948700020088188640865887170474E
:100CF00010030020094810B50068FFF737FF0446CD
:100D000007480068FFF732FF21460AF06DFDBDE895
:100D100010404FF0FF310BF04AB9000004020020F0
:100D2000000200202DE9F0411E4617460C460546FC
:100D30000AF02CFF01D2394600E031460E46284623
:100D40000AF052FD074621460AF020FF02D238463B
:100D5000BDE8F081314628460BF054F8054621469F
:100D60000BF014F801D22846F2E72046F0E7000025
:100D700070B5044610480D4600680AF0DBFE2146B7
:100D80000BF040F80D49044685F0004009680AF070
:100D900031FF0B490AF09CFD05460B4809490068E4
:100DA0000AF096FD21460AF025FF29460BF02AF8A5
:100DB000BDE870400AF082BE040000201C00002044
:100DC0000000C8420000C8C218000020FEE7000072
:100DD00010B50B4B4FF4004158B10A4C2268521C1D
:100DE0002260824204DB184601F063FC0020206090
:100DF00010BDBDE810400022184601F062BC0000A2
:100E0000000801409C00002070B5184800780528B3
:100E10001DD117480088012819D0164800880128DC
:100E200015D0154C00256079401CC0B260710428B3
:100E30000ED000D9657100F079FA104C68B11048F5
:100E4000007888B15FF00000FFF7C2FF256070BD39
:100E500005F03CF800F04CFBECE70A482060BDE8E8
:100E600070400020FFF7B4BF6420EDE710000020C1
:100E70003C0000203E000020A80100204C00002083
:100E80000E000020000096432DE9F0410F46104E61
:100E9000104C40380AF04EFE0546214638460AF00E
:100EA000A9FE0446314628460AF0A4FE21460AF06F
:100EB0009BFC044600F03AFA012803D1064800786A
:100EC00000B900242046BDE8F0410AF0F7BD00005B
:100ED0000000F0418FC2F53D0E000020024610B523
:100EE0000020012903D000290BD10A4B0EE0094B49
:100EF0000021323B03E05C5C6040491CC9B2914276
:100F0000F9D310BD5C5C6040491CC9B29142F9D371
:100F100010BD0000D0180020884201DA0846704752
:100F20009042FCDD104670472DE9F0410D4C0A4619
:100F300007460B4E104621680AF05CFE216B0AF052
:100F400053FC014608480AF055FE0546314638462E
:100F50000AF050FE29460AF047FC2063BDE8F08104
:100F60000AD7A33C3402002048E17A3F2DE9F04142
:100F70000D4C0A4607460B4E104621680AF03AFE11
:100F8000216E0AF031FC014608480AF033FE05469E
:100F9000314638460AF02EFE29460AF025FC206626
:100FA000BDE8F0810AD7A33C3402002048E17A3F33
:100FB000F8B500266B46012275216820009607F0DF
:100FC00041FE334F0120387032A0FFF767F99DF8DA
:100FD000000068280CD0BFF34F8F37480168374AAC
:100FE00001F4E06111430160BFF34F8F00BFFDE7E3
:100FF00007F0CCFF002848D1782008F085FC10B914
:1010000024A0FFF74BF9782007F0F2FE10B92CA0CE
:10101000FFF744F9C82008F037FC10B932A0FFF7F9
:101020003DF907F047F810B939A0FFF737F94548FF
:10103000044607F069FE0546E01C07F065FE45EA38
:10104000C005A01D07F060FE45EA801080B207F0E1
:10105000F1F910B93CA0FFF721F940F2731006F046
:1010600001FF10B942A0FFF719F9C82007F04AF9AB
:1010700010B949A0FFF712F909F0ACFC012008F003
:1010800029FB10B94DA0FFF709F93E70F8BD00002B
:101090000F0000206D70755F7365745F73656E730C
:1010A0006F7220636F6D706C657465202E2E2E2E0E
:1010B0002E2E0D0A000000000CED00E00400FA05E1
:1010C0006D70755F636F6E6669677572655F66697F
:1010D000666F20636F6D706C657465202E2E2E2EEA
:1010E0002E2E0D0A000000006D70755F7365745F31
:1010F00073616D706C655F7261746520636F6D7094
:101100006C657465202E2E2E2E2E2E0D0A000000EA
:10111000646D705F6C6F61645F6D6F74696F6E5F3B
:101120006472697665725F6669726D776172652057
:10113000636F6D706C657465202E2E2E2E2E2E0D15
:101140000A000000EC010020646D705F7365745F3D
:101150006F7269656E746174696F6E20636F6D7014
:101160006C657465202E2E2E2E2E2E0D0A0000008A
:10117000646D705F656E61626C655F6665617475F4
:10118000726520636F6D706C657465202E2E2E2E37
:101190002E2E0D0A00000000646D705F7365745F91
:1011A0006669666F5F7261746520636F6D706C65F0
:1011B0007465202E2E2E2E2E2E0D0A006D70755F5A
:1011C0007365745F646D705F737461746520636FC1
:1011D0006D706C657465202E2E2E2E2E2E0D0A003D
:1011E00070B5164800680AF0A5FC15490AF070FBB6
:1011F000044614480121006800F06CF812480A21E6
:101200000068B0FBF1F00AF0ADFC022100F062F8DA
:101210000321204600F05EF8032000F01BF80B4A83
:1012200000210B4C131D06E015686D06FCD5655CAE
:101230001D60491CC9B28142F6D370BD6C0000200C
:101240000000C842700000207C00002000380140EF
:10125000281A00200A2839D890B31D4924220B28C7
:101260000A7033D2DFE800F032060A0E12161A1E98
:1012700022272D000520487106207047092048725A
:101280000A2070470D2048730E20704711204874C3
:10129000122070471520487516207047192048768F
:1012A0001A2070471D2048771E207047212081F8A2
:1012B000210022207047252081F825002620704734
:1012C00004E0292081F829002A20F8E70020F6E729
:1012D000281A002003B50A2912D8002910D00B299A
:1012E0000ED2DFE801F00D06080E10121416181ABF
:1012F0001C00012200E005220A49684600F076F948
:101300000CBD0922F8E70D22F6E71122F4E71522B9
:10131000F2E71922F0E71D22EEE72122ECE7252271
:10132000EAE70000281A002070470000F0B51348D3
:101330000021007801281ED1114C124D124A134F82
:10134000002040F2BB2600BF02EBC0035B682344D1
:10135000AB4208D332F83030A3F1010CB44502D2CD
:10136000491CC9B23B60401CC0B2E128ECD3032940
:1013700001D90120F0BD0020F0BD000014000020C4
:10138000000060BE01000A02580D00207C00002011
:1013900070B50AF02CFD0D4E0446B1690AF032FD1D
:1013A0000B4909680AF026FC0A490AF091FA054639
:1013B0000948214600680AF01DFC08490AF088FA2D
:1013C00029460AF01FFDB46170BD0000A80000208E
:1013D000340000200000C842300000200000C8C2D5
:1013E0000020401C0A28FCDB7047000070B51F4835
:1013F0000078042830D11E48008801282CD01D48D0
:101400000088012828D0042000F03CF91A4CE06044
:10141000052000F037F920610F2000F033F96061FA
:101420002369E26803EBC30101EB031102EB8105C1
:10143000C72101FB00511A44104491FBF0F0A06158
:10144000FFF774FF0D4C40B10D48007860B10020EB
:10145000FFF7BEFC0020206070BD0A482060BDE898
:1014600070400020FFF7B4BC6420F1E710000020BA
:101470003C0000203E000020A80100204C0000207D
:101480000E000020000096432DE9F0411348144659
:10149000104E8069104F64380AF04CFB05463946FF
:1014A00020460AF0A7FB044685F0004031460AF0CA
:1014B000A1FB21460AF0A6FC0446FFF737FF0128EE
:1014C00003D10748007800B900242046BDE8F04168
:1014D0000AF0F4BA00007042CDCC4C3EA8010020C6
:1014E0000E0000204FF4007000F0D6BF72B6FEE789
:1014F00070B53A4A3A4C0F231088E08023700146B9
:10150000267832F816508D4200D32946761CF5B263
:1015100025707B2DF4D3E18020812370257832F86B
:101520001560864200D830466D1CEDB225707B2DCB
:10153000F4D3208108442B49C0F34700087023707E
:10154000237832F81310814212D902EB43014D88FF
:1015500085420DD98D8885420AD9CD88854207D22A
:101560000D89854204D24989814201D2A37004E0E9
:101570005B1CD9B221707629E2D376216170CBB29F
:1015800032F81310814212D202EB43014D8885429A
:101590000DD28D8885420AD2CD88854207D90D8922
:1015A000854204D94989814201D9E37004E05B1E78
:1015B000D9B261700F29E2D8E078A1780A4D0844C9
:1015C000400828702179401A08F024FA5A2801DDD1
:1015D000207928702878207170BD0000081900203B
:1015E000A8010020910000209000002003788B5477
:1015F000114443784B7082788A70C078C870704705
:101600002DE9F0410AF0F3FB194C05461949A06297
:10161000206B884202DC1849884200D921632846A1
:10162000616B0AF0EFFBA1680AF0E4FA0646216B51
:10163000E0680AF0DFFA07466068294680F000405B
:101640000AF0D8FA39460AF0DDFB31460AF0DAFB37
:101650006563E062094801680948006805F044FADA
:10166000012801D100202063E06ABDE8F08100007C
:10167000A800002000007A4400007AC46C0000201A
:10168000700000203EB569460090072002900120BE
:1016900001900A4800F03EFA084800F0AFFC1E2115
:1016A000064800F00DFC054800F0B3FA800503D5AC
:1016B000024800F0B0FA84B220463EBD800300200C
:1016C0002DE9F05F044604F01DFD8349DFF80C822C
:1016D000DFF80C92DFF80CA2834D844F0860012CD8
:1016E0007ED04421D02002F01FFE04464321D020AA
:1016F00002F01AFE04EB00207D4C4621A083D0208E
:1017000002F012FE06464521D02002F00DFE06EB47
:10171000002020844821D02002F006FE0646472102
:10172000D02002F001FE06EB0020E0833C21D02017
:1017300002F0FAFD06463B21D02002F0F5FD06EB53
:101740000020E0823E21D02002F0EEFD06463D2141
:10175000D02002F0E9FD06EB002060824021D0207D
:1017600002F0E2FD06463F21D02002F0DDFD06EB4F
:10177000002006B2A682B4F91C0040420AF0DAF951
:10178000C8F80000304609F08CFC06468846B4F9DB
:10179000120009F086FC3246434606F073F8DFF883
:1017A00054B100225B4609F0E3FC534A534B09F065
:1017B000B5FA09F047FC2083B4F9140009F071FC74
:1017C00006468846B4F9160009F06BFC43463246DB
:1017D00006F058F800225B4609F0CAFC464A00E0D1
:1017E00028E0464B09F09AFA09F02CFC6083B4F922
:1017F0001C0009F056FCDFF808814FF066363246CF
:10180000434609F08BFA09F09BF98346B4F92000AE
:1018100009F047FC3246434609F080FA09F090F996
:1018200006463848DFF8E0800078022817D0032801
:1018300027D03BE004F094FB344C28683860B4F9BE
:1018400000000AF077F9C8F80000B4F904000AF0C3
:1018500071F9C9F800002E48B0F9040030E0B4F97D
:1018600018000AF067F9594602F0B6FF80F0004010
:101870002860B4F91A000AF05DF9314603F05AF80D
:1018800010E0B4F918000AF055F95946FFF74CFB7F
:1018900080F000402860B4F91A000AF04BF9314694
:1018A000FFF764FB80F00041C8F80010286838603A
:1018B000B4F91E000AF03EF9C9F80000B4F91400AA
:1018C0000AF038F9CAF800001249386809F08CFFAC
:1018D0003860BDE8F09F0000680000207400002020
:1018E000780000208C000020D8010020700000202B
:1018F0005001002000806640F1D4C853FB2109400C
:101900006666304008000020DC010020E001002075
:10191000E60100200000B0412DE9F05F8B4609F0A0
:10192000C0FB274C0022234609F022FC6FF0010582
:101930002A460AF00EFB234E0022334609F0EEF948
:10194000214F00223B4609F0E9F909F0F9F809F0C6
:101950001FFFDFF87880DFF878A04246534609F091
:1019600007FCDFF8709000224B4609F001FC09F0FB
:10197000E7F819490860584609F093FB002223460E
:1019800009F0F6FB2A460AF0E4FA0022334609F091
:10199000C5F900223B4609F0C1F909F0D1F809F078
:1019A000F7FE4246534609F0E3FB00224B4609F09E
:1019B000DFFB09F0C5F809490860BDE8F09F0000A9
:1019C0000000694000003E4000407F40F1D4C85311
:1019D000FB21094000C0504000020020040200200A
:1019E00010B5114800F00AFB0A210F4800F068FA10
:1019F0000D4800F010F980B209F06AFB4FF0663232
:101A00000A4B09F0B5FB0022094B09F0B1FB00229B
:101A1000084B09F0ADFB6FF00B020AF09AFABDE833
:101A2000104009F00FBB0000B003002066660A40BA
:101A30000000264000005940F8B5002504460095F6
:101A400090F82400012808D0012084F824002046C2
:101A5000FEF76EFE060002D053E00220F8BDA06A39
:101A600020F4885040F00200A062022000F0E0FE66
:101A700026490968B1FBF0F0400000E0401E0090EC
:101A80000028FBD12046FEF77FFE2068816841F0E8
:101A90000801816000F01AFE074608E000F016FE1B
:101AA000C01B0A2803D920688068000715D4206865
:101AB00080680007F2D42068816841F004018160E9
:101AC00000F004FE074612E000F000FEC01B0A28EA
:101AD0000DD920688068400709D5A06A20F002006F
:101AE00040F01000A06284F824500120F8BD206866
:101AF00080684007E8D4A06A20F0020040F00100AE
:101B0000A06284F824503046F8BD00009800002000
:101B100070470000F8B50024009490F82420254672
:101B2000012A12D0012280F824204A681F23072AA4
:101B30000DD20668776B521E02EB820293409F43E0
:101B40000B6893401F43776319E00220F8BD0668D5
:101B50000D2A0AD2376BD21F02EB820293409F43B9
:101B60000B6893401F43376309E0F76A0D3A02EBB5
:101B7000820293409F430B6893401F43F7620A68B9
:101B8000072306680A2A0AD3F7680A3A02EB4202D8
:101B900093409F438B6893401F43F76008E0376989
:101BA00002EB420293409F438B6893401F4337618F
:101BB0000A68102A01D0112A20D1124B02689A42D9
:101BC00017D193681B0219D4936843F40003936000
:101BD0000968102912D10C490C4A0968B1FBF2F1CD
:101BE00001EB8101490000E0491E00910029FBD171
:101BF00004E0816A41F020018162012480F82450D0
:101C00002046F8BD002401409800002040420F000B
:101C10007047806A70470068C06C704710B5044612
:101C200000684168890626D50168890723D5A16A1D
:101C3000C90603D4A16A41F40071A1628168C1F3AD
:101C40004241072910D1217B71B9416821F020015F
:101C50004160A06A20F48070A062A06AC00403D42E
:101C6000A06A40F00100A0622046FFF7D1FF216882
:101C70006FF0120008602068416809062ED50168DF
:101C800049072BD5A16AC90603D4A16A41F40051C2
:101C9000A1628168C1F30231072909D04168490571
:101CA00015D48168C1F34241072910D1217B71B954
:101CB000416821F080014160A06A20F48050A06258
:101CC000A06AC00503D4A06A40F00100A0622046CB
:101CD000FFF71EFF21686FF00C0008602068416864
:101CE00049060DD50068C0070AD0A06A40F48030CC
:101CF000A062204600F096F821686FF001000860AD
:101D000010BD00002DE9F04104004FF000057FD028
:101D1000A06A002628B9E66284F82460204600F014
:101D200083F82046FEF704FDA16AC90600D420B15D
:101D3000A06A40F01000A0626AE0A16A21F4885114
:101D400041F00201A162334923688B42E16904D169
:101D5000B1F5402F01D14FF40021277B4FF4807C57
:101D600041EA470261680A43A168614508D0012938
:101D700006D0002194F814E0BEF1010F02D00AE071
:101D80006146F7E7C7B1A76A47F02007A762E76A8D
:101D900047F00107E7625F6827F469470F435F6018
:101DA000236899681C4F394011439960A1686145C7
:101DB0000BD0012909D00CE0DFF860E0A7690EEB39
:101DC00047370F4347F40061E5E7218A0D05A5F584
:101DD00080152168CB6A23F470032B43CB62216802
:101DE00089680F4B1940914208D1E662A16A21F03F
:101DF000020141F00101A162BDE8F081A06A20F07A
:101E0000020040F01000A062E06A40F00100E062D1
:101E10000120F1E7003C0140FDF7E1FF00E0FFFF9A
:101E2000FE0E1FFF7047000010B586B00021009124
:101E30000191029103911E4C03681E4903221E4822
:101E4000A34211D18B6943F400738B618B6903F456
:101E5000007304938B6943F010038B61896901F06F
:101E600010010491012113E0144CA3421DD18B6990
:101E700043F480638B618B6903F4806304938B6903
:101E800043F010038B61896901F010010491022174
:101E9000CDE90012694600F00BFB0022114612202A
:101EA00000F094FC122000F084FC06B010BD00008D
:101EB00000240140001002400010014000280140B1
:101EC0002DE9F84300270D460446009700F0FEFB7D
:101ED000804620688168C90508D5A06A40F02000C6
:101EE000A06284F824700120BDE8F8834168C90528
:101EF00003D4C06A10F4700F2AD0022000F098FCBE
:101F00003B490968B1FBF0F62068036939490B4287
:101F10004FEA61014FEAA1121FD1C3684FEA611C69
:101F200013EA0C0F19D103690B4225D1C068104286
:101F300022D1142023E0681C0AD02DB100F0C6FB8A
:101F4000A0EB0800A84203D920680068800725D5C7
:101F5000206800688007EED52DE003690B4202D1AE
:101F6000C168114206D0026923490A4206D1C068FD
:101F7000084203D1542002E0292000E0FC2046431F
:101F8000009816E0681C11D02DB100F09FFBA0EB6B
:101F90000800A8420AD90098B04207D2A06A40F0CF
:101FA0000400A06284F8247003209DE70098401C80
:101FB0000090B042E6D321686FF012000860A06A7A
:101FC00040F40070A06220688068C0F34240072897
:101FD0000CD1207B50B9A06A20F48070A062A06A66
:101FE000C00403D4A06A40F00100A06200207BE797
:101FF00098000020244992244992240070B5044698
:1020000090F8240001280DD0012084F824002046F7
:10201000FEF7BAFB02004FF0000005D084F8240060
:10202000104670BD022070BDA16A40F201239943A1
:1020300041F48071A1621F4D23681F49AB4218D142
:102040000E6816F4702F14D0A66A46F48016A662A5
:102050000E68760505D5A66A26F4005646F4805625
:10206000A662A66AF6040AD5E66A26F00606E662C5
:1020700006E0A66A26F48016A6625E68E9E7E062DA
:1020800084F824006FF00200186020688368C3F3AE
:102090004243072B05D1A84208D1096811F4702FDB
:1020A00004D0816841F480118160B9E7816841F40E
:1020B000A001F9E7002801400424014010B590F880
:1020C00021100022022905D00421816380F82020FC
:1020D000012010BD01680B6823F00E030B6001683E
:1020E0000B6823F001030B6090F84030C46B0121B2
:1020F00001FA03F3636080F8211080F82020104675
:1021000010BD00002DE9F05F90F821100024022995
:1021100003D004218163012485E001680A6822F06C
:102120000E020A6001680A6822F001020A603F4E4E
:102130003E4FB215DFF8F4C0DFF8F090DFF8ECA006
:10214000DFF8E8B0DFF8E4E00168783F130115023A
:10215000ACF1640CA9F15009AAF13C0AABF1280BCF
:10216000AEF1140E4FF48018B14227D9B9420ED007
:10217000614512D049451DD0514518D0594518D058
:10218000714501D1424615E0294EB14201D10122EB
:1021900010E0274E1436B14201D110220AE0244E3D
:1021A0002836B14206D0224A3C32914201D11A4629
:1021B00000E02A461E49091F0A602BE0B94213D0ED
:1021C000614517D0494522D051451DD059451DD0F4
:1021D000714501D142461AE0B14202D14FF08072FE
:1021E00015E0134EB14201D1012210E0104E143619
:1021F000B14201D110220AE00D4E2836B14206D07C
:102200000B4A3C32914201D11A4600E02A46074966
:1022100080394A60012180F82110002180F82010C7
:10222000416B01B188472046BDE8F09F8000024025
:10223000080402402DE9F05FB0F5007F7ED18149AE
:10224000DFF80482814E08680025B0F5167F11DAA8
:10225000401C086098F800104046012907D13178E9
:10226000491CC9B231700A2901D1357005700021AD
:102270000846D3E0764C207800B30020207004207C
:1022800003F028FFDFF8CCA1D146CAF800000820EF
:1022900003F020FF704F4042386070480078FFF72D
:1022A0000FFA03F097F83968D9F80000FFF734FB0C
:1022B00098F800104046012902D009E00120DDE72E
:1022C0003178491CC9B231700A2901D135700570C5
:1022D00063480178491CC9B201700A2905D16149D6
:1022E000614A0D700121117005702078012810D10C
:1022F000FFF776FB6062A16A491CA162E26A642969
:102300001044E06205D190FBF1F158480160E562AC
:10231000A562574C2078072801D0082801D103F086
:10232000B5FE03F07FFF03F089F802F0C9FB02F06D
:1023300041FC02F0BDFCFFF759F800E080E0FEF739
:1023400063FD2078092806D102F09AF9207809283F
:1023500001D104F089F92078A046E8B35FF00000CD
:1023600002F096FB4348DFF810910168D9F80000AD
:10237000FEF7FEFC834654463968DAF8000004F0A4
:102380000DFE064698F800103C4805294CD004295B
:1023900050D0006804F02EFB0BEB060101EB000CA3
:1023A000DFF8DCB0DFF8DCA0081ACBF800C0DFF8FB
:1023B000D880CAF800005B465646424641F6F421F2
:1023C000604603F0D7FC1860424641F6F4213068BD
:1023D00003F0D0FCB84600E024E030602B483B68B6
:1023E0004E462268D9F80010006803F0CBFC284F55
:1023F00008B101203870D8F800202168306803F057
:1024000023FD00B13D7019480168306804F06CFB91
:10241000002815D1DAF80010DBF80000BDE8F05F05
:1024200003F016BF64209BE701681A480078FEF7A6
:102430002BFDB1E7026839682068FFF725F8ABE7A4
:10244000BDE8F09F840000201200002080000020E2
:1024500050010020580000205C00002008000020EF
:102460000000002088000020110000206C000020E7
:102470001000002074000020700000207800002070
:1024800060000020640000200CE5FFFF8C000020AD
:102490000200002090000020044910B50A680242A2
:1024A00002D00860FFF7C6FE10BD00001404014012
:1024B0002DE9F84FDFF8C891002409F1040A0AF168
:1024C000040B23460F270BF1040ED1E00125A54094
:1024D00006EA0502AA4276D1DFF8A8C14E68A6EB4B
:1024E0000C0866452BD00DDC032E34D005DC36B34A
:1024F000012E19D0022E2FD11BE0112E16D0122E34
:102500002AD119E0B8F5881F19D006DCB8F5803F4C
:1025100015D0B8F5801F1FD111E0B8F5001F0ED0FF
:10252000B8F5041F18D10AE0CB6815E0CB681B1D75
:1025300012E0CB6808330FE0CB680C330CE08B68FB
:102540002BB1012B4FF0080303D0456104E00423B5
:1025500002E0056100E00023FF2A01D8064601E001
:1025600000F104064FEA840501D9A5F12005D6F84B
:10257000008007FA05FC28EA0C0803FA05F548EA8A
:102580000508C6F800804D68ED0070D53E4DAE6977
:1025900046F00106AE61AD6924F0030605F00105C1
:1025A00000953A4D06EB050CDCF80850A607360FEF
:1025B00007FA06F825EA0805DFF8D480404503D17C
:1025C0004FF0000825E052E0DFF8C880404502D116
:1025D0004FF001081DE0DFF8C080404502D14FF008
:1025E000020816E0DFF8B480404502D14FF003083E
:1025F0000FE0DFF8AC80404502D14FF0040808E05E
:10260000DFF8A080404502D14FF0050801E04FF00F
:10261000060808FA06F848EA0508CCF808804D686C
:10262000D9F80060ED034D4601D5164300E096430E
:102630002E604D68DAF80060AD03554601D51643AB
:1026400000E096432E604D68DBF80060ED025D46C9
:1026500001D5164300E096432E604D68DEF8006019
:10266000AD02754601D5164300E096432E60641C0A
:102670000A681646E2407FF429AFBDE8F88F0000F3
:102680000004014000001110001002400000014051
:1026900000080140000C01400010014000140140FE
:1026A00000180140001C01408068084000D0012053
:1026B0007047C26821EA02030A4043EA024101610D
:1026C00070470AB1016170470904FBE7014880685F
:1026D00070470000740300200248816802781144AA
:1026E0008160704774030020074810B5016841F00D
:1026F00010010160032000F089F8032000F006F8C3
:1027000000F024F8002010BD0020024070B50D4DEF
:1027100004464FF47A712878B1FBF0F00A49096851
:10272000B1FBF0F000F0E0FB48B9102C07D200221A
:102730002146501E00F04AF800206C6070BD012058
:1027400070BD000074030020980000200E4808B5FA
:10275000816941F001018161816901F0010100910C
:10276000C16941F08051C161C06900F080500090A2
:10277000052000F04BF80548416821F0E06141F088
:102780000071416008BD00000010024000000140DF
:1027900000280DDB00F01F0201219140400980005C
:1027A00000F1E020C0F88011BFF34F8FBFF36F8FAF
:1027B0007047002809DB00F01F0201219140400909
:1027C000800000F1E020C0F800117047F0B40E4B1B
:1027D0001B680C46C3F30223C3F10705042D00D97F
:1027E0000425191D072901D2002300E0DB1E012664
:1027F00006FA05F1491E214099409E40761E16407A
:102800003143F0BC04F02DBD0CED00E0064900F0B2
:10281000070208684FF6FF03184040EA0220034A07
:1028200010430860704700000CED00E00000FA055E
:1028300010B52CA401461DCC86B08DE81D002DA03E
:102840002D4C00680490002004292FD00BDC0129B6
:102850002FD0022928D100F071F96168C1F38131CC
:10286000491C49001EE0082920D010291CD16168AC
:102870002268D20118D5C1F38342C9031DF80200B2
:1028800009D5616804AAC1F34041515C1B4AB2FBFF
:10289000F1F1484301E01A4948436168490203D411
:1028A00040000321B0FBF1F006B010BD00F056F976
:1028B000FAE7226AC2F30121012903D1920701D567
:1028C000C803F1E7022905D1626A920702D549F6E9
:1028D0004040E9E70329E7D121688903E4D54FF2B5
:1028E0002440E1E702030405060708090A0B0C0D62
:1028F0000E0F1010010200000010024000127A00BA
:1029000000093D002DE9F84305460078354CC00725
:1029100054D0E0690026C00008D4E06940F080503F
:10292000E061E069012600F0805000902E480168C7
:10293000C90512D40168804641F480710160FFF737
:10294000C5FE074605E000BFFFF7C0FEC01B6428B8
:1029500023D8D8F80000C005F6D5206A10F44070DE
:1029600021D0A98801F4407181421CD0206A1F49FE
:10297000012220F440700A6000220A602062C00731
:1029800011D0FFF7A3FE074641F2883808E000BFE8
:10299000FFF79CFEC11B414502D90320BDE8F88327
:1029A000206A8007F4D5206A696820F440700843E3
:1029B00020621EB1E06920F08050E0612878800735
:1029C00005D56068A96820F4404008436060287815
:1029D000C00605D56068696920F48000084360601E
:1029E0000020DBE70010024000700040400442423B
:1029F0002DE9F0470F46050061D0434E306800F0E6
:102A00000700B84209D2306820F007003843306030
:102A1000306800F00700B84251D128683B4C81076C
:102A200012D5400703D5606840F4E0606060287804
:102A3000000703D5606840F4605060606068A96872
:102A400020F0F000084360602878C00728D068684C
:102A5000012810D02168022810D0890700292EDA19
:102A6000616821F0030101436160FFF72FFE80469A
:102A700041F288390DE021688903EFE78901EDE72C
:102A8000FFF724FEA0EB0801494502D90320BDE869
:102A9000F0876068696800F00C00B0EB810FEFD13F
:102AA000306800F00700B8420BD9306820F007000A
:102AB00038433060306800F00700B84201D0012090
:102AC000E5E72878400705D56068E96820F4E0600C
:102AD000084360602878000706D56068296920F4FB
:102AE000605040EAC100606000F038F86168084A50
:102AF000C1F30311515CC8400649086006480068EC
:102B0000FFF704FE0020C2E7002002400010024050
:102B10002AC00008980000207803002004480549D6
:102B200000684968044AC1F30221515CC8407047FB
:102B300098000020001002403AC0000804480549EF
:102B400000684968044AC1F3C221515CC84070471B
:102B500098000020001002403AC0000812A185B081
:102B60000FC98DE80F0014A0144A00680490516842
:102B7000134801F00C03042B10D0082B0ED1C1F325
:102B80008343C9031DF803000AD5516804AAC1F3A1
:102B90004041515C0A4A5043B0FBF1F005B0704728
:102BA00008494843FAE7000002030405060708093C
:102BB0000A0B0C0D0E0F1010010200000010024055
:102BC00000127A0000093D002DE9F84F040070D092
:102BD0002078C04DC00749D06868C0F38100012843
:102BE00007D06868C0F38100022809D16868C00373
:102BF00006D52868800339D560680028E7D035E01D
:102C00006068B0F5803F0BD010B1B0F5A02F11D0A7
:102C1000286820F480302860286820F4802002E0B2
:102C2000286840F480302860606890B1FFF74EFD5E
:102C300006460AE0286840F480202860F0E700BFDC
:102C4000FFF744FD801B642873D828688003F7D5FC
:102C50000CE0FFF73BFD064605E000BFFFF736FD41
:102C6000801B6428F0D828688003F7D420789A4E17
:102C700080074FF001094FF0000839D5686810F05F
:102C80000C0F07D06868C0F38100022809D168687A
:102C9000C00306D42868800714D52069012808D10C
:102CA00010E02069B0B1C6F80090FFF70FFD0746AD
:102CB00005E00AE1FFF70AFDC01B0228C4D8286816
:102CC0008007F7D52868616920F0F80040EAC10064
:102CD00028600DE0C6F80080FFF7F8FC074604E026
:102CE000FFF7F4FCC01B022823D828688007F7D41C
:102CF000207800072CD57948A169D9B1C0F8009097
:102D0000FFF7E4FC074604E0FFF7E0FCC01B0228E5
:102D10000FD8686A8007F7D571484FF4FA510068F8
:102D2000B0FBF1F0009000BF0098411E0091FAD274
:102D30000EE080E0C0F80080FFF7C8FC074604E022
:102D4000FFF7C4FCC01B022875D8686A8007F7D457
:102D50002078400760D5E8690027C00008D4E869FA
:102D600040F08050E861E869012700F08050009051
:102D70005C480168C90513D40168834641F4807139
:102D80000160FFF7A3FC824606E000BFFFF79EFC50
:102D9000A0EB0A0064284ED8DBF80000C005F5D58A
:102DA000E06801280AD008B1052813D0286A20F06D
:102DB00001002862286A20F0040002E0286A40F03E
:102DC00001002862E06841F2883B98B1FFF77EFC81
:102DD00082460BE0286A40F004002862EEE700BF5C
:102DE000FFF774FCA0EB0A0159455AD8286A8007FE
:102DF000F6D50CE0FFF76AFC824605E0FFF766FCBB
:102E0000A0EB0A0159454CD8286A8007F6D41FB1B7
:102E1000E86920F08050E861E06988B36968C1F32F
:102E20008101022944D00228C6F8608004D0FFF74F
:102E30004DFC044638E034E0FFF748FC074604E068
:102E4000FFF744FCC01B02282BD828688001F7D468
:102E5000206AB0F5803F05D16868A16820F4003091
:102E600008436860D4E908010843696821F47411D3
:102E700008436860C6F86090FFF728FC044606E047
:102E800025E000BFFFF722FC001B022809D82868B4
:102E90008001F7D51BE000BFFFF718FC001B0228DC
:102EA00002D90320BDE8F88F28688001F4D40EE031
:102EB0000128F7D06868226A00F48031914204D179
:102EC000616A00F47010884201D00120EAE7002016
:102ED000E8E7000000100240000042428004424245
:102EE000980000200070004010B5401EB0F1807FB7
:102EF00001D3012010BD4FF0E02460610F21601765
:102F000004F0AFF90020A06107202061002010BD6F
:102F10007047704770B590F83C20012A2CD00124EE
:102F200080F83C40022280F83D2003685A689D6882
:102F300022F070060A6832435A60104B02689A42C7
:102F40000ED00F4B9A420BD0B2F1804F08D00D4BF0
:102F50009A4205D00C4B9A4202D00C4B9A4204D1B3
:102F6000496825F080031943916080F83D400021B5
:102F700080F83C10084670BD022070BD002C014056
:102F8000003401400004004000080040000C0040F4
:102F900090F83D10012901D001207047022180F8EE
:102FA0003D100168CA6842F00102CA6000680E491B
:102FB00088420ED00D4988420BD0B0F1804F08D026
:102FC0000B49884205D00B49884202D00A49884201
:102FD00004D1816801F00701062903D0016841F09E
:102FE0000101016000207047002C014000340140C5
:102FF0000004004000080040000C00402DE9F041B2
:103000000D46040003D094F83D0018B108E00120FB
:10301000BDE8F081002084F83C00204600F040F834
:10302000022084F83D002068816844F20702914341
:103030008160211D206803F085F9226890689169FC
:10304000166A2B68AF69034340F20330814341EABB
:103050000721A868EF6908434FF6FC418843E968F7
:1030600040EA0720014328692F6A000140EA07303F
:10307000084369686D6926F0220646EA051529436A
:1030800093602268906154F8460B0162012004F8B5
:103090001F09E0752076E0762077A0750020B7E75D
:1030A00000B585B000210091019102910391224B5E
:1030B00002682248C0219A421BD1C26942F0040230
:1030C000C261C26902F004020492826942F00802FD
:1030D00082618069009100F00800049069461848F8
:1030E000FFF7E6F9032201211E20FFF76FFB1E20E8
:1030F0001DE0144B9A421CD1826942F40052826155
:10310000826902F400520492826942F010028261E4
:103110008069009100F01000049069460A48FFF7AA
:10312000C7F9032201212C20FFF750FB2C20FFF7C9
:1031300040FB05B000BD0000000800400010024048
:10314000000C0140003401400010014070B590F8BF
:103150003E60044690F83F5090F8423090F843208B
:10316000022021B104290ED0012E1BD114E0012E22
:1031700018D1012B16D184F83E0084F842000122B8
:103180000021206820E0012D0CD1012A0AD184F809
:103190003F0084F8430014E0012D03D1012B01D13D
:1031A000012A01D0012070BD84F83E0084F83F0060
:1031B00084F8420084F8430001220021206803F0D3
:1031C00007F901220421206803F002F92068016850
:1031D00041F001010160002070BD00002DE9F047C1
:1031E00007464FF0804000696C4C00264FF0010903
:1031F000E068B0F5C86F06DD6948017819B980F854
:10320000009068480670684DAF427DD1387F022833
:1032100047D16088010677D4410641F2111840F287
:10322000444A1DD540F0800060800421284600F00B
:1032300030FCA0802868016A11EA080F07D1016AF2
:1032400011EA0A0F03D1016821F001010160286829
:10325000016A21F0A00101622868016A01621CE094
:10326000A680402060802868016A11EA080F07D113
:10327000016A11EA0A0F03D1016821F0010101601E
:10328000286846622868016A21F0A0010162286866
:10329000016A41F0200101622868016841F00101E2
:1032A0000160387F4FF4FA7A04283BD1DFF8FC80C4
:1032B0004FF0080198F8010000283B4813D000F0B7
:1032C000E8FBD8F80420801AA0602269801A00D593
:1032D0004042504519DD2078401CC0B220700528BE
:1032E00013D8A26012E000F0D4FBC8F804002968EB
:1032F0000A6A22F400720A6229680A6A42F40072B9
:103300000A6288F801900DE039E02670A06820611B
:103310002868026A22F4007202622868026A026265
:1033200088F80160387F082829D1204F4FF00C0120
:103330000C3F787800281C4812D000F0AAFB79686E
:10334000401AE0606169401A00D54042504518DDDE
:103350006078401CC0B26070052812D8E16011E0AE
:1033600000F097FB78602868016A21F4005101623F
:103370002868016A41F40051016287F80190BDE8B4
:10338000F0876670E06860612868016A21F4005186
:1033900001622868016A01627E70F0E73401002052
:1033A000480000201300002028040020FC18002002
:1033B0002DE9F041054690F83C000C46012836D036
:1033C000012085F83C008AB3042A42D02868082AE4
:1033D00051D0D4E90023E168066A26F480560662DB
:1033E000C669076A26F4407646EA03234FF6FF765D
:1033F00006EA013123F4704319434FF4005627F4D1
:10340000005306EA02321A43C16102622868C169A8
:1034100021F44061C1612868C169A26841EA0221C2
:10342000C161002085F83C00BDE8F08101E0022088
:10343000FAE7D4E90012E368286803F099F82868ED
:10344000816921F00C01816128688169A2681143BA
:103450000FE0D4E90012E368286803F0BFF8286899
:10346000816921F44061816128688169A26841EA2B
:1034700002218161D5E7D4E90027267B016A21F486
:1034800080710162C169036A21F00301394321F0AF
:10349000F00731074FF4007647EA116123F4007317
:1034A00006EA02221A43C16102622868C16921F05A
:1034B0000C01C1612868C169A2681143B0E710B569
:1034C000040003D094F83D0010B107E0012010BDC6
:1034D000002084F83C00204600F01EF8022084F80A
:1034E0003D00211D206802F02DFF012084F84600D8
:1034F00084F83E0084F83F0084F8400084F84100DE
:1035000084F8420084F8430084F8440084F84500BD
:1035100084F83D00002010BD00B585B00021009169
:10352000019102910391234B0268234923489A4257
:103530001BD18A6942F400628A618A6902F40062DE
:1035400004928A6942F004028A61896901F00401E7
:103550000491C11400916946FEF7AAFF00221146AA
:103560001920FFF733F919201FE0B2F1804F1ED167
:10357000CA6942F00102CA61CA6902F001020492FA
:103580008A6942F004028A61896901F004010491A8
:103590000E210091022102916946FEF789FF022265
:1035A00001211C20FFF712F91C20FFF702F905B0DA
:1035B00000BD0000002C0140001002400008014046
:1035C00010B5044651B104290DD0082910D094F843
:1035D000410094F84520012811D10EE094F83E00F6
:1035E00094F84220F7E794F83F0094F84320F2E77C
:1035F00094F8400094F84420EDE7012A01D001201E
:1036000010BD022051B1042911D0082918D084F826
:10361000410084F845000C291BD13CE084F83E00B1
:1036200084F842002068C26842F0020210E084F888
:103630003F0084F843002068C26842F0040207E0BB
:1036400084F8400084F844002068C26842F0080210
:10365000C2600122206802F0BBFE11492068884246
:103660000ED0104988420BD0B0F1804F08D00E49DF
:10367000884205D00D49884202D00D49884204D1C4
:10368000816801F00701062903D0016841F00101BA
:103690000160002010BD2068C26842F01002D7E728
:1036A000002C0140003401400004004000080040AC
:1036B000000C004070B50446006801694FF0000539
:1036C000C943890715D4C168C943890711D4E91EC4
:1036D000016101202077206880698007204602D0A0
:1036E000FFF77CFD04E000F0D1F8204600F074F90B
:1036F000257720680169C943490717D4C168C943C0
:10370000490713D46FF0040101610220207720687B
:10371000806910F4407F204602D0FFF75FFD04E08F
:1037200000F0B4F8204600F057F9257720680169C9
:10373000C943090716D4C168C943090712D46FF0F9
:1037400008010161042020772068C06980072046B5
:1037500002D0FFF743FD04E000F098F8204600F0A7
:103760003BF9257720680169C943C90617D4C168A8
:10377000C943C90613D46FF01001016108202077F6
:103780002068C06910F4407F204602D0FFF726FD74
:1037900004E000F07BF8204600F01EF92577206851
:1037A0000169C943C90708D1C168C943C90704D120
:1037B000891E0161204600F06BF920680169C94348
:1037C000090609D4C168C943090605D46FF0800110
:1037D00001612046FFF79CFB20680169C943490647
:1037E00009D4C168C943490605D46FF0400101619D
:1037F000204600F063F920680169C94389060BD4AB
:10380000C168C943890607D46FF0200101612046D1
:10381000BDE87040FFF77DBB70BD000030B585B0DE
:10382000002100910191029103910068134988429F
:1038300021D11348816941F004018161816901F05E
:1038400004010491816941F00801816180690225C8
:1038500000F008000490C020CDE90005032469466B
:1038600003940848FEF724FECDE900456946064862
:103870000394FEF71DFE05B030BD000000040040BB
:103880000010024000080140000C0140704770B574
:10389000044690F83C000D4601280AD0012084F827
:1038A0003C0042B1042A18D0082A2AD00C2A4DD153
:1038B00039E0022070BD206802F098FD206881691F
:1038C00041F0080181612068816921F00401816172
:1038D000206881692A69114311E0206802F0B6FD71
:1038E0002068816941F4006181612068816921F467
:1038F00080618161206881692A6941EA02218161D0
:1039000024E0206802F0D8FD2068C16941F0080178
:10391000C1612068C16921F00401C1612068C169E9
:103920002A69114311E0206802F0FAFD2068C1699C
:1039300041F40061C1612068C16921F48061C16105
:103940002068C1692A6941EA0221C161002084F826
:103950003C0070BD10B5040003D094F83D0010B1D8
:1039600007E0012010BD002084F83C00204600F054
:103970001FF8022084F83D00211D206802F0E2FCBF
:10398000012084F8460084F83E0084F83F0084F863
:10399000400084F8410084F8420084F8430084F831
:1039A000440084F8450084F83D00002010BD00006C
:1039B00008B500680649884208D10648C16941F047
:1039C0000201C161C06900F00200009008BD000062
:1039D00000040040001002407047000010B504468B
:1039E000022249B104290ED0082913D094F84100CD
:1039F000012816D0012010BD94F83E000128F9D10D
:103A000084F83E200FE094F83F000128F2D184F8BA
:103A10003F2008E094F840000128EBD184F84020D2
:103A200001E084F841200122206802F0D1FC134912
:103A30002068134A884201D0904203D1436C43F47A
:103A400000434364206888420DD090420BD0B0F10F
:103A5000804F08D00B49884205D00B49884202D0DC
:103A60000A49884204D1816801F00701062903D080
:103A7000016841F001010160002010BD002C0140EF
:103A8000003401400004004000080040000C0040E9
:103A900070470246002041B1042909D008290AD004
:103AA0000C2901D11068006C70471068406B70479A
:103AB0001068806B70471068C06B70477047704724
:103AC00070470000F8B5026804461068D168536971
:103AD00010F00F0F4FF0000553D003F0010601F472
:103AE000907737435FD0C20705D0CA0503D5226C53
:103AF00042F001022264420705D5DA0703D0226CA6
:103B000042F002022264820705D5DA0703D0226C54
:103B100042F004022264020707D501F0200232437A
:103B200003D0226C42F008022264226C002A34D0B6
:103B3000800604D5880602D5204603F02FF82068B9
:103B40004069216CC0F38010090700D430B32046CF
:103B500003F00CF82068416949061BD5416921F042
:103B600040014161A06BA8B158494163A06BFEF7C9
:103B7000C9FA002811D0A06B416B01B0BDE8F0403C
:103B8000084783060FD58B060DD52046BDE8F840C3
:103B900003F004B82046FFF793FFF8BD2046FFF777
:103BA0008FFF2564F8BD266B2023012E52D1C60657
:103BB00050D5CE064ED5106850680090506940062A
:103BC0002AD5A16B086840680004000CEAD0A68DD5
:103BD0008642E7D9E0858869202818D0D06820F48B
:103BE0008070D0602068416921F001014161206846
:103BF000416921F04001416184F83E30256320682D
:103C0000C16821F01001C160A06BFEF757FAA08DCA
:103C1000E18D401A81B219E0A08DE18D401A81B288
:103C2000E08D0028BED00029BCD0D06820F4907070
:103C3000D0602068426922F00102426184F83E307F
:103C400025632068C26822F01002C2602046FFF798
:103C500036FFF8BD05062BD50D0629D594F83D0095
:103C60002128F6D1A068B0F5805F01D12069B0B1FC
:103C7000206A411C2162216800784860E08C401E67
:103C80000004000CE084E4D12068C16821F08001C8
:103C9000C1602068C16841F04001C160F8BD206A80
:103CA0000088C0F308005060206A801C2062E5E7AD
:103CB0004006F3D54806F1D5D168204621F04001F1
:103CC000D16084F83D3000F02DFBF8BD5D6B00083D
:103CD00070B5040004D094F83D00002510B106E052
:103CE000012070BD84F83C50204600F023F82420C9
:103CF00084F83D002068C16821F40051C16020466D
:103D000002F0A8FF2068016921F490410161206858
:103D1000416921F02A0141612068C16841F40051E4
:103D2000C1602564202084F83D0084F83E00002016
:103D300070BD000070B586B0002400940194029418
:103D40000394474D0368474802210322AB422ED11A
:103D5000C36943F48013C361C36903F480130493FC
:103D6000836943F010038361836903F010030493B4
:103D7000836943F0200383618069039200F020008F
:103D80000490C802CDE9000169463748FEF790FB70
:103D90000420CDE90004694634480294FEF788FB0C
:103DA000012211463520FEF711FD352029E0304E65
:103DB0003515B34229D1836943F480438361836914
:103DC00003F480430493836943F0040383618069AF
:103DD000284E00F0040004906810CDE90001039221
:103DE00069463046FEF764FBCDE90054694630462B
:103DF0000294FEF75DFB012211462520FEF7E6FC4A
:103E00002520FEF7D6FC06B070BD1B4EB342FAD19A
:103E1000C36943F48023C361C36903F4802304931B
:103E2000836943F0080383618069CDE9005100F0A4
:103E30000800CDE90320114D69462846FEF738FBFE
:103E4000E814CDE90004694628460294FEF730FBE9
:103E5000012211462720FEF7B9FC2720D1E70000F8
:103E600000500040001002400010014000140140CA
:103E7000003801400008014000480040000C0140AB
:103E800090F83E30202B0ED159B152B190F83C3011
:103E9000012B08D0012380F83C300023036302F09B
:103EA00035BF012070470220704700002DE9F05F08
:103EB0000068F74A0121F74D00244FF0020A9042B2
:103EC00078D105F10900F44E0078E860A872AB469D
:103ED000B6F800C0DFF8C493F14AF24BF24DF34F4D
:103EE000592818D0804658281CD0C4460A2823DDFB
:103EF0005A2839D0412849D045283AD042283CD0C8
:103F000043283AD0442838D046283BD0472839D0D7
:103F1000482837D00CE0ACF1640CA6F800C0A9F832
:103F200000A005E00CF1640CA6F800C0A9F8001090
:103F300014801C802C803C8084460A282CDAA9F846
:103F40000010B0F1000C0FD001281FD0052810D0B0
:103F500002281DD003281BD0042819D006282AD0F7
:103F6000072828D0082826D014801C8003E03C8035
:103F700012E0148019802C80F9E714801C802C80BA
:103F80003980D9E714801C802980D4E71180ECE7C0
:103F900014801C802C803980BE4AC54B5D46527807
:103FA0007B280CD07D2811D02F78012F08D0022F2C
:103FB0000ED074E078E014801C802980D7E7297047
:103FC00003F802C0521C8BF8012068E085F800A0BD
:103FD000D878502805D05878232858D0AA709A4607
:103FE00029E0B448017052E06978081A07F059F8DE
:103FF00002460B460020B04906F000F80746A878B4
:1040000088468146504410F8010C303807F049F8D2
:104010003A46434607F0ACF880460F46286907F059
:10402000B7FB42463B4606F0BDFD06F089FD286120
:10403000A9F10100A870A8780428D5D29AF8010047
:104040003038092823D2DFE800F0050A0D101316D6
:10405000191C1F00286907F04DFD308017E09749B3
:10406000286913E09649286910E0964928690DE00F
:10407000954928690AE09549286907E09449286923
:1040800004E09449286901E09349286908602C708C
:104090006C70AC70322186482C61FCF7D1F97D49F7
:1040A000012209318D48EDE08D4A4FF0060E904215
:1040B0006FD1DFF8E0C177480CF10B069CF80420C3
:1040C0009CF805B0EF78874B0B3036780BEB4B0C38
:1040D0000CEB03090078164407F1010CF6B20CF062
:1040E000FF0C3A2F6DD2DFE807F01D232A34373C4E
:1040F0004043464B43464B43464B43464B43464B5C
:1041000043464B43464B43464B43464B43464B4348
:10411000464B43464B43464B43464B43464B434635
:104120004B55595EA5280CD11870E970A5320EE0E8
:104130005A2806D1587085F803A05A3207E03A2869
:1041400001D0EC703CE098700320E8703A322A719C
:1041500037E0D870042024E01871052021E02E718A
:104160002FE0587185F803E0F9E79871072018E00F
:1041700089F8070001E089F8080085F803C0EEE738
:1041800089F8090085F803C02E710BF101006871F0
:1041900017E01BE083F83700382002E083F838008E
:1041A0003920E870DBE783F83900EC706C719042DD
:1041B00002D103F035FC03E03A214A48FCF71EF92E
:1041C0002C71344901220B3147485BE04749884252
:1041D0005CD13048464AC01D354E0178297282F8BC
:1041E00000E0A87964367B29315400D028B1401C06
:1041F000C0B2A8710B2802D040E0AC713EE0AC71B7
:10420000B07A7D283AD100210920FCF767FE717A47
:10421000884233D13179F07803F00AF835490860E3
:10422000317AF07903F004F8334907F051FB334950
:1042300007F0E0FC4FF0FF3107F0B9FE07F0A8FAF5
:1042400000222F4B06F06AFD022207F082FE0022B8
:104250002C4B06F08DFF00222B4B06F089FF2B4ADA
:104260002B4B06F05BFD4FF066322A4B06F080FFC9
:1042700006F066FC284908602848047005490122B8
:104280002748C91DBDE8F05FFFF7FABDBDE8F09F04
:1042900000480040200100200C0000200A000020FF
:1042A000380000203A0000203C0000203E000020A2
:1042B0006C18002049000020000024401800002055
:1042C0001C000020200000202400002028000020E6
:1042D0002C0000203000002034000020D0050020F9
:1042E000005000401C0D002048050020003801400F
:1042F000100000204C00002000007A44000020C381
:104300000000694000003E4000407F40D3DEE00BEB
:10431000934F6A406666164050000020010000205E
:104320008C0500207047FEE770B50D46044600F08E
:10433000C1F8204600F08EF800F004F9284600F09D
:1043400089F800F0FFF800F0B5F8641CE0B200F066
:1043500081F800F0F7F8002000F046F8044600F07D
:10436000D1F8204670BD000070B50D4C0025C4F892
:10437000B8510C48016821F070410160016841F0BA
:1043800040510160C4F8BC51012004F5DC7403F015
:1043900031FD0120206003F02DFD256070BD00007F
:1043A00000802142040C014070B50D4C0025C4F87A
:1043B000B8510C48016821F070410160016841F07A
:1043C000405101600126C4F8BC61304604F5DC743C
:1043D00003F010FD2660012003F00CFD256070BD88
:1043E00000802142040C01402DE9F0478146174826
:1043F0000024016821F070410160016841F0004132
:104400000160134E254627464FF00108C6F8B871E3
:10441000022003F0EFFCC6F8B8816006040ED6F85F
:104420003C0108B1641CE4B2022003F0E3FC6D1C03
:10443000EDB2082DEAD3B9F1000F02D0FFF794FFD7
:1044400001E0FFF7B1FF2046BDE8F087040C014012
:10445000008021422DE9F04106461448016821F010
:1044600070410160016841F040510160104C00272B
:10447000C4F8B8713D464FF00108F009C4F8BC011A
:104480007006060E012003F0B5FCC4F8B8810120C7
:1044900003F0B0FCC4F8B871012003F0ABFC6D1C54
:1044A000EDB2082DE9D3BDE8F0810000040C014015
:1044B0000080214270B51148016821F0704101600F
:1044C000016841F0405101600D4C0120C4F8BC016D
:1044D000D4F83C1149B1C4F8B80103F08BFC0025B5
:1044E000C4F8BC51D4F83C0108B1002070BD0120D3
:1044F00003F080FCC4F8B851012070BD040C0140E9
:10450000008021420D4810B5016821F07041016022
:10451000016841F040510160094C0020C4F8B80125
:10452000C4F8BC01012004F5DC7403F063FC012035
:1045300020606060BDE8104003F05CBC040C0140EA
:104540000080214270B513480024016821F07041B9
:104550000160016841F0004101600F4D0126C5F87E
:10456000BC61304603F046FCC5F8B86107E0641C46
:10457000E4B2322C03D9FFF7C5FF002070BD012043
:1045800003F038FCD5F83C010028F0D1C5F8B8019B
:10459000012070BD040C01400080214210B514467A
:1045A000FFF7C2FE2070012010BDF8B515461C466D
:1045B0000E4607466A46FFF7F1FF01209DF80010FE
:1045C000A8400CB1084301E021EA0000C2B28DF816
:1045D00000203146384600F02BF8F8BD2DE9F843AD
:1045E00014461D460F4680466A46089EFFF7D6FFD2
:1045F00000281BD0611CFF20C4F1080200FA01F161
:104600002A44521ED0400143C5F108008640F2B250
:10461000C4F10700C2409DF80000084010438DF827
:104620000000C2B23946404600F002F8BDE8F88307
:1046300007B502AB012200F001F80EBD2DE9F041F3
:104640001E461546884607460024FFF733FF3846C6
:10465000FFF700FFFFF776FF4046FFF7FBFEFFF78F
:1046600071FF06E0305DFFF7F5FEFFF76BFF641C9E
:10467000E4B2AC42F6D3FFF745FF0120BDE8F0817C
:104680002DE9F041474C4848A16CD0F8202147481B
:10469000D0F8203142EAC305D0F81021D0F8240127
:1046A000920042EA400005432646A570D6E9020280
:1046B000766982F00043102D2ED2DFE805F016084F
:1046C0002D082D2D2D0D0A162D110A130F18014638
:1046D00023E080F0004120E0114620E019461EE072
:1046E00031461CE086F0004119E0002117E02D481A
:1046F000266D00690B2E06D00D2E06D0072E07D092
:104700000E2E07D00CE001460AE080F0004107E0E1
:10471000114605E0194603E000210F2D00D0256564
:10472000206C02F05FF820642846E66B02F0E6F8A1
:104730000F2811D2DFE800F00E0C100C1010100E34
:104740000C08100A0C0A0E00A56906E0E56904E0F1
:10475000256A02E0656A00E0A56A3046294607F04E
:1047600015FA0DD229463046E76A07F040FB394674
:1047700007F00CFA0DD93946304607F035F80EE04F
:1047800029463046276B07F03DFB394607F0FEF916
:1047900001D8284603E03946304607F033FBE06392
:1047A000BDE8F081B80200200080214200002242D2
:1047B00041060748826942F0010282610548426869
:1047C00022F0E062426042680A43426070470000A3
:1047D00000100240000001402DE9F34F524D8DB012
:1047E0000846E9684F4E089107F00CFB29680091D4
:1047F00007F000FAA96806F0F7FF05F164040690D7
:1048000067683046394607F0FDFAD4F80890494603
:1048100007F0F8FA45490860E268904682F00046E1
:10482000434A4E60C1E90262009907F0E3F921684A
:1048300006F0DAFF83463046009907F0DBF90646BA
:10484000394606F0D1FF82463046494606F0CCFF95
:1048500081463748009907F0CDF9414606F0C4FF7C
:10486000804606990D9807F0CDFA039059464FF00F
:104870007E5007F0BFF9064649464FF07E5007F0DC
:10488000B9F9049031464FF07E5007F0B3F94FF07C
:104890007C5106F0A9FF07460146304607F018F89C
:1048A00001903946049807F013F8009051464FF0F4
:1048B0007E5007F09FF907463146019807F09AF9B4
:1048C000594607F094FA20603946019807F092F9AA
:1048D000514607F08CFA60603146009807F08AF97B
:1048E000494607F084FAA0603946009807F082F93B
:1048F000414607F07CFAE0600399019807F07AF9E5
:10490000069906F071FFA86004460399009807F025
:1049100071F9089906F068FFE8600FB02046BDE81D
:10492000F08F00006F12833A34020020081A002032
:10493000A69B443B2DE9F34F524D8DB00846E96BE1
:104940004F4E089107F05EFA2968009107F052F97E
:10495000A96B06F049FF05F17404069067683046BC
:10496000394607F04FFAD4F80890494607F04AFA5A
:1049700045490860E268904682F00046434A4E602E
:10498000C1E90262009907F035F9216806F02CFFB1
:1049900083463046009907F02DF90646394606F061
:1049A00023FF82463046494606F01EFF81463748BF
:1049B000009907F01FF9414606F016FF8046069958
:1049C0000D9807F01FFA039059464FF07E5007F0FC
:1049D00011F9064649464FF07E5007F00BF9049056
:1049E00031464FF07E5007F005F94FF07C5106F04C
:1049F000FBFE07460146304606F06AFF0190394645
:104A0000049806F065FF009051464FF07E5007F085
:104A1000F1F807463146019807F0ECF8594607F0DF
:104A2000E6F920603946019807F0E4F8514607F0AE
:104A3000DEF960603146009807F0DCF8494607F07F
:104A4000D6F9A0603946009807F0D4F8414607F03F
:104A5000CEF9E0600399019807F0CCF8069906F0CA
:104A6000C3FEA86304460399009807F0C3F80899A9
:104A700006F0BAFEE8630FB02046BDE8F08F0000F4
:104A80006F12833A34020020181A0020A69B443B80
:104A9000094A68B109490B685B1C0B60834206D167
:104AA000D2F88801C043C2F888010020086070472E
:104AB0000120C2F88801704700002242A4000020B3
:104AC0002DE9F05F2C48002635460078374601284E
:104AD00049D12A480088012845D029480088012862
:104AE00041D0DFF8A0A0DFF8A0B0DFF8A09000244C
:104AF00009EBC400406800EB0A035B4521D339F899
:104B00003480A8F10101B1F5957F1AD8204A761CAE
:104B10002049F6B2C2F80080884204DD1E4907F041
:104B200071F9294605E017494942884204DA0146ED
:104B3000284606F059FE0546B8F1960F01D27F1CB3
:104B4000FFB2641CE4B2E12CD2D314480021144A11
:104B5000082E01D2134B04E005D911600A2F04D9A5
:104B6000114B13600160BDE8F09FB5F5000F01DB4C
:104B70000E49F7E70E49F5E7100000203C00002041
:104B80003E0000200000B8BD01005301580D002078
:104B90007C00002000009B430000B4435000002034
:104BA0004C00002000004843000048C3000048C4F7
:104BB000000048442DE9F0412F4800264FF6FF75CC
:104BC0000078374640F2DC5C02284DD12B48008843
:104BD000012849D02A480088012845D0294C2A4B71
:104BE000DFF8A880206D002133F831205AB16245EA
:104BF00009D2761CF6B2AA4205D203EBC1001546D3
:104C00004068C8F80020491CC9B2E129ECD320490A
:104C10002065884203DD1F4907F0F4F820658046CF
:104C2000616D07F0EFF81C49884202DC1B4988429D
:104C300001D93B2F01D1C4F85480DFF86480194FAB
:104C4000052E13D9284606F08DFF174900F09AF873
:104C500038600021206DFCF7D3FCC8F80000134831
:104C60003968814200DD3860BDE8F081002038609D
:104C7000C8F80000F8E70000100000203C00002009
:104C80003E00002050010020580D00207C00002034
:104C9000000034430000B44300005041000050C104
:104CA000500000204C0000200000964300001644F5
:104CB0002DE9F047274A2849D08909780446032975
:104CC00046D126490988012942D025490988012968
:104CD0003ED0254B2349254F1960DFF894C0254B62
:104CE000254D00214FF4FA7905EBC10676683E4464
:104CF00066451DD2B3F80080C84510D235F83100A2
:104D000008F1010800F1C80616821FFA88F6A6F518
:104D100080781E80B8F1F30801D1A3F8009035F82F
:104D20003160B2F81080464502D23446134E3460EA
:104D3000491CC9B2E129D7D3D08106F013FF05463B
:104D4000204606F00FFF2946FCF722FB0C490860BD
:104D5000BDE8F08750010020100000203C0000203A
:104D60003E000020000048434C000020FFFF71BDC2
:104D7000FFFF050054000020580D00207C0000209B
:104D8000500000202DE9F04107F031F80C4E0546A7
:104D9000716A07F037F806F0FBFC07460C46284618
:104DA00006F0F6FC0022074B06F0E2F93A462346ED
:104DB00006F004FC05F0C4FE7562BDE8F081000059
:104DC000A80000200000F8BF10B5022000F011F884
:104DD000032000F020F8002000F014F8002000F07C
:104DE0002FF8002000F026F8BDE81040002000F069
:104DF0001BB808B50323009002226B21D020FFF7D7
:104E0000EDFB08BD08B50223009004221C21D02030
:104E1000FFF7E4FB08BD08B50223009004221B2124
:104E2000D020FFF7DBFB08BD034601223721D0204D
:104E3000FFF7BBBB034605226A21D020FFF7B5BBB5
:104E4000034606226B21D020FFF7AFBB3EB50024FE
:104E500011480094019402940E4984600160047327
:104E60000475012505614FF460214460C161FCF7C0
:104E700049FF08B1FCF73AFB0A20CDE90005694675
:104E800002940548FCF746FE002801D0FCF72EFBF3
:104E90003EBD000000240140800300203EB50024F8
:104EA00012480094019402940F49846001600473D5
:104EB0000475012505614FF460214460C161FCF770
:104EC00021FF08B1FCF712FB0B20CDE90005694674
:104ED00002940648FCF71EFE08B1FCF707FB0348E6
:104EE000FCF7AAFD3EBD000000280140B0030020F1
:104EF0002DE9F04786B000244848009401940294BC
:104F00000394816941F010018161816901F0100110
:104F10000491816941F020018161816901F02001E2
:104F20000491816941F004018161816901F004010A
:104F30000491816941F0080181618069DFF8E080B6
:104F400000F008000490012244F210314046FDF7C1
:104F5000B8FB002248F20C014046FDF7B2FBDFF837
:104F6000C4A000224FF440415046FDF7AAFBDFF8F1
:104F7000B8904FF40047002239464846FDF7A1FBA0
:104F8000012238215046FDF79CFBB810CDE9000402
:104F9000694640460294FDF78BFA4CF21C3001251D
:104FA0000226CDE90005CDE9024669464046FDF7F7
:104FB0007FFACDE90054694648460294FDF778FA35
:104FC0004CF23800CDE90005CDE90246694650466D
:104FD000FDF76EFA00970396CDE9015469464846FD
:104FE000FDF766FA28028DE8310069465046FDF764
:104FF0005FFA680200900D48CDE901056946504608
:10500000FDF756FA012202211720FDF7DFFB1720DA
:10501000FDF7BEFB06B0BDE8F087000000100240BF
:1050200000100140000C0140000801400000211068
:1050300010B586B000241948059404940094019496
:1050400002941549039401604721C0E9011442F21A
:105050000F71C0E903148021C0E90541FEF72FFA62
:1050600008B1FCF743FA049404A90C480594FDF731
:1050700051FF08B1FCF73AFA0120CDE90040029453
:105080000C22694605480394FEF792F9002801D0E6
:10509000FCF72CFA06B010BD002C0140E003002004
:1050A00010B586B000242748059404940094019418
:1050B00002944FF08041039401604721C0E901143C
:1050C0004FF6FF71C0E9031480218161FEF7F7F903
:1050D00008B1FCF70BFA049404A91A480594FDF7EB
:1050E00019FF08B1FCF702FA0120CDE90040029453
:1050F0000422694613480394FEF75AF908B1FCF7F5
:10510000F5F9082269460F48FEF752F908B1FCF795
:10511000EDF90C2269460B48FEF74AF908B1FCF795
:10512000E5F904210748FEF74BFA08210548FEF788
:1051300047FA0C210348FEF743FA0248FDF728FF1F
:1051400006B010BD2804002010B58AB000240794D2
:105150001C2168460894FBF773F92A482849C0E9DE
:10516000001441F61F41C0E90241802104618161C0
:10517000FEF7F0FB08B1FCF7B9F9079407A921483D
:105180000894FDF7C7FE08B1FCF7B0F96020CDE93F
:1051900000040294002269461A480494FEF777FB43
:1051A00008B1FCF7A3F9042269461648FEF76FFB25
:1051B00008B1FCF79BF9082269461248FEF767FB25
:1051C00008B1FCF793F90C2269460E48FEF75FFB25
:1051D00008B1FCF78BF900210A48FEF7FFFB042118
:1051E0000848FEF7FBFB08210648FEF7F7FB0C21F9
:1051F0000448FEF7F3FB0348FEF710FB0AB010BDAE
:10520000000400407004002010B58CB024216846D2
:10521000FBF716F900241A48099418490A94C0E9C2
:1052200000144FF6FF71C0E90241802104618161E1
:105230000320CDE900040120CDE902040A210491F4
:10524000CDE90540CDE9074169460D48FDF7D6FE99
:1052500008B1FCF74BF9099409A909480A94FDF72C
:1052600059FE08B1FCF742F900210548FDF76EFF31
:1052700004210348FDF76AFF0CB010BD0008004090
:10528000B804002010B58CB024216846FBF7D8F88C
:1052900000241B48099419490A94C0E900144FF6E8
:1052A000FF71C0E9024180210461C0E9054103208A
:1052B000CDE900040120CDE902040A210491CDE9E1
:1052C0000540CDE9074169460D48FDF797FE08B155
:1052D000FCF70CF9099409A909480A94FDF71AFE8C
:1052E00008B1FCF703F900210548FDF72FFF042161
:1052F0000348FDF72BFF0CB010BD00000034014047
:10530000000500200E4810B50C4901604FF46131D2
:105310004160002181600C22C160C0E904128161FA
:10532000C161FEF7D5FC08B1FCF7E0F8BDE810401C
:10533000012204490248FEF7A3BD000000500040CE
:10534000480500202B0100200E4810B50C490160D3
:105350004FF4E1314160002181600C22C160C0E95D
:1053600004128161C161FEF7B3FC08B1FCF7BEF81D
:10537000BDE81040012204490248FEF781BD00004B
:10538000003801408C050020270100200E4810B590
:105390000C4901604FF416514160002181600C22DC
:1053A000C160C0E904128161C161FEF791FC08B1DE
:1053B000FCF79CF8BDE81040012204490248FEF7C2
:1053C0005FBD000000480040D005002029010020FA
:1053D000FEE7000010B501F07FFD1349012816D04B
:1053E000022817D0032814D10878042801D00528F2
:1053F0000FD10E490878A8B100200870002808D104
:10540000BDE810404FF4A0710948FBF719B8092016
:10541000087010BD0748017811B10021017010BD5E
:105420000121FBE70120E8E7100000201400002024
:10543000140600200F000020FEE700000C48007852
:10544000002814D10B4A0C4932F83030401CC0B24D
:105450000B60E128F8D309480078012805D00848F6
:105460000078012803D100F07DBE00F02FBB70470B
:1054700010000020580D00207C00002013000020A8
:105480004800002010B40021084B0A465FF00000DD
:1054900003EBC004401CC0B262548028F8D3491CFE
:1054A000C9B20829F2D310BC00F0B0B860140020D3
:1054B00010B57F2816D83F2914D80723A3EBD103B2
:1054C00001F00701C1F107040121A140064CDBB244
:1054D00004EBC000002AC25CC9B201D00A4300E05C
:1054E0008A43C25410BD0000601400202DE9F04131
:1054F00016460D4607460024FFF7DAFF32462946D6
:105500003846FFF7D5FF2819C1B232463846FFF7B3
:10551000CFFF641CE4B2082CF5D3BDE8F081000095
:1055200010B5394C0020C4F89001642004F5C8740B
:1055300002F046FC012020600021AE2000F04AF974
:105540000021D52000F046F90021502000F042F95A
:105550000021A82000F03EF900213F2000F03AF998
:105560000021D32000F036F90021084600F032F97E
:105570000021402000F02EF900218D2000F02AF9B2
:105580000021142000F026F90021202000F022F94B
:105590000021022000F01EF90021A12000F01AF9DC
:1055A0000021C02000F016F90021DA2000F012F9E5
:1055B0000021122000F00EF90021812000F00AF9EC
:1055C0000021EF2000F006F90021D92000F002F9B7
:1055D0000021F12000F0FEF80021DB2000F0FAF8B5
:1055E0000021302000F0F6F80021A42000F0F2F8AD
:1055F0000021A62000F0EEF80021AF2000F0EAF82C
:10560000BDE81040FFF73EBF0080214270B5114E4B
:10561000002400BF04F1B000C0B2002100F0DAF8AD
:105620000021084600F0D6F80021102000F0D2F842
:105630005FF0000506EBC5000121005D00F0CAF82F
:105640006D1CEDB2802DF5D3641CE4B2082CE1D3BF
:1056500070BD0000601400202DE9FF4F203A1F4666
:105660000C46894602F0FF0A0025DDF834B032E02E
:105670000C2F09D01A4901EB0A104FF00008465DC3
:10568000300607D55A4609E016490AEB4A0001EBF5
:105690008000F2E7BBF1000F12D0002221460098F3
:1056A000FFF706FF7006641C060EE4B2A4EB0900C7
:1056B000B84207D100984C46401CC0B2009008E0A8
:1056C0000122EBE708F1010000F0FF08B8F1080F34
:1056D000D6D36D1CEDB2BD42CAD3BDE8FF8F00002A
:1056E000B6C4000842C000082DE9FF4F81B0002673
:1056F000DDF838A01D469346814634464FF0010838
:105700004FEA5A0727E0281B401EC1B20A2004F0C6
:1057100086F9BBFBF0F00A21B0FBF1F201FB1200AD
:1057200026B9691E8C4201DA48B101263030C2B276
:1057300007FB0490C0B25346CDF8008006E007FB9B
:105740000490C0B253462022CDF800800299FFF7A2
:1057500083FF641CE4B2AC42D5D305B0BDE8F08F42
:10576000F8B516460D460446012714E07A2C02D9F6
:1057700000241035EDB23A2D03D900242546FFF759
:1057800081FE009732780C2329462046FFF764FFFC
:105790000834E4B2761C30780028E7D1F8BD000068
:1057A00070B50A4D0A4E002435F81400317888424D
:1057B00001D2012200E0002200212046FFF796FEE0
:1057C000641CE4B2802CEFD370BD000008190020E7
:1057D0009100002070B500250E4A012311B1C2F8D6
:1057E0008C3101E0C2F88C510B4C0021C4F8B85147
:1057F000060602D5C2F8943101E0C2F89451C4F80B
:10580000B8314006491C000EC9B20829EED3C2F8CF
:105810008C3170BD008021420000224200220260D3
:105820004260002902D000BF4FF0010101724272B4
:105830008272C27202734273827302D04FF001010E
:1058400001E04FF00001C1737047002901D04FF013
:10585000010101724FF000018172C1720173417345
:10586000817302D04FF0010101E04FF00001C173DC
:1058700070472DE9F05F83460C4610685168154665
:105880008146884200DA08464FF448720021FBF74F
:1058900043FBDC2148434FF47A7190FBF1F04FF465
:1058A000B472C821C830FBF737FB81B201F1B400F4
:1058B00061F30F0780B260F31F47BA4601F150024F
:1058C00097B20022237A62F30F26D3B1D5F80CC029
:1058D000D4F800800123C4454FD0C4F800C095F827
:1058E00010C0BCF1000F41D0D5F808C0C4F804C006
:1058F0006372D5F808C08C4512D86273A77A2FB1AD
:1059000023E0286862F30706E27382E0277B032F17
:1059100004D27F1CFFB22773032F16D3A37214E0A7
:10592000227394F80AC0BCF1000F0ED0D5F808C05D
:10593000BC4509D3677B032F04D27F1CFFB267737A
:10594000032F02D3A27200E06273E77AAFB1AF68AF
:105950008F4209D9A77B022F04D27F1CFFB2A77305
:10596000022F0AD3E27208E0A27306E02273627388
:10597000A2736F7C032F00D3E372A77A0FB10327C2
:1059800017E0E77A0FB1042713E02F7C0FB1AF685F
:1059900000E0676894F80CC0BCF1000F06D194F8E1
:1059A00009C0BCF1000F03D0B84201D9022700E0C2
:1059B0000127286867F30706002822DD032F04D09B
:1059C000042F04D0022F04D022E010461BE06422F2
:1059D00007E02A7C0AB1AA6800E06268914202D31B
:1059E000502200210AE0511A4143B42291FBF2F304
:1059F000502B00DA5023024600211846FBF78CFAA0
:105A000006E0032F04D1E17B032901D063F30F26C5
:105A1000E773CBF808A0CBE90090CBF80C60BDE8A9
:105A2000F09F00000020044902460A54401CC0B206
:105A30000928FAD370470000601800202DE9F84FBC
:105A400001248246ADF800401D4800254570ADF8A0
:105A500000401C4E1C4F81464FF6FF7826E000BFE9
:105A6000BDF8001011EA0A0F02D0C6F8A44101E007
:105A7000C6F8A451C6F8A041052002F0BBF9C6F84B
:105A8000A051052002F0B6F9C6F8A041D7F82001D0
:105A900030B199F80110BDF80020114389F80110C8
:105AA000BDF8000008EA4000ADF80000BDF80000B5
:105AB000FF28D5D9BDE8F84F102002F09BB90000AF
:105AC0006018002000002242008021422DE9F05F92
:105AD000DFF81481D8F81410D8F81000C1F180064E
