:020000040800F2
:10000000B0080020F501000807230008FF220008BF
:1000100003230008210E0008192800080000000032
:100020000000000000000000000000003523000870
:10003000250E0008000000000923000837230008EF
:100040000F0200080F0200080F0200080F0200084C
:100050000F0200080F0200080F0200080F0200083C
:100060000F0200080F0200080F0200080F0200082C
:100070000F0200080F0200080F0200080F0200081C
:100080000F0200080F0200080F0200080F0200080C
:100090000F0200080F0200080F0200080F020008FC
:1000A0000F0200080F0200080F0200080F020008EC
:1000B0000F0200080F0200080F0200080F020008DC
:1000C0000F0200080F0200080F0200080F020008CC
:1000D0000F020008092800080F0200080F0200089C
:1000E0000F0200080F0200080F0200080F020008AC
:1000F0000F0200080F0200080F0200080F0200089C
:100100000F0200080F0200080F0200080F0200088B
:100110000F0200080F0200080F0200080F0200087B
:100120000F0200080F0200080F0200080F0200086B
:1001300000F002F800F04EF80AA090E8000C8244AB
:100140008344AAF10107DA4501D100F043F8AFF288
:10015000090EBAE80F0013F0010F18BFFB1A43F0A5
:10016000010318473039000050390000103A24BF0D
:1001700078C878C1FAD8520724BF30C830C144BF0C
:1001800004680C607047000000230024002500264E
:10019000103A28BF78C1FBD8520728BF30C148BFEA
:1001A0000B607047642900F0A180752900F09E80E3
:1001B000732900F08983002070471FB500F02CFEE2
:1001C00004000020002103F0E7FB401C60601FBD1D
:1001D00010B510BD00F0E4FD1146FFF7EEFF03F08F
:1001E00059F800F00BFE03B4FFF7F2FF03BC02F076
:1001F00031FB00000948804709480047FEE7FEE759
:10020000FEE7FEE7FEE7FEE7FEE7FEE7FEE7FEE7C6
:1002100004480549054A064B704700003F23000883
:1002200031010008B0020020B0080020B004002016
:10023000B0040020704710B54C1084EA530404D574
:100240004042C1F1000138BF491E1B4204D5524251
:10025000C3F1000338BF5B1E00F054FA14F0804F66
:1002600004D04042C1F1000138BF491E14F0004FD4
:1002700004D05242C3F1000338BF5B1E10BD000022
:100280000FB4044910B503AA029800F021FB10BC7A
:100290005DF814FB5C00002070B50C460546012A91
:1002A00005D02878800600D5EA69002302E0012302
:1002B00005E05B1C934202D2E05C0028F9D1A869FA
:1002C000E618C01AA861286A184428622846AFF3C5
:1002D000008004E0D5E9012114F8010B9047B442F5
:1002E000F8D32846AFF3008070BD00002DE9F0413F
:1002F0000646002410687529314616A510D0AFF3C4
:100300000080002802DA404213A507E031688A071E
:1003100001D512A502E0490704D511A5012401E089
:10032000AFF3008000210A2206F1240709E0B0FBA8
:10033000F2FCB0FBF2F302FB1C003030785418469C
:10034000491C0028F3D123462A463046BDE8F04137
:1003500000F04FBA000000002D0000002B0000004C
:10036000200000002DE9F0410F46054600202862DC
:100370002846E968884770B3252805D0D5E90121CA
:100380009047286A401CF2E7E9682846002688471B
:100390006C2804460AD0682C08D04C2C35D06A2C26
:1003A00031D0742C31D07A2C2FD016E0E968064673
:1003B00028468847B042044608D16C2E23D04FF41B
:1003C00080662846E9688847044606E06C2E03D01C
:1003D0004FF4807601E01EE04026E4B1A4F1410034
:1003E000192802D8203446F400663A4621462846A9
:1003F0002E60FFF7D7FE60B1012808D0FF1D27F05F
:1004000007070837B4E78026DBE70026D9E73F1D5A
:10041000AEE72046B2E7286ABDE8F0810FB400B528
:100420008DB010A9099000910B904FF0FF300A9009
:1004300000200C90064878440690064878446A46A6
:1004400007900F9909A800F069FA0DB05DF814FB48
:10045000030500001B0500002DE9FF5F1D464FF05E
:10046000FF3B91464FF000085F46D5E90146A96978
:1004700001987F1C8847296A824688470028F6D160
:10048000BAF1FF3F0CD0002E24F4C06419DD6006E1
:1004900014D5BAF12B0F09D0BAF12D0F0ED103E00C
:1004A000584604B0BDE8F09F44F48064A9690198FF
:1004B0007F1C8847761E8246002E02DDBAF1300F7F
:1004C00003D0B9F1000F26D032E0A969761E019859
:1004D0007F1C44F400748847002E824605DDBAF183
:1004E000780F06D0BAF1580F03D0B9F1000F10D031
:1004F0001EE0B9F1000F02D0B9F1100F18D1A969AF
:10050000761E01987F1C24F40074884782461020D0
:1005100002E0082000E00A20814609E0A96908FB02
:100520000908761E01987F1C44F4007488478246AF
:10053000002E05DD4946504600F0DCF90028EDDAD2
:10054000E96901988847A00502D46FF00100A8E787
:10055000E00725D1600613D5600502D5C8F100007B
:1005600000E0404629680A1D2A600968220501D575
:10057000087015E0220701D5088011E008600FE03F
:100580002868011D29600068210502D580F80080D7
:1005900006E0210702D5A0F8008001E0C0F8008045
:1005A00038467EE7032A40F2308010F0030C00F05A
:1005B000158011F8013BBCF1020F624498BF11F89D
:1005C00001CB00F8013B38BF11F8013BA2F1040256
:1005D00098BF00F801CB38BF00F8013B11F00303CE
:1005E00000F0CC81083AC0F0088051F8043B083A8A
:1005F00051F804CBA0E80810F5E7121D5CBF51F8D4
:10060000043B40F8043BAFF30080D20724BF11F84D
:10061000013B11F801CB48BF11F8012B24BF00F8B2
:10062000013B00F801CB48BF00F8012B70474FF0A9
:10063000000200B5134694469646203922BFA0E832
:100640000C50A0E80C50B1F12001BFF4F7AF09073E
:1006500028BFA0E80C5048BF0CC05DF804EB89002F
:1006600028BF40F8042B08BF704748BF20F8022B72
:1006700011F0804F18BF00F8012B70474FF0013C7C
:1006800050F8042B51F8043B9A4221D1A2EB0C0301
:10069000934313EACC1317D150F8042B51F8043BC1
:1006A0009A4215D1A2EB0C03934313EACC130BD15E
:1006B00050F8042B51F8043B9A4209D1A2EB0C03E9
:1006C000934313EACC13DBD04FF00000704700BF18
:1006D000D01A01BAB1FA81F101F0180122FA01F041
:1006E000CB40C1F12001DBB2C0B2C01A2CFA01F339
:1006F000D11A914311EAC311E6D170477047704790
:100700007047704753EA020C00F069802DE9F04B06
:100710004FF00006002B1FBFB3FA83F503FA05F470
:1007200024FA05F65E4012BF1643B2FA82F502FAC9
:1007300005F4C5F120051EBF22FA05FC44EA0C04AD
:10074000203556EA044C4FEA144418BF641C4FF09D
:1007500000084FF00009904271EB030C39D30029D7
:1007600019BFB1FA81F701FA07F6B0FA80F700FA7B
:1007700007F6C7F120071EBF20FA07FC46EA0C0661
:100780002037B6FBF4FCA7EB0507103F07F01F0B63
:10079000CBF120060CFA0BFB2CFA06F644BFB3464D
:1007A0000026202FA4BF5E464FF0000B5BEA060C2C
:1007B00008BF4FF0010B19EB0B09ABFB027C48EBB8
:1007C0000608C01B06FB02CC0BFB03CC71EB0C0133
:1007D000C1E70B46024641464846BDE8F08B13B5DB
:1007E0004FF000004FF00001AFF30080BDE81C4067
:1007F00070472DE9F0470D4699469246044600F1B0
:1008000024080168880604D5E06921F01001216000
:1008100000E00120A84201DD471B00E00027A1699C
:100820007A1902EB0900081AA0612078C00602D4E8
:100830002046AFF30080002608E0D4E901211AF831
:1008400006009047206A401C761C20624E45F4DB6F
:100850002078C0060AD52046AFF3008006E0D4E930
:10086000012130209047206A401C2062381EA7F1E9
:100870000107F4DC07E0D4E9012118F805009047EE
:10088000206A401C2062281EA5F10105F3DC2046E9
:10089000AFF300802078000602D50220BDE8F08783
:1008A0000120FBE710B5436913B1AFF3008001E00D
:1008B000FFF7F2FC012010BD127800F124010A704C
:1008C00000224A700122EDE711684FF0FF32E9E79C
:1008D000074B70B50D467B4400F091F8044628465E
:1008E00000F05AFA10B14FF0FF3070BD204670BDD5
:1008F0001F2400003A2800D2303820F02002412A7C
:1009000001D3A2F13700884201D34FF0FF30704786
:10091000026811441378016018467047D160054998
:1009200079445161044979441162002111611146F1
:1009300000F078B8EDFFFFFFB7000000426842B159
:10094000016811F8013B23B1521EC0E9001218469C
:1009500070470121C160881E704742685AB1C36860
:10096000016843B983688B4205D0491E521CC0E917
:100970000012002070474FF0FF30704710B5203A4A
:10098000C0F00B80B1E81850203AA0E81850B1E848
:100990001850A0E81850BFF4F5AF5FEA027C24BFFE
:1009A000B1E81850A0E8185044BF18C918C0BDE8F5
:1009B00010405FEA827C24BF51F8043B40F8043BBE
:1009C00008BF7047D20728BF31F8023B48BF11F873
:1009D000012B28BF20F8023B48BF00F8012B7047CD
:1009E00010B5044600F002FA0068005D00F0010056
:1009F00010BD000001694A1C02610878704700B50B
:100A00008FB0CDE901310021059105497944CDE947
:100A1000031011466846FFF7A5FC0FB000BD0000AB
:100A2000E5FFFFFF2DE9F34F4FF0000A0C46564655
:100A30008DB001200C9001F10C000B9062690B98B5
:100A400001219047051E2DD0252D2CD0216A8847E5
:100A5000C0B162690B9801219047216A884700283C
:100A6000F7D16269411E0B98904700E0761CA1699E
:100A70000D988847216A88470028F7D1E1690D98C9
:100A80008847DBE7A1690D988847A842074601D14E
:100A9000761CD3E7E1690D9888477F1C02D1BAF133
:100AA000000F6FD06BE162690B9800273D46394615
:100AB00090472A2804D162690B98012190470125AB
:100AC000DFF8D08262690B9801219047A0F13001D4
:100AD0000A290AD24745E5DC07EB870100EB41070D
:100AE000303FDFD445F01005ECE7E90601D46FF0A4
:100AF00000476C280AD04C2814D0682815D06A28E2
:100B00000DD074281CD07A281AD01DE062690B9889
:100B1000012190476C2802D045F0040514E045F00F
:100B200002050DE045F020050AE062690B980121FD
:100B30009047682802D045F0080505E045F40065B7
:100B400062690B9801219047C4E9015765283DD09F
:100B500019DC58287AD00CDC452837D004DC25284D
:100B600026D041289ED131E046282FD0472899D160
:100B70002CE05B2877D0612828D063287CD06428BB
:100B800023D15AE0F6E06F2848D008DC66281DD053
:100B900067281BD0692821D06E2816D127E070283D
:100BA00045D0732868D0752847D078280DD14DE0FE
:100BB000A1690D988847252805463FF469AFE1698A
:100BC0000D9888476D1C3FF46AAFD8E00D99234615
:100BD0006A466FF00100AFF30080C5E045F04000C9
:100BE00023464FF000026060A80736D43EE0E807D5
:100BF0007FF447AF2068011D21600068290501D5F9
:100C000006701BE7290701D5068017E7A90703D55A
:100C1000F117C0E9006111E706600FE745F04000F9
:100C200023464FF008026060A80716D41EE040F685
:100C30000E0125EA0100606016E045F04000234601
:100C40004FF00A026060A80707D40FE045F04000AB
:100C50006060A80708D5234610220D996FF00100A7
:100C6000AFF3008080E007E0102223460D996FF07B
:100C70000100FFF7F1FB77E04FF0000963284F46D2
:100C8000C8464B46CB4602D05B2806D038E0E80683
:100C900001D40120A060012732E06269D4F80CB0D1
:100CA0000B98012190475E2807D14FF00109494672
:100CB0006269D4F80CB00B989047216939B90021CA
:100CC0000A4603AB43F82120491C0829FADBD8B3B4
:100CD000216949B308F1010862690B980121904725
:100CE0005D28F4D1B9F1000F09D0002003A951F813
:100CF0002020D24341F82020401C0828F7DB03AB1A
:100D00002069002820794FEA40701ED05B462246B9
:100D1000CDF80080CDE901970D9900286FF0010012
:100D200020DAAFF300801FE0C11703AA00EBD16106
:100D30004B1121F01F0102EB8302411A13680120BD
:100D4000884003431360C7E719E00D992246002845
:100D50006FF00100009702DAAFF3008004E0AFF318
:100D6000008001E0AFF3008000280ADA401C06D1C1
:100D70000C9820B14FF0FF300FB0BDE8F08F504617
:100D8000FAE7E90701D10AF1010A064400200C90B4
:100D900054E60000CCCCCC0C007B00F08000704707
:100DA000754600F035F8AE4605006946534620F01A
:100DB0000700854618B020B5FFF72AFABDE82040A5
:100DC0004FF000064FF000074FF000084FF0000B07
:100DD00021F00701AC46ACE8C009ACE8C009ACE8BA
:100DE000C009ACE8C0098D467047000010B500F09E
:100DF00013F8001D10BD00BFA12B000010B5044664
:100E0000AFF300802046BDE81040FFF7ECB90000CA
:100E100000487047500200200048704770020020D0
:100E200000BFFEE77047000070B50446002594F847
:100E30002100022803D00420A0630125C1E020681E
:100E4000006820F00E00216808602068006820F02B
:100E50000100216808605C492068884252D95A49DB
:100E600078392068884201D1012047E05649643929
:100E70002068884201D1102040E053495039206851
:100E8000884201D1801539E04F493C3920688842B9
:100E900001D1801432E04C4928392068884202D1BF
:100EA0004FF480302AE0484914392068884202D142
:100EB0004FF4801022E044492068884201D1400468
:100EC0001CE042492068884201D1012016E03F49D8
:100ED00014312068884201D110200FE03B492831AD
:100EE0002068884201D1801508E038493C312068EB
:100EF000884201D1801401E04FF480303349091F4A
:100F0000086051E0304978392068884201D10120D9
:100F100047E02D4964392068884201D1102040E023
:100F2000294950392068884201D1801539E0264985
:100F30003C392068884201D1801432E022492839A6
:100F40002068884202D14FF480302AE01E491439CB
:100F50002068884202D14FF4801022E01A492068AC
:100F6000884201D140041CE018492068884201D120
:100F7000012016E0154914312068884201D1102063
:100F80000FE0124928312068884201D1801508E01D
:100F90000E493C312068884201D1801401E04FF4B1
:100FA0008030094980394860012084F8210000BF61
:100FB000002084F8200000BF606B10B12046616BF8
:100FC0008847284670BD00008000024008040240A7
:100FD0002DE9F847024600239C467BE14FF00108CB
:100FE00008FA03F4D1F8008008EA0400A0427DD199
:100FF000DFF8F4A2D1F80480A8EB0A09D0453AD072
:1010000014DCB8F1030F50D009DCB8F1000F31D077
:10101000B8F1010F1CD0B8F1020F49D120E0B8F1AE
:10102000110F18D0B8F1120F42D11EE0B9F5881F88
:1010300025D006DCB9F5803F20D0B9F5801F37D127
:101040001AE0B9F5001F18D0B9F5041F30D117E028
:10105000D1F80CC02DE0D1F80C8008F1040C28E088
:10106000D1F80C8008F1080C23E0D1F80C8008F1CD
:101070000C0C1EE000BF00BF00BF00BF00BF00BFE0
:10108000D1F80880B8F1000F02D14FF0040C0BE04A
:10109000D1F80880B8F1010F03D14FF0080C1461AA
:1010A00002E04FF0080C546103E04FF0000C00E048
:1010B00000BF00BFFF2801D8904601E002F10408FC
:1010C0004646FF2802D84FEA830803E0A3F1080848
:1010D0004FEA88084746D6F800804FF00F0909FA12
:1010E00007F928EA09080CFA07F900E07AE048EA6B
:1010F0000908C6F80080D1F8048008F08058B8F1DB
:10110000805F6FD100BFDFF8E481D8F8188048F025
:101110000108DFF8D891C9F81880C846D8F81880B7
:1011200008F00108CDF8008000BF00BF4FEAB938D1
:101130004FEA930958F829504FEA83784FEA187913
:101140004FF00F0808FA09F825EA0805DFF8A08132
:10115000424502D14FF0000824E0DFF89881424573
:1011600002D14FF001081DE0DFF88C81424502D129
:101170004FF0020816E0DFF88481424502D14FF0BB
:1011800003080FE0DFF87881424502D14FF00408F0
:1011900008E0DFF87081424502D14FF0050801E018
:1011A0004FF006084FEA83794FEA197908FA09F8EF
:1011B00048EA0505DFF850814FEA930948F82950BD
:1011C000D1F8048008F48038B8F5803F0BD1DFF8FF
:1011D0003C81D8F8008048EA0008DFF83091C9F86F
:1011E00000800AE075E0DFF82481D8F8008028EA62
:1011F0000008DFF81891C9F80080D1F8048008F4DD
:101200000038B8F5003F0ED1DFF8008108F104087E
:10121000D8F8008048EA0008DFF8F09009F10409E6
:10122000C9F800800DE0DFF8E48008F10408D8F880
:10123000008028EA0008DFF8D49009F10409C9F811
:101240000080D1F8048008F48018B8F5801F0ED112
:10125000DFF8B88008F10808D8F8008048EA0008EC
:10126000DFF8A89009F10809C9F800800DE0DFF85F
:101270009C8008F10808D8F8008028EA0008DFF808
:101280008C9009F10809C9F80080D1F8048008F4AD
:101290000018B8F5001F0ED1DFF8708008F10C08B7
:1012A000D8F8008048EA0008DFF8609009F10C09DE
:1012B000C9F800800DE0DFF8548008F10C08D8F878
:1012C000008028EA0008DFF8449009F10C09C9F809
:1012D00000805B1CD1F8008028FA03F8B8F1000FF9
:1012E0007FF47CAEBDE8F8870000111000100240CA
:1012F00000080140000C01400010014000140140B2
:1013000000180140001C0140080001400004014099
:10131000024693680B400BB1012000E000207047AB
:10132000014800687047000064000020034800681E
:1013300003490978084401490860704764000020A7
:101340006C00002010B50848006840F01000064905
:101350000860052000F080F80F2000F007F800F08A
:101360002BF8002010BD00000020024070B504469C
:101370000E4800784FF47A71B1FBF0F00C4909681F
:10138000B1FBF0F5284600F0E3FB08B1012070BD89
:10139000102C07D200222146501E00F01EF80548EE
:1013A000046001E00120F2E70020F0E76C0000207B
:1013B00054000020680000207047014608460028BD
:1013C00009DB00F01F0301229A4043099B0003F14F
:1013D000E023C3F8002100BF70472DE9F05F80468D
:1013E0000D461646002701F019FA074639462A46E7
:1013F000334601F00700C0F1070ABAF1040F02D921
:101400004FF0040A01E0C0F1070AD14600F1040AD6
:10141000BAF1070F02D24FF0000A01E0A0F1030A6F
:10142000D4464FF0010A0AFA09FAAAF1010A0AEAB7
:10143000020A0AFA0CFA4FF0010B0BFA0CFBABF1A3
:10144000010B0BEA030B4AEA0B042146404601F06C
:10145000EDF9BDE8F09F000000BF00F00702064B69
:1014600019684FF6FF031940044B0B4343EA02216E
:10147000014B196000BF70470CED00E00000FA0559
:1014800070B504460D460CB9012070BD5A4800687D
:1014900000F00700A8420ED25748006820F007006D
:1014A0002843554908600846006800F00700A84234
:1014B00001D00120E9E7207800F0020002281DD1C8
:1014C000207800F00400042805D14C48406840F41E
:1014D000E0604A494860207800F00800082805D1FB
:1014E0004648406840F4605044494860434840687A
:1014F00020F0F000A168084340494860207800F0DF
:10150000010078B36068012806D13C48006800F407
:10151000003090B90120B8E76068022806D137484A
:10152000006800F0007040B90120AEE73348006861
:1015300000F0020008B90120A7E73048406820F019
:101540000300616808432D494860FFF7E9FE06463D
:1015500009E0FFF7E5FE801B41F28831884202D99D
:10156000032092E707E02548406800F00C0061681E
:10157000B0EB810FEDD12048006800F00700A842D1
:101580000ED91D48006820F0070028431A4908605A
:101590000846006800F00700A84201D0012074E767
:1015A000207800F00400042807D11448406820F493
:1015B000E060E168084311494860207800F00800C5
:1015C000082808D10D48406820F46050216940EA9D
:1015D000C1000A49486000F03FF808494968C1F372
:1015E0000311074A515CC840064908600648006874
:1015F000FFF7BCFE002048E7002002400010024038
:10160000CE3900085400002068000020014800681E
:10161000704700005400002000B5FFF7F7FF0449B1
:101620004968C1F30221034A515CC84000BD000073
:1016300000100240DE39000800B5FFF7E7FF04495B
:101640004968C1F3C221034A515CC84000BD000093
:1016500000100240DE390008F0B585B00FF26C0CC6
:101660009CE8E01001A8A0E8E0101CA52D680095FA
:1016700000210022002300240020194D696801F098
:101680000C05F5B1042D02D0082D19D101E0154843
:1016900019E001ADC1F38346AC5D01F4803555B16D
:1016A0000F4D6D68C5F340451DF805200D4D654390
:1016B000B5FBF2F302E00C4D04FB05F3184602E023
:1016C00000BF084800BF00BF05B0F0BD020304051D
:1016D000060708090A0B0C0D0E0F1010010200007E
:1016E0000010024000127A0000093D00F8B50446DF
:1016F0000CB90120F8BD207800F00100002878D056
:10170000F848406800F00C0004280CD0F548406808
:1017100000F00C00082811D1F248406800F4803035
:10172000B0F5803F0AD1EF48006800F4003000288F
:101730005FD0606800285CD10120DBE700BF6068F3
:10174000B0F5803F06D1E748006840F48030E549B5
:10175000086028E0606858B9E248006820F48030EA
:10176000E04908600846006820F4802008601AE01C
:101770006068B0F5A02F0BD1DA48006840F48020F3
:10178000D84908600846006840F4803008600AE0E4
:10179000D448006820F48030D249086008460068C8
:1017A00020F48020086000BF606888B1FFF7B8FDB2
:1017B000054606E0FFF7B4FD401B642801D903206D
:1017C00098E7C848006800F400300028F2D010E024
:1017D000FFF7A6FD054606E0FFF7A2FD401B6428C3
:1017E00001D9032086E7BF48006800F400300028D4
:1017F000F2D1207800F00200022857D1B9484068A1
:1018000000F00C0050B1B748406800F00C00082808
:1018100018D1B448406800F4803098B9B1480068E5
:1018200000F0020020B12069012801D0012061E709
:10183000AC48006820F0F800616940EAC100A9499D
:10184000086033E02069E8B10120A7490860FFF78C
:1018500067FD054606E0FFF763FD401B022801D93E
:10186000032047E79F48006800F002000028F2D0FC
:101870009C48006820F0F800616940EAC10099497D
:10188000086013E0002098490860FFF749FD05460D
:1018900006E0FFF745FD401B022801D9032029E798
:1018A0009048006800F002000028F2D1207800F093
:1018B000080008282DD1A069B8B101208B49086023
:1018C000FFF72EFD054606E0FFF72AFD401B022824
:1018D00001D903200EE78348406A00F00200002887
:1018E000F2D0012000F012FD13E000207F490860D3
:1018F000FFF716FD054606E0FFF712FD401B022824
:1019000001D90320F6E67748406A00F0020000287B
:10191000F2D1207800F00400042873D10027714828
:10192000C06900F0805070B900BF6E48C06940F0D7
:1019300080506C49C8610846C06900F08050009032
:1019400000BF00BF01276A48006800F48070B0B98A
:101950006748006840F4807065490860FFF7E0FC64
:10196000054606E0FFF7DCFC401B642801D9032094
:10197000C0E65F48006800F480700028F2D000BF25
:10198000E068012806D15748006A40F00100554937
:10199000086227E0E06858B95248006A20F0010068
:1019A000504908620846006A20F00400086219E005
:1019B000E06805280BD14B48006A40F00400494913
:1019C00008620846006A40F0010008620AE04548E3
:1019D000006A20F00100434908620846006A20F0CE
:1019E0000400086200BFE068A0B1FFF799FC05465B
:1019F00009E0FFF795FC401B41F28831884202D98B
:101A0000032077E622E03748006A00F00200002851
:101A1000EFD012E0FFF784FC054608E0FFF780FCFA
:101A2000401B41F28831884201D9032062E62D48EB
:101A3000006A00F002000028F0D1012F05D12948EA
:101A4000C06920F080502749C86100BFE069C8B371
:101A50002448406800F00C00082860D0E0690228A3
:101A600048D1002020490866FFF75AFC054606E0E9
:101A7000FFF756FC401B022801D903203AE619481B
:101A8000006800F000700028F2D1206AB0F5803FB5
:101A900007D11448406820F40030A1680843114978
:101AA0004860D4E9080108430E49496821F47411DB
:101AB00008430C49486001200B490866FFF730FCD9
:101AC000054607E03DE0FFF72BFC401B022801D94B
:101AD00003200FE60348006800F000700028F2D0F1
:101AE0002FE0000000100240000042428004424209
:101AF00000700040002014490866FFF711FC0546FD
:101B000006E0FFF70DFC401B022801D90320F1E598
:101B10000E48006800F000700028F2D111E0E06982
:101B2000012800D1E6E50948466806F48031206ABC
:101B3000814204D106F47011606A814201D0012013
:101B4000D8E50020D6E50000000042420010024027
:101B500070B504462546681EB0F1807F01D3012090
:101B60000FE0681E4FF0E02148610F214FF0FF3079
:101B700000F05CFE00204FF0E02188610720086142
:101B8000002070BD2DE9F04104460D4614B9012036
:101B9000BDE8F08194F83D0028B9002084F83C00AD
:101BA000204600F051F8022084F83D00206880684B
:101BB00044F20701884321688860211D206800F0F5
:101BC000BFFB2068D0F80880206886692068076A13
:101BD000286840EA080840F203308643A969A868EB
:101BE00040EA0120064340F60C4086434FF2F000E5
:101BF0008643E969E86840EA012006432869000154
:101C0000296A40EA0130064327F0220769696868BB
:101C100040EA011007432068C0F808802068866108
:101C200020680762012084F8460084F83E00012104
:101C30003F200155012084F8420043200155012036
:101C400084F83D000020A3E770472DE9F0430446E7
:101C50000D4694F83E603F20075D94F84280432093
:101C600010F804906DB9012E02D1B8F1010F02D025
:101C70000120BDE8F083022084F83E0084F8420091
:101C800025E0042D0CD1012F02D1B9F1010F01D0B3
:101C90000120EEE702213F2001554320015516E0C7
:101CA000012E07D1012F05D1B8F1010F02D1B9F1F1
:101CB000010F01D00120DCE7022084F83E00022160
:101CC0003F200155022084F842004320015515B100
:101CD000042D0CD105E001220021206800F07EFBDC
:101CE00010E001220421206800F078FB0AE00122C4
:101CF0000021206800F072FB01220421206800F01E
:101D00006DFB00BF00BF2068006840F00100216843
:101D100008600020ADE770B504460D46164600BFCA
:101D200094F83C00012801D1022070BD012084F804
:101D30003C0000BF36B1042E1BD0082E31D00C2E33
:101D40005ED145E02946206800F05AFB2068806992
:101D500040F00800216888612068806920F0040054
:101D60002168886120688069296908432168886141
:101D700047E02946206800F07BFB2068806940F43A
:101D80000060216888612068806920F48060216893
:101D9000886120688069296940EA0120216888619A
:101DA0002FE02946206800F0A1FB2068C06940F0C0
:101DB00008002168C8612068C06920F0040021681B
:101DC000C8612068C069296908432168C86118E0B2
:101DD0002946206800F0C6FB2068C06940F4006016
:101DE0002168C8612068C06920F480602168C861EA
:101DF0002068C069296940EA01202168C86100E0C3
:101E000000BF00BF00BF002084F83C0000BF00BF3F
:101E10008BE710B504460CB9012010BD94F83D00C5
:101E200028B9002084F83C00204600F025F8022064
:101E300084F83D00211D206800F082FA012084F81A
:101E4000460000BF84F83E0001213F20015540209C
:101E500001554120015500BF00BF012084F8420018
:101E600043200155442001554520015500BF012064
:101E700084F83D000020D0E77047000070B50446AC
:101E80000D4615B994F83E000BE0042D02D13F2019
:101E9000005D06E0082D02D14020005D01E04120F8
:101EA000005D012801D0012070BD1DB9022084F819
:101EB0003E000EE0042D03D102213F20015508E031
:101EC000082D03D102214020015502E002214120CA
:101ED000015501222946206800F080FA1F49206838
:101EE000884203D01E492068884201D1012000E0C9
:101EF000002028B12068406C40F40040216848640C
:101F000016492068884213D01549206888420FD0AE
:101F10002068B0F1804F0BD012492068884207D06A
:101F200011492068884203D01049206888420CD1AA
:101F30002068806800F00706062E0CD02068006834
:101F400040F001002168086005E02068006840F06A
:101F50000100216808600020A6E70000002C014075
:101F6000003401400004004000080040000C004024
:101F7000704700002DE9F047044620680568206896
:101F8000C668206847694FF00008C14605F00F0891
:101F9000B8F1000F0AD105F0200038B106F020009A
:101FA00020B1204600F032FBBDE8F087B8F1000F09
:101FB00071D007F0010018B906F4907000286AD0BB
:101FC00005F0010030B106F4807018B1E06B40F00C
:101FD0000100E06305F0040030B107F0010018B122
:101FE000E06B40F00200E06305F0020030B107F062
:101FF000010018B1E06B40F00400E06305F0080058
:1020000048B106F0200010B907F0010018B1E06BEC
:1020100040F00800E063E06B68B305F0200028B1F1
:1020200006F0200010B1204600F0F0FA2068406968
:10203000C0F38019E06B00F0080010B9B9F1000F8F
:1020400022D0204600F0C2FA2068406900F040002B
:10205000B0B12068406920F0400021684861606BA1
:1020600050B11848616B4863606BFEF7DDFE10B13C
:10207000606B416B88470CE02046FFF779FF08E072
:102080002046FFF775FF04E02046FFF771FF0020B0
:10209000E06389E7FFE705F0800030B106F08000DB
:1020A00018B1204600F080FB7EE705F0400030B11B
:1020B00006F0400018B1204600F098FA74E700BF1F
:1020C00072E70000B925000810B504460CB90120DC
:1020D00010BDA06900B100E000BF94F8390028B934
:1020E000002084F83800204600F028F8242084F8E6
:1020F00039002068C06820F400502168C86020467C
:1021000000F0D4FA2068006920F49040216808614A
:102110002068406920F02A00216848612068C06872
:1021200040F400502168C8600020E063202084F85B
:10213000390084F83A000020CAE7000010B586B0E4
:1021400004462849206888424AD100BF00BF26487B
:10215000806940F00400244988610846806900F0E5
:102160000400019000BF00BF00BF00BF00BF0846D1
:10217000806940F0040088610846806900F004002E
:10218000019000BF00BF00BF00BF00BF08468069CC
:1021900040F4804088610846806900F480400190E6
:1021A00000BF00BF00BF481502900220039001202D
:1021B00004900320059002A90C48FEF709FF4FF494
:1021C000806002900020039002A90848FEF700FFFB
:1021D0002520FFF7F2F8032211462520FFF7FDF82E
:1021E00006B010BD00380140001002400008014058
:1021F00010B5034693F83A0020282FD101B10AB94F
:10220000012010BD00BF93F83800012801D1022041
:10221000F7E7012083F8380000BF99629A85DA85D4
:102220000020D863222083F83A0000BF002083F802
:10223000380000BF1868C06840F480701C68E06017
:102240001868406940F001001C6860611868C06847
:1022500040F020001C68E0600020D2E70220D0E7B8
:1022600010B504462049206888423BD11F480088A9
:1022700000F4004088BB1D48008800F4804070B125
:102280001B4800780A2803D000201849088024E061
:102290001648008840F40040144908801DE01448A6
:1022A00000780D2806D11148008840F480400F497D
:1022B000088012E00E4800780C490988C1F30D012E
:1022C0000C4A505409480088401C084908800846B8
:1022D0000088C72801DD0020088001220449064843
:1022E000FFF786FF10BD00000038014060000020AD
:1022F000620000204801002010020020704700BF4B
:10230000FEE700BFFEE770477047000008B50849C8
:102310000968C9084FF47A72B1FBF2F141430091A8
:1023200000BF00BF00994A1E00920029F9D108BDE4
:1023300054000020704710B5FEF7F8FF10BD70473D
:1023400010B50268204B98420ED0204B98420BD01B
:10235000B0F1804F08D01E4B984205D01D4B9842DB
:1023600002D01D4B984203D122F070024B681A43F1
:10237000154B98420ED0154B98420BD0B0F1804FC0
:1023800008D0134B984205D0124B984202D0124B02
:10239000984203D122F44072CB681A4322F08003A2
:1023A0004C6943EA040202608B68C3620B68836273
:1023B000054B984202D0054B984201D10B6903634B
:1023C0000123436110BD0000002C01400034014096
:1023D0000004004000080040000C004030B501F04F
:1023E0001F05012404FA05F3046A9C430462046A8D
:1023F00001F01F0502FA05F52C43046230BD000010
:1024000030B5056A25F001050562026A43688469F2
:1024100024F0700424F003040D682C4322F002021F
:102420008D682A43104DA84200D103E00F4DA84209
:1024300006D100BF22F00802CD682A4322F0040230
:10244000094DA84202D0094DA84207D123F4807358
:1024500023F400734D692B438D692B4343608461E2
:102460004D684563026230BD002C014000340140DC
:1024700030B5056A25F010050562026A4368846973
:1024800024F4E04424F440740D6844EA052422F066
:1024900020028D6842EA0512124DA84200D103E0E5
:1024A000114DA84207D100BF22F08002CD6842EA58
:1024B000051222F040020B4DA84202D00A4DA8425C
:1024C00009D123F4806323F400634D6943EA850353
:1024D0008D6943EA8503436084614D6885630262C8
:1024E00030BD0000002C01400034014030B5056AC9
:1024F00025F480750562026A4368C46924F070049B
:1025000024F003040D682C4322F400728D6842EA23
:102510000522124DA84200D103E0114DA84207D177
:1025200000BF22F40062CD6842EA052222F48062F4
:102530000A4DA84202D00A4DA84209D123F4805383
:1025400023F400534D6943EA05138D6943EA0513EB
:102550004360C4614D68C563026230BD002C014018
:102560000034014030B5056A25F480550562036AE0
:102570004468C26922F4E04222F440720D6842EAE3
:10258000052223F400538D6843EA0533084DA84221
:1025900002D0084DA84204D124F480444D6944EA95
:1025A00085144460C2614D680564036230BD00005B
:1025B000002C01400034014070B505466C6A0020D3
:1025C000E085E0842046FFF7D3FC70BD0168C96850
:1025D00021F490710268D1600168496921F001011C
:1025E00002685161202180F83A10704710B5044606
:1025F0002068C06820F040002168C860202084F86E
:1026000039002046FFF77AFE002010BD70B5044661
:1026100094F83A00222847D1A068B0F5805F0CD129
:10262000206950B90025A66A20684068C0F30800F8
:102630003080A06A801CA06215E0A56A0026A06810
:10264000B0F5805F03D0A06828B9206918B9206868
:102650004068287004E02068406800F07F0028701F
:10266000A06A401CA062E08D401E80B2E085C8B91F
:102670002068C06820F020002168C8602068C06819
:1026800020F480702168C8602068406920F0010053
:1026900021684861202084F83A002046FFF7E0FDD9
:1026A000002070BD0020FCE70220FAE770B5044668
:1026B0002168096921F44051E268114322681161DF
:1026C0002269A1681143626941EA02052168C9686B
:1026D00041F20C62914329432268D1602168496923
:1026E00021F44071A2691143226851612D4A216889
:1026F000914202D1FEF7A0FF01E0FEF78DFF00EB53
:10270000C00101EB001162689200B1FBF2F100EB35
:10271000C00202EB001263689B00B2FBF3F2642379
:10272000B2FBF3F202EBC20303EB0212A1EB820154
:10273000322202EB01116422B1FBF2F101F0F0014F
:1027400000EBC00202EB001263689B00B2FBF3F2E5
:102750006423B2FBF3F201EB021200EBC00101EBC8
:10276000001163689B00B1FBF3F100EBC00303EBC6
:1027700000136668B600B3FBF6F36426B3FBF6F30A
:1027800003EBC30606EB0313A1EB8301322303EB38
:1027900001116423B1FBF3F101F00F011144226830
:1027A000916070BD00380140014691F83900212840
:1027B00028D18868B0F5805F0BD1086948B90A6AEA
:1027C0001088C0F308000B685860086A801C086213
:1027D00005E00B6A581C086218780B685860C88CB2
:1027E000401E80B2C88458B90868C06820F08000D4
:1027F0000B68D8600868C06840F040000B68D8607B
:10280000002070470220FCE710B50248FFF7B2FB3A
:1028100010BD00001002002000BFFEE70248006863
:10282000C0F30220704700000CED00E010B5002856
:1028300004DB0A07130E054A135406E00A07140EB8
:10284000034A00F00F031B1FD45410BD00E400E046
:1028500018ED00E000BF704703468B4201DA0846DE
:102860007047934201DD1046FAE71846F8E700008A
:102870002DE9F04F8DB0044675480068406A05B2F6
:1028800074480068406A06B200200C900B907049B2
:10289000096848626F49096848626F48006805FB2B
:1028A00000F96E48006806FB00FA6D48006848446D
:1028B0006B4908606B48006850446A4908606A4880
:1028C00000684FF47A7180FB01708046674889FB8D
:1028D000001264234FF0000CA1FB030B02FB03B2B8
:1028E00001FB0C213A464346CDE90801FDF7A3FC64
:1028F0005F4908605C4800684FF47A7180FB0171A1
:1029000088465A488AFB000164224FF0000CA0FB65
:10291000023B01FB02B100FB0C103A46CDE9083046
:102920004346DDE90801FDF786FC5249086052483C
:10293000007880B151480068201A47F2305188422F
:1029400009D900204C4908704D49087000F0C2FDBB
:102950004CA0FDF795FC4A480078012806D1514863
:1029600000680C90504800680B9044E044480078A0
:10297000022812D14D4B4E4A3D4801684948006833
:1029800000F0BAFD0C904B4B4B4A3A480168464860
:10299000006800F0B1FD0B902DE039480078032865
:1029A00029D146480068A4EB000840F6B830B8FBCF
:1029B000F0F0C7B2052F08D30020314908700C9001
:1029C0000B903FA0FDF75CFC14E043480078874281
:1029D00008D041480770414830F91720791C40A0C1
:1029E000FDF74EFC3D4830F917000C903B4830F99C
:1029F00017000B9000BFDDE90B1000F0F3FC3F481F
:102A0000007810B300F038FD0746164800681449F6
:102A10000968CDE90807CDE90661394800683949F8
:102A20000968144A1268CDE90405CDE9022110486D
:102A300000681D490968CDE900101A48036810486C
:102A40000278214630A0FDF71BFC0DB0BDE8F08FE9
:102A5000B800002000010020080000200C00002029
:102A6000280000202C00002004000020AC1D0300E2
:102A7000180000201C000020010000204800002059
:102A8000000000204556454E542C434F4D4D414EBD
:102A9000445F54494D454F55545F53544F500D0AB0
:102AA0000000000010000020140000204000002062
:102AB00038000020440000203C0000204C00002092
:102AC0004556454E542C53574545505F434F4D5046
:102AD0004C4554450D0A000050000020C439000840
:102AE0004556454E542C53574545505F5354455019
:102AF0002C25752C25640D0A000000000200002022
:102B00002400002020000020442C256C752C257505
:102B10002C256C642C256C642C256C642C256C6431
:102B20002C256C642C256C642C25642C25642C25A8
:102B30006C642C256C642C25750D0A000149086015
:102B4000704700005800002010B58AB004462421C8
:102B500001A8FDF76CFD002060600021A1604FF628
:102B6000FF71E16000212161A1610320019000203B
:102B70000290012003900020049006200590002080
:102B8000069001200790002008900620099001A9D6
:102B90002046FEF7F7FF10B107A000F09DF80020D7
:102BA000216848623C212046FFF74FF810B107A08A
:102BB00000F092F80AB010BD656E636F6465722014
:102BC00074696D657220696E69740000656E636F6B
:102BD0006465722074696D6572207374617274002B
:102BE00000B585B00020019002900390049000BFD2
:102BF0001648806940F008001449886108468069D9
:102C000000F00800009000BF00BF00BF0846C06988
:102C100040F00400C8610846C06900F0040000905C
:102C200000BF00BFC020019000200290012003904F
:102C30000320049001A90648FEF7CAF90548064991
:102C400008600846FFF780FF05B000BD0010024095
:102C5000000C014000080040B800002000B585B01D
:102C60000020019002900390049000BF16488069F4
:102C700040F01000144988610846806900F0100097
:102C8000009000BF00BF00BF0846806940F40050BC
:102C900088610846806900F40050009000BF00BFC2
:102CA000C020019000200290012003900320049096
:102CB00001A90648FEF78CF9054806490860084650
:102CC000FFF742FF05B000BD0010024000100140B8
:102CD0000034014000010020044600F0DBFB2146E7
:102CE00002A0FDF7CDFA72B600BFFEE7464154419F
:102CF0004C2C25730D0A000000BF054A126802F033
:102D00004002002AF9D0C2B2014B1B1D1A60704765
:102D10000038014000B585B000200190029003907A
:102D2000049000BF0D48806940F010000B49886195
:102D30000846806900F01000009000BF00BF4FF40B
:102D40000050019000200290012003900220049086
:102D500001A90348FEF73CF905B000BD0010024090
:102D6000001001401CB50446002001900090FEF7C1
:102D7000D7FAB6490860B6A12046FDF77FFC10B926
:102D800000F0F0FB60E1B4A12046FDF777FC78B9D4
:102D900000F072FB40B10120B0490870B0490870E2
:102DA000B0A0FDF76DFA4FE1B1A0FDF769FA4BE174
:102DB000B8A12046FDF762FC80B90020A749087041
:102DC000B6490870B6490860B649086000F082FB51
:102DD00000F060FBB4A0FDF753FA35E16B4601AAA1
:102DE000B8A12046FDF71AFB02281CD14FF4E1528E
:102DF00051420198FFF730FDA94908604FF4E152B4
:102E000051420098FFF728FDA64908600120A34918
:102E1000087000F05FFBA3480268A1480168ADA0FC
:102E2000FDF72EFA10E16B4601AAAFA12046FDF78F
:102E3000F5FA02281CD14FF47A7251420198FFF73B
:102E40000BFD974908604FF47A7251420098FFF7E2
:102E500003FD9449086002209049087000F03AFB95
:102E6000904802688E480168A3A0FDF709FAEBE0DC
:102E70006B4601AAA5A12046FDF7D0FA022818D179
:102E80004CF2503200210198FFF7E6FCA24908609D
:102E9000A24A00210098FFF7DFFCA149086000F07A
:102EA00019FB9F4802689C4801689EA0FDF7E8F95D
:102EB000CAE0A5A12046FDF7E1FB48B1A3A1204649
:102EC000FDF7DCFB20B1A2A12046FDF7D7FB50BBEC
:102ED0006078312808D14FF4FA608F49086042F6D3
:102EE000E0608F49086013E06078322808D140F62E
:102EF000AC508949086044F620608949086007E0C1
:102F000041F288308449086047F2305084490860B3
:102F100000F0E0FA824803687F48214602688DA0ED
:102F2000FDF7AEF990E06B4601AA93A12046FDF7AC
:102F300075FA022819D10198002802DA4FF0FF3003
:102F400000E00120904908600098002802DA4FF064
:102F5000FF3000E001208D490860084602688A4879
:102F600001688BA0FDF78CF96EE001AA8DA12046C7
:102F7000FDF754FA01280CD18C4A64210198FFF71F
:102F80006BFC8B490860084601688AA0FDF778F958
:102F90005AE001AA8BA12046FDF740FA01280CD186
:102FA000019808B1012000E000202D490870084672
:102FB000017886A0FDF764F946E087A12046FDF779
:102FC0005DFB70B900208649086086490860864923
:102FD0000968486285490968486285A0FDF750F98B
:102FE00032E08AA12046FDF749FB48B970480368E2
:102FF0007C4802687A48016885A0FDF741F923E022
:103000008CA12046FDF73AFB90B9032023490870B4
:10301000FF208A490870FEF783F98949086001207A
:103020000F49087000F056FA86A0FDF729F90BE069
:103030008FA12046FDF722FB10B900F063FB03E0EF
:1030400021468DA0FDF71CF91CBD000048000020A2
:1030500048454C500000000041524D000100002046
:10306000020000204F4B2C41524D45440D0A0000F8
:103070004552522C504331335F454E41424C455FDF
:103080005357495443485F494E4143544956450DAF
:103090000A00000053544F500000000000000020C0
:1030A00010000020140000204F4B2C53544F505060
:1030B00045445F414E445F44495341524D45440DA0
:1030C0000A0000004F50454E20256C6420256C649A
:1030D000000000004F4B2C4F50454E2C256C642CAB
:1030E000256C640D0A000000535045454420256CB2
:1030F0006420256C640000004F4B2C535045454420
:103100002C256C642C256C640D0A00005049202588
:103110006C6420256C64000030000020400D03002A
:10312000340000204F4B2C50492C4B705F783130CD
:1031300030303D256C642C4B695F78313030303D48
:10314000256C640D0A000000503100005032000070
:10315000503300004F4B2C25732C4B705F7831306F
:1031600030303D256C642C4B695F78313030303D18
:10317000256C640D0A0000005349474E20256C64FD
:1031800020256C6400000000080000200C000020D6
:103190004F4B2C5349474E2C256C642C256C640DE9
:1031A0000A00000043505220256C6400C0D4010086
:1031B000040000204F4B2C4350522C256C640D0A08
:1031C000000000004C4F4720256C64004F4B2C4CF6
:1031D0004F472C25750D0A005A45524F000000003C
:1031E000280000202C000020B80000200001002052
:1031F0004F4B2C454E434F4445525F544F54414C26
:10320000535F5A45524F45440D0A0000454E430056
:10321000454E432C746F74616C4C3D256C642C746A
:103220006F74616C523D256C642C4350523D256C8B
:10323000640D0A005357454550000000500000201F
:103240004C0000204F4B2C53574545502C31323009
:10325000307C313830307C323430307C3332303076
:103260007C343030302C33735F656163680D0A0045
:1032700053544154555300004552522C554E4B4E19
:103280004F574E5F434F4D4D414E442C25730D0A11
:1032900000000000FEF756F84FF4E01000F02CFBA1
:1032A0004820FFF74BFC4FF4E13000F059FBFFF7EB
:1032B00031FD00F079FAFFF793FCFFF7CFFC00F047
:1032C000E9F816A0FCF7DCFF1D4801681DA0FCF71B
:1032D000D7FF2AA0FCF7D4FF38A0FCF7D1FF3F4866
:1032E000FCF7CEFFFEF71CF83D490860FEF718F822
:1032F00000F10A0510E0FEF713F8044600F030FA7A
:10330000601B08D40A352046FFF7B2FA601B0A2872
:1033100001DB04F10A0500BFEDE700000D0A4235AC
:103320003835204D4F544F522F454E434F44455250
:103330002F5049204C41422052454144590D0A002A
:10334000040000204D43553D53544D333246313037
:1033500033524354362C2050574D3D31306B487A10
:103360002C2073616D706C653D31306D732C204382
:1033700050523D256C640D0A0000000053616665E3
:1033800074793A20626F6F74206973204449534105
:10339000524D45443B205043313320656E61626C91
:1033A0006520737769746368206D75737420626536
:1033B000206163746976652E0D0A0000547970658A
:1033C0002048454C5020666F6C6C6F7765642062B6
:1033D000792043524C462E0D0A0000003C3A00086A
:1033E0004800002070B505460C464FF4E1525142AA
:1033F0002846FFF731FA05464FF4E1525142204684
:10340000FFF72AFA04461848007810B100F034F8A3
:1034100008B900250024002D07DB14480068456327
:10342000002012490968886307E000200F490968F5
:10343000486368420D4909688863002C07DB0B4824
:103440000068C463002009490968086407E0002097
:1034500006490968C8636042044909680864044869
:1034600005600448046070BD010000207000002069
:10347000200000202400002010B54FF40051044823
:10348000FDF746FF08B9012010BD0020FCE7000051
:10349000001001400B4800680B4988420CD1002005
:1034A0000849096848630749096888630549096844
:1034B000C863044909680864002004490860044995
:1034C00008607047700000200004004020000020C9
:1034D00024000020002004490860044908600449D1
:1034E0000860044908607047380000203C00002054
:1034F00040000020440000202DE9F04E81468A461D
:1035000015461C46A9EB0A06134800682968711A7B
:1035100080FB01B001464FF47A7200235846FCF755
:103520008AFE07460D48006880FB06B001460C4A3B
:1035300000235846FCF77FFEC719226802EB0700FC
:103540004FF4E152C2F10001FFF786F920602E60CE
:103550002068BDE8F08E000030000020340000201C
:10356000A086010010B50CA0FCF78AFE12A0FCF7A3
:1035700087FE19A0FCF784FE22A0FCF781FE30A094
:10358000FCF77EFE3AA0FCF77BFE47A0FCF778FE36
:1035900051A0FCF775FE10BD48454C503A20636FB2
:1035A0006D6D616E647320656E6420776974682048
:1035B00043524C460D0A000041524D207C2053548A
:1035C0004F50207C20535441545553207C204C4F65
:1035D0004720307C310D0A004F50454E206C656607
:1035E0007450574D20726967687450574D202020E1
:1035F00020202020282D373230302E2E3732303008
:10360000290D0A0053574545502020202020202016
:1036100020202020202020202020202020202020AA
:1036200028666976652050574D206C6576656C7309
:103630002C203320732065616368290D0A00000087
:103640005350454544206C6566745F6D6D5F732013
:1036500072696768745F6D6D5F73202028696E639F
:1036600072656D656E74616C205049290D0A000009
:103670005031207C205032207C20503320202020CC
:103680002020202020202020202020202874687244
:103690006565207072657365742050492067726F8C
:1036A000757073290D0A00005049206B705F7831E6
:1036B000303030206B695F7831303030202020206E
:1036C0002020202028637573746F6D206761696EF8
:1036D00073290D0A000000005A45524F207C2045F6
:1036E0004E43207C2043505220636F756E747320CC
:1036F0007C205349474E206C656674207269676868
:10370000740D0A0010B586B0FFF7B6FE04460C48EB
:1037100000680C4909680C4A12680C4B1B68CDE91B
:103720000132CDE903100A48006800900948037887
:103730002246094801780948FCF7A2FD06B010BDF1
:1037400034000020300000200C0000200800002081
:10375000040000200000002001000020E8390008DB
:1037600010B5B2B00E48008800F40040B0B172B697
:103770000B480088C0F30D04C72C00D3C724224691
:1037800008496846FCF70EFF00200DF804000449C4
:10379000088062B66846FFF7E5FA00BF32B010BD98
:1037A000600000204801002000B58DB00020099085
:1037B0000A900B900C901C2102A8FCF738FF00BF68
:1037C0003F48806940F004003D49886108468069AF
:1037D00000F00400019000BF00BF00BF08468069F0
:1037E00040F0080088610846806900F008000190F8
:1037F00000BF00BF00BF0846C06940F00200C861BA
:103800000846C06900F00200019000BF00BFC02060
:10381000099002200A9000200B9003200C9009A927
:103820002848FDF7D5FB0320099009A92648FDF794
:10383000CFFB264826490860002048600021244824
:10384000816041F61F41C160002101618161FEF785
:10385000E0FA10B11FA0FFF73FFA602002900020AD
:10386000039004900690002202A91948FEF753FA2B
:1038700088B9042202A91648FEF74DFA58B9082261
:1038800002A91348FEF747FA28B90C2202A91048EA
:10389000FEF741FA10B113A0FFF71EFA00210C4801
:1038A000FEF7ECFA04210A48FEF7E8FA0821084876
:1038B000FEF7E4FA0C210648FEF7E0FA0DB000BD71
:1038C0000010024000080140000C014000040040CC
:1038D0007000002054494D332050574D20696E69C7
:1038E0007400000054494D33206368616E6E656C4E
:1038F00020636F6E6669670030B58FB0054601249E
:10390000282105A8FCF793FE14216846FCF78FFEDA
:1039100001200590000406900020079002200C90E2
:10392000C1030D910E9505A8FDF7E0FE04460CB10C
:1039300000BFFEE70F2000900220019000200290BF
:103940004FF4806003900020049002216846FDF748
:1039500097FD04460CB100BFFEE70FB030BD00007C
:1039600010B5044609480A49086008464460002129
:103970008160C160016181610C214161FEF7A4FB9E
:10398000012204490248FEF733FC10BD0038014013
:10399000100200206200002010B500290AD008782B
:1039A000002807D005487844FCF768FE002801D0BD
:1039B000002010BD0248784410BD00000E01000038
:1039C00006010000B00408076009800CA00F000089
:1039D00000000000000001020304060708090000BF
:1039E00000000102030400005354415455532C615C
:1039F000726D65643D25752C656E61626C653D2553
:103A0000752C6D6F64653D25752C4350523D256CBA
:103A1000642C7369676E3D256C642F256C642C4B98
:103A2000705F78313030303D256C642C4B695F78A5
:103A3000313030303D256C640D0A00004353563A56
:103A400020442C6D732C6D6F64652C7461726765F6
:103A5000744C2C746172676574522C737065656464
:103A60004C2C7370656564522C70776D4C2C70779C
:103A70006D522C7261774C2C726177522C746F747A
:103A8000616C4C2C746F74616C522C656E61626C4D
:103A9000650D0A00C43B0008000000207000000013
:103AA0006C010008343C0008700000204008000051
:103AB000880100081001000043000000F8FFFFFF2C
:103AC0000040404040404040404041414141414031
:103AD00040404040404040404040404040404040E6
:103AE0004005020202020202020202020202020275
:103AF000022020202020202020202002020202027A
:103B000002029090909090901010101010101010D1
:103B100010101010101010101010101002020202DD
:103B20000202888888888888080808080808080821
:103B3000080808080808080808080808020202021D
:103B40004000000000000000000000000000000035
:103B50000000000000000000000000000000000065
:103B60000000000000000000000000000000000055
:103B70000000000000000000000000000000000045
:103B80000000000000000000000000000000000035
:103B90000000000000000000000000000000000025
:103BA0000000000000000000000000000000000015
:103BB0000000000000000000000000000000000005
:103BC000000000000000000060EA000001000000AA
:103BD00001000000000000000000000000000000E4
:103BE00000000000000000000000000000000000D5
:103BF00000000000AC0D0000204E0000000000009E
:103C000000000000000000000000000000000000B4
:103C100000000000000000000024F400000000008C
:103C20000000000000000000000000001000000084
:043C3000010000008F
:0400000508000131BD
:00000001FF
