:020000040800F2
:10000000100900200104000835020008370200082A
:10001000390200083B0200083D0200080000000011
:100020000000000000000000000000003F02000887
:1000300041020008000000004302000845020008D9
:100040001B0400081B0400081B0400081B04000814
:100050001B0400081B0400081B0400081B04000804
:100060001B0400081B0400081B0400081B040008F4
:100070001B0400081B0400081B0400081B040008E4
:100080001B0400081B0400081B0400081B040008D4
:100090001B0400081B0400081B040008DB320008D6
:1000A0001B0400081B0400081B0400081B040008B4
:1000B0001B0400081B040008F32700081B040008A9
:1000C0001B0400081B0400081B0400081B04000894
:1000D0001B040008CF2000081B0400081B040008B4
:1000E0001B0400081B0400081B0400081B04000874
:1000F0000B2800081B0400081B0400081B04000850
:100100001B0400081B0400081B0400081B04000853
:100110001B0400081B0400081B0400081B04000843
:100120001B0400081B0400081B0400081B04000833
:1001300000F002F800F068F80AA090E8000C824491
:100140008344AAF10107DA4501D100F05DF8AFF26E
:10015000090EBAE80F0013F0010F18BFFB1A43F0A5
:100160000103184758910000789100000A444FF0AD
:10017000000C10F8013B13F0070408BF10F8014B06
:100180001D1108BF10F8015B641E05D010F8016B4B
:10019000641E01F8016BF9D113F0080F1EBF10F8AF
:1001A000014BAD1C0C1B09D16D1E58BF01F801CBD2
:1001B000FAD505E014F8016B01F8016B6D1EF9D555
:1001C0009142D6D37047000000230024002500266A
:1001D000103A28BF78C1FBD8520728BF30C148BFAA
:1001E0000B607047642905F0D786002070471FB563
:1001F00006F0ECFB04000020002106F095FF401CF7
:1002000060601FBD10B510BD06F0A8FB1146FFF7DA
:10021000EEFF00F0C5F806F0CFFB03B4FFF7F2FFE6
:1002200003BC01F04DFE000030BF72B662B680F331
:10023000088870477047FEE7FEE7FEE7FEE7704775
:1002400070477047704700000CB500224C48009280
:100250000192016841F4803101604FF4A0630168AC
:1002600001F4003101910099491C0091019911B9E3
:1002700000999942F3D10168890333D50121019195
:1002800040490A6842F010020A600A6822F003023C
:100290000A600A6842F002020A60416841604168EF
:1002A0004160416841F480614160416821F47C1102
:1002B0004160416841F4E8114160016841F080719A
:1002C000016001688901FCD5416821F003014160AA
:1002D000416841F0020141604168C1F38101022996
:1002E000FAD10CBD01920CBD254810B5016841F052
:1002F000010101604168244A114041600168234ABC
:1003000011400160016821F480210160416821F4FD
:10031000FE0141604FF41F018160FFF795FF1C490A
:100320004FF00060086010BD154A10B55068194BB9
:1003300010F00C01184803D0042901D0082901D07D
:10034000036012E05168536801F470114FF0020429
:1003500013F4803F04EB914102D053689B0301D515
:100360000E4B00E00B4B5943016051680A4AC1F340
:100370000311121D515C0268CA40026010BD0000EA
:1003800000100240002002400000FFF8FFFFF6FED0
:1003900008ED00E000127A000000002000093D0096
:1003A000022001F09DFC01F049FC022001F034FD27
:1003B000012001F031FD01F0D5FF02F001F800212C
:1003C00041F61F4002F0B8F84FF4E13001F082FD31
:1003D00002F068F902F0B0F902F018F802F02CFA15
:1003E00005F03AFB05F04CFB02F05EFC03480122ED
:1003F000027001780029FCD1FAE7000045000020D6
:100400000948804709480047FEE7FEE7FEE7FEE7A8
:10041000FEE7FEE7FEE7FEE7FEE7FEE704480549E4
:10042000054A064B70470000E90200083101000848
:1004300010030020100900201005002010050020E6
:100440002849084328490860704730B50F23C2780F
:1004500001780125F2B1244A126801F1E02102F489
:10046000E062C2F5E062120AC2F10404D3404278AD
:10047000A24084781C401443220181F800240078B3
:1004800000F01F018D404009800000F1E020C0F81D
:10049000005130BD01F01F0085404809800000F187
:1004A000E020C0F8805130BD104A114001430E4891
:1004B000001F016070470C4A121D0029116801D00D
:1004C000014300E08143116070474FF0E0210428B0
:1004D000086903D020F004000861704740F0040070
:1004E000FAE700000000FA050CED00E080FFFF1FB6
:1004F000C54910B5884202D1012144150AE0C3491B
:10050000884202D10121041504E0C14988420AD180
:100510000121CC03204600F048FC2046BDE81040F5
:10052000002100F042BC10BD10B54268B94B0C79F7
:100530001A400B6842EA0422134343608268B64BB8
:100540001A40D1E9024323434C7942EA440213435F
:100550008360C26A097C22F47002491EC9B242EA71
:100560000151C16210BD00210160017141718160C2
:10057000C1600121017470470029816802D041F0F7
:10058000010101E021F001018160704700298168CB
:1005900002D041F4807101E021F4807181607047E4
:1005A000002A4268C9B201D00A4300E08A4342608F
:1005B0007047816841F00801816070470146002062
:1005C0008968090700D501207047816841F004015E
:1005D00081607047014600208968490700D50120E5
:1005E00070470029816802D041F4A00101E021F4A4
:1005F000A00181607047014600208968490200D54A
:10060000012070474268491E22F4604242EA4131AB
:10061000416070470029416802D041F4006101E067
:1006200021F400614160704770B5072609290AD995
:10063000C568A1F10A0404EB4404A640B543A340F5
:100640001D43C56007E0056901EB4104A640B543C1
:10065000A3401D4305611F23072A09D2446B521E84
:1006600002EB820293409C4391400C43446370BD73
:100670000D2A09D2046BD21F02EB820293409C43E5
:1006800091400C43046370BDC46A0D3A02EB8202D0
:1006900093409C4391400C43C46270BD0029816823
:1006A00002D041F4801101E021F480118160704793
:1006B000C06C80B2704754484C30006870470029C5
:1006C000416802D041F4806101E021F48061416021
:1006D00070470029416802D041F4805101E021F4C3
:1006E000805141607047826822F4E0420A43826090
:1006F00070470029816802D041F4004101E021F4F3
:100700000041816070470029816802D041F40211E4
:1007100001E021F4021181607047014600208968E0
:10072000890200D50120704770B5072609290AD92A
:10073000C568A1F10A0404EB4404A640B543A340F4
:100740001D43C56007E0056901EB4104A640B543C0
:10075000A3401D430561836BC3F30154121B921C1C
:1007600002EB82021F249440A34391400B43836316
:1007700070BD826B491E22F4401242EA015181632E
:10078000704708B508440090026008BD08B50844E9
:1007900028300090006880B208BD42681F4B1A40A4
:1007A0000A4342607047416282627047426822F0A9
:1007B0001F020A4342607047134908310028086845
:1007C00002D040F4000001E020F40000086070470F
:1007D0000246002012680A4200D001207047C94337
:1007E0000160704710B50246002054680B0AC9B278
:1007F0000C401168194202D0002C00D0012010BD1D
:100800006FEA112101607047002401400028014077
:10081000003C0140FFFEF0FFFDF7F1FFFFFD3FFF51
:10082000374900200860091D0860091D0860091D7E
:1008300008603349334814310860704730B5304A96
:100840008379016853B313688B431360111D0B68E0
:100850000468A3430B60017911440B6804682343C7
:100860000B60274B083319680468A14319601C1DED
:1008700021680568A94321604179102905D01144F8
:100880000A68006802430A6030BD196802681143B3
:100890001960216800680143216030BD007910446F
:1008A00002688A43026030BD0021016001710C22A0
:1008B000427181717047124910310A6802430A601F
:1008C000704701460E4A0020143212680A4200D0D6
:1008D000012070470A49143108607047084A0146F0
:1008E00000201268064B0A4014331B680B4202D0EA
:1008F000002A00D001207047014914310860704778
:1009000000040140FFFF0F008F4910B5884206D157
:100910000121042000F049FA002104203BE08B492A
:10092000884206D10121082000F03FFA002108206A
:1009300031E08749884206D10121102000F035FAC4
:100940000021102027E08349884206D10121202080
:1009500000F02BFA002120201DE07F49884206D1BB
:100960000121402000F021FA0021402013E07B49C2
:10097000884206D10121802000F017FA0021802052
:1009800009E0774988420AD184150121204600F008
:100990000CFA00212046BDE8104000F006BA10BD58
:1009A00010B50121084600F000FA0021BDE8104012
:1009B000012000F0FAB9F0B5CC78002204F00F0362
:1009C000E40601D58C7823430C784FF00F0C14F01B
:1009D000FF0F4FF0010E1BD005680E880EFA02F4CF
:1009E0002640A64210D196000CFA06F725EA070722
:1009F00003FA06F5CE783D43282E02D0482E02D0C9
:100A000002E0446100E00461521C082AE5D305605D
:100A10000A88FF2A1CD94468002202F108060EFA4F
:100A200006F50E882E40AE420ED196000CFA06F75F
:100A3000BC4303FA06F7CE783C43282E00D145612B
:100A4000CE78482E00D10561521C082AE5D34460B7
:100A5000F0BD4FF6FF710180022181700421C17049
:100A600070470246002092680A4200D00120704779
:100A7000806880B2704702460020D2680A4200D0E7
:100A800001207047C06880B27047016170474161C2
:100A900070470AB10161704741617047C16070479A
:100AA00041F480328261816182618169806970472D
:100AB0002C4B10B51A684FF68074224042EA0010A1
:100AC0000843186010BD2849C8617047F0B5254C2F
:100AD000002801DAE36900E06368450D2E0185B264
:100AE000C0F30157B540C0F30342032F05D0C6023F
:100AF0000AD503269640B34307E023F0706263688B
:100B000023F07063636002E0AB4343F0706201B1B5
:100B10002A43002801DAE261F0BD6260F0BD10B541
:100B20008A0721F003040F49120F21440F238C6818
:100B300093409C438C608B68904003438B6010BD56
:100B40000949C1F8DC00704700080140000C014071
:100B5000001001400014014000180140001C014039
:100B6000002001400000014000002042A54801682B
:100B700041F0010101604168A34A114041600168F0
:100B8000A24A11400160016821F48021016041689E
:100B900021F4FE0141604FF41F01816070479949C3
:100BA0000A6822F480320A600A6822F480220A600D
:100BB000B0F5803F07D0B0F5802F03D1086840F42E
:100BC000A02008607047086840F48030F9E70346C9
:100BD000002059098B4A01290AD002290AD0516AFA
:100BE00003F01F02012393400B4200D00120704705
:100BF0001168F5E7116AF3E718B500204FF4A06417
:100C000000903120FFF7E3FF0099491C0091A142B9
:100C100001D00028F5D03120FFF7D9FF002800D0FF
:100C2000012018BD774A116821F0F80141EAC0009F
:100C300010607047764908607047724B5A680843E5
:100C400022F47C121043586070477149086670475F
:100C50006C4A516821F003010143516070476948B3
:100C6000406800F00C007047664A516821F0F001BE
:100C7000014351607047634A516821F4E0610143C8
:100C8000516070475F4A516821F4605141EAC000E9
:100C9000506070475B4A0029517A01D0014300E05F
:100CA0008143517270475A49C1F8D8007047554A7C
:100CB000516821F44041014351607047514900227D
:100CC00081F8202081F82020012802D0042802D1B8
:100CD000052081F8200070474E4908607047494957
:100CE0000A6A02430A6270474A49443908607047F9
:100CF00030B5444A5168484B11F00C0103D0042927
:100D000001D0082901D0036012E05168536801F452
:100D100070114FF0020413F4803F04EB914102D0B4
:100D200053689B0301D53D4B00E03B4B59430160A9
:100D300051680F2303EA1111394B5C5C0168E140F3
:100D400041605468072505EA14241C5D21FA04F467
:100D50008460546805EAD4241B5DD940C1605268A0
:100D6000032303EA92322E4B1B1F9A5CB1FBF2F174
:100D7000016130BD234A0029516901D0014300E0DF
:100D80008143516170471F4A0029916901D0014395
:100D900000E08143916170471A4A0029D16901D06E
:100DA000014300E08143D1617047164A0029D168B0
:100DB00001D0014300E08143D1607047114A00290E
:100DC000116901D0014300E081431161704711496D
:100DD0004039086070470E49C86470470949C871B6
:100DE00070470848416A41F0807141627047054A86
:100DF0000146002092680A4200D001207047014954
:100E000088727047001002400000FFF8FFFFF6FEF6
:100E1000000042428004424200127A0000093D0074
:100E200060000020F94910B5884202D10121C414A4
:100E300086E0B0F1804F09D0F54988420DD10121FB
:100E40000220FFF7BBFF0021022064E001210846D9
:100E5000FFF7B4FF002101205DE0EE49884206D192
:100E600001210420FFF7AAFF0021042053E0EA49F2
:100E7000884206D101210820FFF7A0FF00210820A9
:100E800049E0E649884206D101211020FFF796FF8C
:100E9000002110203FE0E249884206D101212020B4
:100EA000FFF78CFF0021202035E0DE49884202D187
:100EB0000121441444E0DC49884202D10121CC04E0
:100EC0003EE0DA49884202D101210C0538E0D849D8
:100ED000884202D101214C0532E0D649884206D130
:100EE00001214020FFF76AFF0021402013E0D24992
:100EF000884206D101218020FFF760FF0021802079
:100F000009E0CE4988420AD1841501212046FFF725
:100F100055FF00212046BDE81040FFF74FBFC849EC
:100F2000884202D101210C040AE0C649884202D15C
:100F300001214C0404E0C44988420AD101218C04F7
:100F40002046FFF732FF2046BDE810400021FFF7A2
:100F50002CBF10BD30B50288AC4CB24DA0420DD0B4
:100F6000A8420BD0B0F1804F08D0A94B984205D0D1
:100F7000A84B984202D0A84B984203D122F07003AC
:100F80004A881A43A54B984206D0A54B984203D0F5
:100F900022F44073CA881A4302808A8882850A88AC
:100FA0000285A0420AD0A84208D0A54A904205D0A6
:100FB000A44A904202D0A44A904201D1097A018603
:100FC0000121818230BD30B5028C22F00102028401
:100FD000028C8388048B22F0020224F073050C88B3
:100FE0002C430D8915434A882A43884DA8420BD0CB
:100FF0008C4DA84208D0924DA84205D0914DA842F0
:1010000002D0914DA8420DD122F008054A8923F45F
:1010100040732A4322F004058A882A438D891D43A0
:10102000CB892B4383800483C9888186028430BDA9
:1010300070B5028C22F010020284028C8388048B2B
:101040000D8824F4E6464FF6FF7404EA052535437F
:101050000E8922F0200204EA061616434A8804EAA2
:1010600002123243694EB04202D06E4EB04215D1E8
:1010700022F080064A8923F4406304EA02123243D4
:1010800022F040068A8804EA021232438E8904EA7A
:1010900086061E43CB8904EA83033343838005839A
:1010A000C9880187028470BD70B5028C22F48072F9
:1010B0000284028C8388848B0D8824F0730425437A
:1010C0000E894FF6FF7422F4007204EA06261643D6
:1010D0004A8804EA022232434C4EB04202D0514EBA
:1010E000B04215D122F400664A8923F4405304EA41
:1010F0000222324322F480668A8804EA02223243C2
:101100008E8904EA06161E43CB8904EA031333438F
:1011100083808583C9888187028470BD70B5028C05
:1011200022F480520284058C8288838B0C8823F4FD
:10113000E6464FF6FF7303EA0424344325F40056D1
:101140000D8903EA053535434E8803EA06362E43FA
:101150002E4DA84202D0334DA84205D122F480453D
:101160008A8903EA82122A4382808483C988A0F88C
:101170004010068470BD828B22F440628283828B91
:101180004FF6FF7303EA01210A4382837047828B83
:1011900022F00C028283828B0A4382837047028B87
:1011A00022F440620283028B4FF6FF7303EA0121AF
:1011B0000A4302837047F0B5048C24F010040484C1
:1011C000078B048C4FF6FF7527F4734705EA03334A
:1011D0003B4305EA02221A430C4B05EA01169842EA
:1011E0000ED0104B98420BD0B0F1804F08D0084B76
:1011F000984205D0074B984202D0074B984225D120
:1012000024F02001314341F0100124E0002C014082
:101210000004004000080040000C004000100040A6
:101220000014004000340140004C014000500140D7
:101230000054014000180040001C00400020004005
:1012400000400140004401400048014024F0A00358
:101250000B4343F0100102830184F0BD028B22F0A6
:101260000C020283028B0A430283704770B5048C20
:1012700024F001040484058B048C4FF6FF7606EA03
:101280000313134325F0F305F84A2B4390420ED085
:10129000F74A90420BD0B0F1804F08D0F54A904207
:1012A00005D0F54A904202D0F44A904202D124F08F
:1012B000020201E024F00A020A4342F00101038322
:1012C000018470BD2DE9F84F0D4604460888E74FAC
:1012D000DFF89CC3DFF89C83DFF89C934988AA88D9
:1012E0002B894FF0804A48B304282FD04FF6FF7661
:1012F0000828934632D0208C9E4620F480502084CB
:10130000A38B208C06EA0132009223F4734306EA91
:101310000B221A4306EA0E331343BC420AD064453B
:1013200008D0544506D0444504D04C4502D0D34A99
:10133000944242D120F40050009940E02046FFF74B
:1013400095FFE9882046BDE8F84F87E72046FFF77C
:1013500032FFE9882046BDE8F84F20E7208C20F4D2
:1013600080702084B4F81CE0208C06EA031306EA9F
:1013700001222EF0F30E43EA0B0343EA0E03009220
:10138000BC420AD0644508D0544506D0444504D038
:101390004C4502D0B94A944203D120F40070009920
:1013A00001E020F42060084340F48070A38320848F
:1013B000E9882046BDE8F84FE9E620F402400843FA
:1013C00040F48050A3832084E9882046BDE8F84F8C
:1013D000D1E62DE9F0410C46002649880746012553
:1013E00001B90226A288012A00D10225208823897A
:1013F0000028384610D0FFF7DEFEE1883846FFF7B8
:10140000CEFE23892A4631463846FFF72FFFE18872
:101410003846BDE8F04121E7FFF728FFE18838466C
:10142000FFF71CFF23892A4631463846FFF7C3FEE3
:10143000E1883846BDE8F041B1E610B50A884B882E
:10144000CC881A438B8823431A430B891A434B8950
:1014500089891A430A43A0F8442010BD4FF6FF7152
:10146000818000210180C18041800172704700218C
:10147000018041808180C180018141818181C18160
:10148000704700210180418001228280C18001815A
:1014900070470021018041808180C18001814181AC
:1014A000818170470029018802D041F0010101E0EB
:1014B00021F0010101807047002930F8441F02D05B
:1014C00041F4004101E0C1F30E0101807047002AA0
:1014D000828901D00A4300E08A4382817047818279
:1014E00070471143A0F848107047002A828901D044
:1014F0000A4300E08A4382817047018921F0070195
:1015000001817047028922F070020A43028170470C
:1015100000B50346FFF7F6FF188940F00700188171
:1015200000BD70B516460D46602904464FF0010215
:1015300031460AD0FFF79AFE29462046FFF7E2FF20
:10154000208940F00700208170BDFFF734FEF3E7EB
:1015500030B504894FF6FF7505EA03231343E4B25F
:101560000B432343038130BD10B50446FFF7F0FF62
:10157000208940F07700208110BD10B50446FFF7A8
:10158000E7FF208940F48040208110BD01858282E0
:101590007047028822F070020A430280704770B5DB
:1015A0000589048B068C25F007050D434FF6FC4199
:1015B0000C4040F201110C434FF6FF7101EA031198
:1015C00026F022061143314305810483018470BD56
:1015D000028B22F070020A4302837047028B4FF69F
:1015E000FF7322F4E04203EA0121114301837047B3
:1015F000828B22F070020A4382837047828B4FF6FF
:10160000FF7322F4E04203EA012111438183704712
:101610000029018802D041F0800101E021F0800121
:10162000018070470029818802D041F0040101E067
:1016300021F00401818070470029818802D041F0A7
:10164000080101E021F008018180704700298188AC
:1016500002D041F0010101E021F0010181807047D9
:10166000028B22F008020A4302837047002C0140DB
:10167000003401400004004000080040000C00401D
:10168000028B4FF6FF7322F4006203EA012111433B
:101690000183EAE7828B22F008020A438283E4E7AF
:1016A000828B4FF6FF7322F4006203EA012111439B
:1016B0008183DAE7028B22F004020A430283D4E733
:1016C000028B4FF6FF7322F4806203EA012111437B
:1016D0000183CAE7828B22F004020A438283C4E7B3
:1016E000828B4FF6FF7322F4806203EA01211143DB
:1016F0008183BAE7028B22F080020A430283B4E7B7
:10170000028B4FF6FF73C2F30E0203EA012111436D
:101710000183AAE7828B22F080020A438283A4E736
:10172000828B4FF6FF73C2F30E0203EA01211143CD
:1017300081839AE7028C22F002020A43028494E732
:10174000028C22F008020A4302848EE7028C4FF6D4
:10175000FF7322F0200203EA01111143018484E7A0
:10176000028C4FF6FF7322F0800203EA011111434D
:1017700001847AE7028C4FF6FF7322F4007203EAC9
:1017800001211143018470E7028C4FF6FF7322F4AC
:10179000006203EA01211143018466E7028C4FF6DF
:1017A000FF7322F4005203EA0131114301845CE724
:1017B00010B50123048C8B409C430484038C8A4025
:1017C0001343038410BD10B50423048C8B409C4349
:1017D0000484038C8A401343038410BD30B5012474
:1017E000058C00F118038C40A543058489B10829B4
:1017F0000FD0091FC1F34E001844016821F4E041E5
:10180000016001684FF6FF7303EA02221143016091
:1018100030BD03EB5100016821F0700101600168E7
:10182000F4E70029018802D041F0020101E021F033
:101830000201018019E70029018802D041F004016A
:1018400001E021F0040101800FE70029818802D026
:1018500041F0800101E021F08001818005E70288EC
:1018600022F00802028002880A430280FDE6828894
:1018700022F07002828082880A438280F5E6028923
:1018800022F00702028102890A430281EDE6028901
:1018900022F08002028102890A430281E5E6818406
:1018A000E3E68185E1E68186DFE60187DDE6818783
:1018B000DBE6A0F84010D8E6028822F440720280ED
:1018C00002880A430280D0E6808ECEE6008FCCE606
:1018D000808FCAE6B0F84000C7E6808CC5E6008D70
:1018E000C3E602460020128A0A4200D00120BCE66C
:1018F000C9430182B9E602460020138A92890B424D
:1019000002EA010202D0002A00D00120ADE6C9435C
:101910000182AAE6C44910B588420AD101218C038C
:101920002046FFF742FA2046BDE810400021FFF7AD
:101930003CBABE49884202D101214C0410E0BC49A6
:10194000884202D101218C040AE0BA49884202D1BE
:101950000121CC0404E0B84988420AD101210C05D8
:101960002046FFF72BFA2046BDE810400021FFF784
:1019700025BA10BD30B50446008A85B00D464CF638
:10198000FF710840E98801432182A0894EF6F311D6
:101990000840A9882A8911436A8902431143A18119
:1019A000A08A4FF6FF410840A9890143A1826846F9
:1019B000FFF79EF99C48844201D1039800E0029809
:1019C000A189090400EBC00101EB0010296801D5D1
:1019D000490000E08900B0FBF1F06422B0FBF2F1B5
:1019E00009010B096FF018056B4300EB8300A38915
:1019F0001D044FF0320306D503EBC000B0FBF2F03C
:101A000000F0070005E003EB0010B0FBF2F000F07F
:101A10000F000843208105B030BD4FF4165101601E
:101A200000218180C18001810C2242818181704727
:101A300010B5028A4FF2FF031A400B884C882343EB
:101A40008C88C9880C4323431343038210BD0021B3
:101A5000018041808180C18070470029818902D046
:101A600041F4005101E021F400518181704710B52B
:101A7000C1F3421301F01F040121A140012B07D043
:101A8000022B07D01430002A026805D00A4304E074
:101A90000C30F8E71030F6E78A43026010BD002AE8
:101AA000828A01D00A4300E08A4382827047028A18
:101AB00022F00F020282028A0A4302827047828960
:101AC00022F40062828182890A4382817047002960
:101AD000818902D041F0020101E021F002018181FF
:101AE0007047028A22F020020282028A0A4302829E
:101AF00070470029018A02D041F4804101E021F4BD
:101B0000804101827047C1F308018180704780885D
:101B1000C0F308007047818941F00101818170475D
:101B2000028BD2B20283028B42EA01210183704709
:101B3000028B02F47F420283028B0A4302837047C6
:101B40000029818A02D041F0200101E021F020012A
:101B5000818270470029818A02D041F0100101E0A2
:101B600021F01001818270470029818A02D041F062
:101B7000080101E021F00801818270470029818974
:101B800002D041F4004101E0C1F30E0181817047B0
:101B90000029818A02D041F4006101E021F4006152
:101BA00081827047828A22F004028282828A0A43FA
:101BB000828270470029818A02D041F0020101E04F
:101BC00021F00201818270470246002012880A42F9
:101BD00000D001207047C9430180704770B501F003
:101BE0001F0501260024C1F3421306FA05F2012B5A
:101BF0000FD0022B0FD0838A4FEA112100881342A5
:101C000006FA01F600EA060001D000B101242046E0
:101C100070BD8389F0E7038AEEE70A0A012191404B
:101C2000C943018070470000003801400044004073
:101C300000480040004C00400050004010B56FF0DC
:101C40000400FEF742FC204820490068B0FBF1F098
:101C50001F49C0B200EB40020870C2EBC0104FF643
:101C6000FF7202EAC000488010BD19490978484354
:101C70004FF0E021486100238B61086940F00100CA
:101C800008610869C20701D0C003FAD5086920F0CD
:101C9000010008618B6170470D49498848434FF046
:101CA000E021486100238B61086940F00100086170
:101CB0000869C20701D0C003FAD5086920F0010005
:101CC00008618B61704700000000002000127A005C
:101CD00070000020704A1140014370480160704755
:101CE00007216E4A8143121D10684FF6FF0318400A
:101CF0006B4B184340EA012010607047F0B5054671
:101D000014460F461E461846FFF7EAFFC6F10400C8
:101D100085400F22F2403A402A436009800000F1DA
:101D2000E020D0F8001104F01F050123AB40194357
:101D3000C0F8001104F1E02494F8000440EA021015
:101D400084F80004F0BD70B5564D8B088C07AE6961
:101D5000240F46F00106AE619D00534B2B449E6854
:101D60000F25A540AE439E609D68A04005439D6041
:101D70004E4B1C680120884004431C60D10704D0EE
:101D80004A490C310B6803430B60910704D5474A5D
:101D9000083211680143116070BD424800210161A1
:101DA000C160142242618161C161026842F0010296
:101DB000026042683E4B1A40426002683D4B1A4046
:101DC0000260026822F480220260426822F4FE026D
:101DD00042608160C0037DE730480830016841F00F
:101DE000040101602F48C16941F08051C16132484E
:101DF000416841F480714160016841F00401016073
:101E0000016841F002010160FEF70EBA244823493F
:101E1000001D091D0860704741062248826942F092
:101E2000010282612048426822F0E062426042681A
:101E30000A434260704730B505460024FFF7ADFF06
:101E40001849086840F4803008600868400CFCD0ED
:101E50004FF480604860AD1E4A68E8B242EA8040B4
:101E60004860486840F4803048601448026842F096
:101E700032020260086840F0807008600868400E16
:101E8000FCD0486840F00200486002E04868C0F3B7
:101E90008104022CFAD130BD80FFFF1F08ED00E065
:101EA0000000FA050010024000000140000401405B
:101EB0000000FFF8FFFFF6FE007000400020024027
:101EC0007047C7490A885206FCD5C54AC1B2121DDF
:101ED0001180704730B5054687B0012144F20400F7
:101EE000FEF751FF4FF40070ADF8100003208DF89D
:101EF00012001820BB4C8DF8130004A92046FEF7F1
:101F00005AFD2015ADF8100004208DF8130004A927
:101F10002046FEF750FD25208DF8140001218DF894
:101F2000151000248DF816408DF8171005A8FEF73F
:101F30008CFAADF80440ADF80640ADF80840ADF8B5
:101F40000C400C20A64CADF80A00009569462046CE
:101F5000FFF710FD012240F225512046FFF787FDD3
:101F600001212046FFF779FD07B030BD9C49091DCE
:101F70000880081F01884906FCD570472DE9F0410B
:101F800086B0804603AB02AA97A104F041F8994FAE
:101F9000994C02284CD003AB02AA98A1404604F009
:101FA00037F8994D994E02284CD005A904A8CDE9DF
:101FB000000103AB02AA96A1404604F029F80428C8
:101FC0004ED002AA97A1404604F022F8012859D029
:101FD00096A1404604F036F90125974C002856D0CA
:101FE00096A1404604F02EF9002853D096A1404611
:101FF00004F028F9002851D096A1404604F022F9B7
:102000000024954E00284DD094A1404604F01AF9C2
:1020100000284CD093A1404604F014F9002851D078
:1020200092A1404604F00EF900284ED091A012E093
:10203000029805F09BFF3860039805F097FF206039
:1020400091A008E0029805F091FF2860039805F040
:102050008DFF30608FA000F076F806B0BDE8F0810B
:10206000029805F083FF3860039805F07FFF206039
:10207000049805F07BFF2860059805F077FF306035
:1020800087A0E8E789490298086089A0E3E72570FE
:102090008AA0E0E7022020708CA0DCE703202070FB
:1020A0008FA0D8E792480470347092A0D3E79A4882
:1020B00035700480001D0480001D0480001D048014
:1020C00096A0C8E700F049F8C7E79748C3E770B59E
:1020D000434C40F2255529462046FFF77FFD002856
:1020E00018D029462046FFF798FD2046FFF70FFD40
:1020F000C0B200258D4A8E4C0D280CD00A280AD07B
:10210000A0F120015E2905D821783F2911D2505431
:10211000491C217070BD20780028FBD015548348DD
:10212000FFF72CFF2570BDE8704040217F4804F088
:1021300067B8257040217D4804F062F8BDE8704022
:102140007CA0AFF3008000B5024602E0521CFFF70E
:102150000DFF10780028F9D100BD2DE9F0417A4833
:10216000B8B0006805F0C6FE80467848006805F003
:10217000C1FE07462548006805F0BCFE0646224819
:10218000006805F0B7FE05461B48006805F0B2FE82
:1021900004461848006805F0ADFE7049DFF8B0C18C
:1021A0006C4B6D4A09680DF11C0EDCF800C01B6811
:1021B00012688EE80E103D4A04A912688DE871007D
:1021C0001D4881E8840103782348654902780BA8FB
:1021D00003F09AFE0BA8FFF7B6FF38B03EE7000009
:1021E000003801400008014042414C20256C642029
:1021F000256C64004C0000205000002056454C2007
:10220000256C6420256C64005400002058000020D8
:1022100050494420256C6420256C6420256C642082
:10222000256C64004D494420256C64004D4F4445A5
:1022300020444D50000000001C0000204D4F44453C
:10224000204B414C4D414E004D4F444520434F4D96
:102250005000000041524D001D00002053544F50CB
:1022600000000000535441545553000048454C5061
:10227000000000004552522C554E4B4E4F574E5FBA
:10228000434D440D0A0000004F4B2C42414C0D0AB7
:10229000000000004F4B2C56454C0D0A000000007A
:1022A0004F4B2C5049440D0A00000000180000203C
:1022B0004F4B2C4D49440D0A000000004F4B2C4D54
:1022C0004F44452C444D500D0A0000004F4B2C4DFF
:1022D0004F44452C4B414C4D414E0D0A000000002F
:1022E0004F4B2C4D4F44452C434F4D500D0A000091
:1022F000140000204F4B2C41524D2C4B4559325F5E
:10230000454E41424C455F5354494C4C5F524551F8
:1023100055495245440D0A00340400404F4B2C539C
:10232000544F500D0A000000A0910008A8010020A1
:10233000740000204552522C434D445F544F4F5F70
:102340004C4F4E470D0A00003C0000203800002092
:102350002C00002028000020240000202000002065
:102360000892000808B501211020FEF70CFD04209A
:10237000ADF8000010208DF8030003208DF8020056
:1023800069460C48FEF717FB08BD0B4A68B10B4BBA
:102390001968491C1960814206D1D2F88801C043EE
:1023A000C2F888010020186070470120C2F8880137
:1023B0007047000000100140000022427C00002015
:1023C00038B501211420FEF7DEFC0120ADF8000035
:1023D00004248DF8034069460A48FEF7ECFAE0024F
:1023E000ADF800008DF8034069460748FEF7E3FAB0
:1023F00038BD10B501210348FEF733FB012800D09A
:10240000002010BD000801400010014030B587B029
:1024100001214FF48260FEF7B6FC4FF40040FEF756
:1024200046FC0220ADF8140000248DF8174005A9E1
:102430003B48FEF7C0FA3B4D2846FEF759F84FF4EB
:102440006020CDE9020401208DF804408DF81000D1
:1024500000948DF8054069462846FEF765F801218D
:102460002846FEF789F82846FEF7A3F82846FEF727
:10247000A5F80028FAD12846FEF7A7F82846FEF767
:10248000A9F80028FAD107B030BD10B5254C014697
:10249000072301222046FEF7C7F801212046FEF758
:1024A000A0F802212046FEF793F90028F9D0204633
:1024B000BDE81040FEF7FCB810B50B20FFF7E5FFB4
:1024C00005F0C8F84FF06632174B05F0D7F8002238
:1024D000164B05F0D3F80022154B05F0CFF86FF03E
:1024E0000B0205F052FFBDE8104005F06DB810B5C5
:1024F000104C0146072301222046FEF795F80121E2
:102500002046FEF76EF800BF02212046FEF760F974
:102510000028F9D02046BDE81040FEF7C9B80000F9
:10252000001001400028014066660A400000264075
:10253000000059400024014070B50C46054600F0EB
:1025400006F821462846BDE8704000F042B8F8B5CC
:1025500001210420FEF717FC4020ADF800001825EB
:102560004D4E8DF8035003248DF8024069463046E5
:10257000FEF721FA01210420FEF705FC8020ADF8CA
:1025800000008DF803508DF8024069463046FEF792
:1025900012FA01210820FEF7F6FB0120ADF8000039
:1025A0003E4E8DF803508DF8024069463046FEF7E6
:1025B00002FA01210820FEF7E6FB0220ADF8000038
:1025C0008DF803508DF8024069463046FEF7F3F966
:1025D000F8BDF0B50D46044687B001210220FEF794
:1025E000DBFBADF8144000242D4FADF81050ADF8D2
:1025F0001240ADF8164004A93846FEF7ABFC602542
:10260000ADF800500126ADF80260ADF80640ADF817
:10261000084069463846FEF7D6FCADF80050ADF8E4
:102620000260ADF80640ADF8084069463846FEF74E
:10263000FFFCADF80050ADF80260ADF80640ADF813
:10264000084069463846FEF72FFDADF80050ADF85A
:102650000260ADF80640ADF8084069463846FEF71E
:102660005DFD08213846FEF7FBFF08213846FFF7DD
:1026700007F808213846FFF70DF808213846FFF71C
:102680000FF801213846FEF7C3FF01213846FEF757
:1026900009FF07B0F0BD000000080140000C014038
:1026A0000004004010B5012188B04803FEF76BFB21
:1026B00001211020FEF767FBC020ADF818000420B0
:1026C0008DF81B0006A95748FEF775F96846FEF716
:1026D000C5FE00204FF6FF71ADF80410ADF8000004
:1026E000514CADF80600ADF8020069462046FEF7F1
:1026F00031FC00231A4603212046FEF750FF03A8B1
:10270000FEF7BFFE0A21ADF8141003A92046FEF71C
:10271000D9FD01212046FFF7EBF8012211462046A2
:10272000FEF7D5FE00212046FFF7B9F8012120462B
:10273000FEF7B8FE08B010BD10B588B00121042026
:10274000FEF72AFB01210820FEF71DFBC020ADF893
:10275000180004208DF81B0006A93448FEF72BF959
:102760006846FEF77BFE00204FF6FF71ADF80410BF
:10277000ADF800002E4CADF80600ADF80200694639
:102780002046FEF7E7FB00231A4603212046FEF70A
:1027900006FF03A8FEF775FE0A21ADF8141003A981
:1027A0002046FEF78FFD01212046FFF7A1F8012208
:1027B00011462046FEF78BFE00212046FFF76FF8FA
:1027C00001212046FEF76EFEB4E70021032805D064
:1027D000042805D0082806D000207047154A04E0D8
:1027E000134A243201E0104A2432B2F90000118069
:1027F000704710B50E4C01212046FFF772F82046B5
:10280000BDE810400121FFF782B810B5064C012148
:102810002046FFF766F82046BDE810400121FFF78B
:1028200076B800000010014000340140000C014067
:10283000000800402404004008B501210820FEF7EC
:10284000A2FA4FF44040ADF8000010208DF80300CC
:1028500003208DF802006946FE48FEF7ACF808BD7B
:1028600070B5FC48001D016821F0704101600168ED
:1028700041F040510160F84C0120C4F8BC01D4F88B
:102880003C1149B1C4F8B801FFF7EFF90025C4F8CD
:10289000BC51D4F83C0108B1002070BD0120FFF705
:1028A000E4F9C4F8B851012070BDEA4810B5001D24
:1028B000016821F070410160016841F04051016000
:1028C000E54C0020C4F8B801C4F8BC01012004F5AF
:1028D000DC74FFF7CAF9012020606060BDE8104099
:1028E000FFF7C3B970B5DB480024001D016821F073
:1028F00070410160016841F000410160D64D012640
:10290000C5F8BC613046FFF7B0F9C5F8B86107E01B
:10291000641CE4B2322C03D9FFF7C7FF002070BD5E
:102920000120FFF7A2F9D5F83C010028F0D1C5F845
:10293000B801012070BD70B5C74C0025C4F8B8516E
:10294000C448001D016821F070410160016841F038
:1029500040510160C4F8BC51012004F5DC74FFF75C
:1029600084F901202060FFF780F9256070BD70B503
:10297000B94C0026C4F8B861B648001D016821F0C2
:1029800070410160016841F0405101600125C4F8C7
:10299000BC51284604F5DC74FFF767F92560012077
:1029A000FFF763F9266070BD2DE9F0410546A9489F
:1029B000001D016821F070410160016841F0405143
:1029C0000160A54E0027C6F8B8713C464FF00108DB
:1029D000E809C6F8BC016806050E0120FFF745F9B5
:1029E000C6F8B8810120FFF740F9C6F8B871012098
:1029F000FFF73BF9641CE4B2082CE9D3BDE8F08191
:102A00002DE9F0411D4616460C460746FFF728FF04
:102A100068B17806000EFFF7C7FFFFF763FF40B10C
:102A20002046FFF7C1FFFFF75DFF00240BE0012008
:102A3000E4E7FFF73AFFFAE7285DFFF7B5FFFFF796
:102A400051FF10B1641CB442F6DBFFF72EFF0020EB
:102A5000D4E72DE9F04781467E480024001D016837
:102A600021F070410160016841F0004101607A4E3F
:102A7000254627464FF00108C6F8B8710220FFF737
:102A8000F4F8C6F8B8816006040ED6F83C0108B127
:102A9000641CE4B20220FFF7E8F86D1CEDB2082DCB
:102AA000EAD3B9F1000F02D0FFF745FF01E0FFF7CD
:102AB0005EFF2046BDE8F0872DE9F0411D46144633
:102AC0000F460646FFF7CCFEB0B17006000EFFF7CA
:102AD0006BFFFFF707FF88B13846FFF765FFFFF789
:102AE00001FFFFF7BDFE012000EB4600C0B2FFF77B
:102AF0005BFFFFF7F7FE0DE001207FE7FFF7D5FE54
:102B0000FAE7012C0CD00120FFF7A3FF641E05F8A3
:102B1000010BE4B2002CF4D1FFF7C7FE00206DE7F3
:102B20000020F1E770B50D460446FFF799FE2046F8
:102B3000FFF73AFFFFF7D6FE2846FFF735FFFFF70E
:102B4000D1FEFFF78DFE641CE0B2FFF72DFFFFF70B
:102B5000C9FE0020FFF77DFF0446FFF7A6FE2046D2
:102B600070BD2DE9F0411D461646884607460024F3
:102B7000FFF776FE3846FFF717FFFFF7B3FE404634
:102B8000FFF712FFFFF7AEFEFFF76AFE7F1CF8B2F9
:102B9000FFF70AFFFFF7A6FE771E09E0BC4201D04F
:102BA000012000E00020FFF754FF2855641CE4B228
:102BB000B442F3D3FFF779FE20461FE72DE9F04139
:102BC0001D461646884607460024FFF749FE38464C
:102BD000FFF7EAFEFFF786FE4046FFF7E5FEFFF748
:102BE00081FE06E0285DFFF7DFFEFFF77BFE641C39
:102BF000E4B2B442F6D3FFF758FE0120FEE610B56A
:102C00001446FFF78FFF2070012010BD07B502ABFF
:102C10000122FFF7D3FF0EBD2DE9F84314461E46EF
:102C20000D4680466A46089FFFF7E9FF002820D03E
:102C3000621CFF2000FA02F1C4F108023244521E65
:102C4000D0400143C6F108008740FAB2C4F1070042
:102C5000C24003E0000C0140008021429DF80000CA
:102C6000084010438DF80000C2B229464046FFF7E5
:102C7000CDFFBDE8F883F8B515461C460E4607465D
:102C80006A46FFF7BCFF01209DF80010A8400CB178
:102C9000014300E08143CAB28DF800203146384636
:102CA000FFF7B4FFF8BD00001FB501210846FEF78D
:102CB0006AF801210820FEF766F84FF40074ADF8B9
:102CC0000C4048208DF80F0003A91148FDF773FE52
:102CD00009210120FDF723FF00208DF804000C20BE
:102CE00000948DF8050001248DF806406846FDF734
:102CF000A5FD17208DF8080002208DF809008DF839
:102D00000A408DF80B4002A8FDF79FFB1FBD000095
:102D1000000C014010B5FE4B4FF4E1521C1D002881
:102D200004DD1A80C0F5E150208003E000F5E15099
:102D300018802280F6480830031D002904DDC1F503
:102D4000E15101801A8010BD028001F5E151198026
:102D500010BD30B5EF4BD3F83421EF4CD2B2227016
:102D6000D3F834510023ED4C012D00D12370EC4DEC
:102D7000A8420CD8EB4DA84209DC012A07D0B1F5D6
:102D80007A7F04DB2078012801D0002030BDE049A3
:102D900001200B80091D0B80091D0B80091D0B8074
:102DA00030BD2DE9F0418046DC4814460D460078E0
:102DB00000282ED0DC4EDD4F708988B938680A387B
:102DC00005F0D4F8414605F0FDF809D238680A301C
:102DD00005F0CCF8414605F0F5F901D205B91CB172
:102DE0007089012802D016E001207081B08900218D
:102DF000401C80B2B081322801D9B1817181032D8C
:102E000009DD032C07DD642D05DA642C03DA7181FA
:102E10000120BDE8F0810020FBE7002800DA4042F5
:102E200070472DE9F047C04C9046024660881E4628
:102E300089460025A0B94046FFF7EFFF014630461E
:102E4000FFF7EBFF0844962809DAA088401C81B2FE
:102E5000A1800A2904D901206080A58003E0A58013
:102E6000608801281ED1E088401C80B2E080C8281C
:102E700001D9E5806580AE48AC4F824212DD3868EA
:102E8000143805F073F8494605F09CF80AD2386802
:102E9000143005F06BF8494605F094F902D202208F
:102EA000608002E06088022813D12089401C80B233
:102EB0002081642801D92581658008EB0600FFF791
:102EC000ACFF40F6B831884203DD65800120BDE8E3
:102ED000F0870020FBE7884200DD0846904200DAD8
:102EE0001046704770B50844404205F03FF88E4CDC
:102EF00006469049E06B05F099F805468E49304644
:102F000005F094F8294604F0BFFE05460146E0634B
:102F1000206C04F0B9FE89492064884202DC8849AB
:102F2000884200D9216487480168206C05F07EF84A
:102F3000854904F01DFF064684480168284605F0CF
:102F400075F8834904F014FF314605F077F96063A2
:102F50008048016880480068FFF7FBFE012803D025
:102F60006D480078012801D100202064606BBDE825
:102F7000704004F0BFBF70B505466C480C46006851
:102F800004F0F4FF294605F059F97449054684F028
:102F90000040096805F04AF86B4904F0E9FE044670
:102FA0006F486B49006804F0E3FE294605F03EF8DF
:102FB000214605F043F9BDE8704004F09BBF2DE9C0
:102FC000F35F04F030FB674D00222B4604F056FB04
:102FD0006FF00106324605F0D8F9634F00223B46F8
:102FE00004F09AF9DFF884810022434604F094F952
:102FF00004F0B0F804F01CFEDFF87491DFF874B14F
:103000004A465B4604F03AFBDFF86CA100225346C7
:1030100004F034FB04F09EF8434C2062019804F065
:1030200002FB00222B4604F029FB324605F0ADF9E5
:1030300000223B4604F070F90022434604F06CF98C
:1030400004F088F804F0F4FD4A465B4604F016FBF1
:103050000022534604F012FB04F07CF86062BDE8E5
:10306000FC9F2DE9F05F044602F006FE4349DFF8BD
:10307000E880434FDFF80C91DFF80CA1434D086066
:10308000012C43D04421D020FFF74CFD04464321BE
:10309000D020FFF747FD04EB0020234C462120837E
:1030A000D020FFF73FFD06464521D020FFF73AFD2F
:1030B00006EB0020A0834821D020FFF733FD064611
:1030C0004721D020FFF72EFD06EB002060833C2136
:1030D000D020FFF727FD06463B21D020FFF722FD39
:1030E00006EB002060823E21D020FFF71BFD064644
:1030F0003D21D020FFF716FD06EB0020E0814021A6
:10310000D020FFF70FFD06463F2141E099E0000087
:1031100034040040000022421D0000201400002062
:10312000000020C200002042800000201800002083
:103130000060EA463D0A573F0AD7233E008CB94853
:10314000008CB9C8580000200000C842540000207C
:103150000000C8C2340000203800002050000020C9
:103160004C0000200000694000003E4000407F40CD
:10317000F1D4C853FB21094000C05040300000206A
:103180003C00002040000020480000208C0100206E
:10319000D020FFF7C7FC06EB002006B22682B4F968
:1031A0001800404204F0E2FE3860304604F03BFA7A
:1031B00006460F46B4F90E0004F035FA32463B4697
:1031C00003F0CCFEDFF844B200225B4604F056FA6E
:1031D0008F4A904B04F0A0F804F0F6F9A082B4F9FD
:1031E000100004F020FA06460F46B4F9120004F06D
:1031F0001AFA32463B4603F0B1FE00225B4604F069
:103200003DFA834A834B04F087F804F0DDF9E0824D
:10321000B4F9180004F0AAFE7F4E314604F0A8FD70
:103220008346B4F91C0004F0A1FE314604F0A0FD71
:1032300006467A487A4F0078022817D0032827D00C
:103240003AE002F086FC774C2968C8F80010B4F91F
:10325000000004F08BFE3860B4F9040004F086FE30
:10326000C9F800007048B0F9040030E0B4F9140067
:1032700004F07CFE594600F0F7F880F0004028602A
:10328000B4F9160004F072FE314600F0AEF910E019
:10329000B4F9140004F06AFE594600F08AF980F08F
:1032A00000402860B4F9160004F060FE314600F0DA
:1032B00040FA80F0004038602968C8F80010B4F97E
:1032C0001A0004F053FEC9F80000B4F9100004F02D
:1032D0004DFECAF80000BDE8F09F2DE9F05F5348AD
:1032E000D0F82401002873D151494FF400700860D0
:1032F0000420FFF76AFA4F4E30600820FFF765FAA6
:103300004D4D4E4F40422860387878B100203870DB
:1033100042480078FFF7A5FE29683068FFF74FFEA6
:10332000474A10780024012802D00AE00120EEE785
:1033300044490878401CC0B208700A2801D10C70BA
:1033400014703878DFF800B1012842D03F48DFF828
:1033500000810168D8F80000FFF70DFE07462968D4
:103360003068FFF7BFFDDFF8ECA03844DFF8E890E5
:10337000DFF8E8C0CAF8000057464B46624641F6FF
:10338000F421C9F80000FFF7A6FD3860624641F657
:10339000F4211868FFF79FFD186031482B683268E8
:1033A000D8F800100068FFF73CFD2E4F08B101204F
:1033B00038702A6845463168D8F80000FFF7F1FCFC
:1033C00000B13C70DBF800102868FFF7C2FC90B138
:1033D00017E0FFF771F8B862F96A491CF9623A6BB5
:1033E0006429104438630CD190FBF1F1CBF8001044
:1033F0003C63FC6205E0D9F80010DAF80000FFF742
:1034000089FC002067E700207047000000806640CC
:10341000F1D4C853FB210940333383411C00002001
:1034200088010020900100209601002000802142A8
:10343000140401402000002024000020800000200F
:103440004500002044000020340000203C00002003
:1034500038000020280000202C0000200CE5FFFF91
:1034600048000020140000202DE9F34FBF4E85B026
:103470000846F168BC4D049104F0E0FE316800910B
:1034800004F0D4FDB16804F0FFFB06F1640402907F
:1034900067682846394604F0D1FED4F808904946BA
:1034A00004F0CCFEB24A1060E168884681F0004525
:1034B000B0495560C2E90251009904F0B7FD216896
:1034C00004F0E2FB83462846009904F0AFFD054670
:1034D000394604F0D9FB82462846494604F0D4FB1D
:1034E0008146A448009904F0A1FD414604F0CCFBBC
:1034F00080460299059804F0A1FE009059464FF0CD
:103500007E5004F093FD054649464FF07E5004F08E
:103510008DFD039029464FF07E5004F087FD4FF05B
:103520007C5104F0B1FB07460146284604F020FC1C
:1035300001903946039804F01BFC039051464FF06C
:103540007E5004F073FD07462946019804F06EFD95
:10355000594604F068FE20603946019804F066FD83
:10356000514604F060FE60602946039804F05EFD59
:10357000494604F058FEA0603946039804F056FD11
:10358000414604F050FEE060DDE9001004F04EFD1D
:10359000029904F079FBB06004460099039804F0A6
:1035A00045FD049904F070FBF060204607B0BDE8CB
:1035B000F08F2DE9F0416D4C0A4607466E4E1046DD
:1035C000216804F033FD216B04F05EFB01466B487B
:1035D00004F02CFD05463146384604F027FD294607
:1035E00004F052FB2063BDE8F0812DE9F34F5F4EFC
:1035F00085B00846F16B5C4D049104F01FFE316804
:10360000009104F013FDB16B04F03EFB06F174046D
:10361000029067682846394604F010FED4F80890F6
:10362000494604F00BFE524A10321060E1688846A9
:1036300081F000454F495560C2E90251009904F0FC
:10364000F5FC216804F020FB83462846009904F02D
:10365000EDFC0546394604F017FB824628464946EC
:1036600004F012FB81464348009904F0DFFC414618
:1036700004F00AFB80460299059804F0DFFD0090F3
:1036800059464FF07E5004F0D1FC054649464FF0B4
:103690007E5004F0CBFC039029464FF07E5004F09E
:1036A000C5FC4FF07C5104F0EFFA0746014628466E
:1036B00004F05EFB01903946039804F059FB039037
:1036C00051464FF07E5004F0B1FC07462946019860
:1036D00004F0ACFC594604F0A6FD20603946019880
:1036E00004F0A4FC514604F09EFD60602946039856
:1036F00004F09CFC494604F096FDA060394603980E
:1037000004F094FC414604F08EFDE060DDE9001019
:1037100004F08CFC029904F0B7FAB06304460099F7
:10372000039804F083FC049904F0AEFAF063204699
:103730003CE72DE9F0410D4C0A4607460E4E104677
:10374000216804F073FC216E04F09EFA01460B48D8
:1037500004F06CFC05463146384604F067FC294607
:1037600004F092FA20663EE76F12833AC40000200C
:10377000E8010020A69B443B0AD7A33C48E17A3FDE
:10378000F8B5FA4C0023224694F82460D2E90012DE
:103790005D1E56B190B102200DE01078C97B6B46DA
:1037A0000122FFF72DF960B90DE0A67A4EB128B1DC
:1037B000607C58B901208DF80000EEE78DF80030EC
:1037C000EBE72846F8BD9DF8000060740020F8BDC6
:1037D00038B50024E54D12E02868C27AA2420CD028
:1037E000407DA04209D008786B4601222146FFF7B0
:1037F00063F910B14FF0FF3038BD641CE4B2696862
:103800000879A042E8D8002038BDD84A30B40B4629
:1038100011684FF0FF34CD7A854206D0497D814250
:1038200003D051680A79824202D8204630BC7047E2
:103830000C780146204630BC0122FFF73DB938B56F
:10384000CA4D044695F82300A04201D1002038BD9E
:103850000CB1302000E000208DF80000A87C28B1D9
:103860009DF8000040F002008DF8000095F822005D
:1038700028B19DF8000040F080008DF80000286815
:103880006B460122017D68680078FFF7B9F810B136
:103890004FF0FF3038BD85F82340D7E7F8B5044630
:1038A00010F0700F4FF0000601D0012004E014B1B9
:1038B0008DF8006002E040208DF80000AB4D6B46B3
:1038C00001222868817C68680078FFF799F84FF03A
:1038D000FF3760BB9DF8000020F0400028738DF892
:1038E0000060600602D404208DF80000A00605D414
:1038F0009DF8000040F002008DF80000E00605D4BD
:103900009DF8000040F001008DF80000200705D46C
:103910009DF8000040F038008DF8000028686B46E4
:103920000122C17C68680078FFF76AF810B1AE72B6
:103930003846F8BD24B1082C02D00020FFF77FFFE5
:10394000AC722E753220FEF7A7F90020F8BDF8B54D
:10395000864D0446A87CA04201D10020F8BD8348D2
:103960004FF0FF366B46D0E900104FF001020979A5
:10397000007834B3FFF7A0F8D8BB9DF800006B4681
:1039800020F020008DF80000286801220179686885
:103990000078FFF735F860BB0320FEF77DF90220C1
:1039A0008DF8000095F8220070B382202AE0286884
:1039B0006B460122017D68680078FFF721F8C0B9E5
:1039C0002DE0FFF779F8A0B9A87AC0079DF80000AC
:1039D00002D040F0200001E020F020008DF800002F
:1039E00028686B460122017968680078FFF708F8BB
:1039F00008B13046F8BD0320FEF74EF995F82200D5
:103A000000B180208DF8000095F823000028CED06A
:103A10009DF8000040F030008DF80000C7E7AC745E
:103A20009BE7F8B5514D4FF0FF36A87A00287CD0BF
:103A300000248DF8004028686B460122C17B68682D
:103A40000078FEF7DDFF00286FD128686B46012261
:103A5000417968680078FEF7D3FF002865D12868AF
:103A60006B460122017968680078FEF7C9FF0028DB
:103A70007AD195F82400C8B30C208DF8000028688E
:103A80006B460122017968680078FEF7B9FF0028CB
:103A90006AD1C0208DF80000A87AC00702D0E020CB
:103AA0008DF8000028686B4601220179686800786B
:103AB000FEF7A6FF002857D1687C18B102208DF8C8
:103AC000000001E08DF8004028686B460122C17BB0
:103AD00068680078FEF794FF38BB8DF800402868CE
:103AE0006B46012241796868007839E0FFE70420DD
:103AF0008DF8000028686B4601220179686800781B
:103B0000FEF77EFF88B9A87C80B9A87AC0070DD0DF
:103B100060208DF8000028686B46012201796868F2
:103B20000078FEF76DFF00B902E01DE04020F0E7ED
:103B3000687C18B101208DF8000001E08DF800408C
:103B400028686B460122C17B68680078FEF758FF41
:103B500050B92868054B0122417968681033007814
:103B6000FEF74EFF002800D03046F8BD4801002087
:103B70002DE9F041FF4D20F00104002695F82400C6
:103B800010B10020BDE8F081A87A4FF0FF3838B1BD
:103B900020402F7C2874A04200D0464624B901E082
:103BA0004046EFE7287D40B10120FFF7E9FD3CB139
:103BB000FFF737FF20B12F74F2E70020FFF7E0FD99
:103BC0003046DFE738B5EB4C4FF0FF35A17A31B323
:103BD000BC2801D3012010E0622801D302200CE0B0
:103BE0002A2801D3032008E0142801D3042004E08C
:103BF0000A2801D3052000E006208DF80000E07AB5
:103C00009DF80010884201D1002038BD20686B4625
:103C10000122817860680078FEF7F2FE08B128463C
:103C200038BD9DF80000E072EEE72DE9F843044648
:103C30004FF0FF39282844D80727CE4D00267CB105
:103C40000120FFF7FCFD20208DF800004FF0010857
:103C5000012C17D0052C18D88DF8018005201FE005
:103C60000020FFF7ECFD8DF800608DF801702868EA
:103C70006B460222817C68680078FEF7C1FE00BBBB
:103C80002E7529E08DF80160E8E7142C04D8022095
:103C90008DF801000A2003E003208DF801001420B4
:103CA000FFF790FF9DF801006B4607EB80108DF841
:103CB000010028680222817C68680078FEF7A0FE77
:103CC00010B14846BDE8F8830820A8722E7385F825
:103CD00014800020FFF74CFF0020F3E7F8B5A54D56
:103CE00004464FF0FF37A87A28B395F8240010BB9C
:103CF000287D48B12CB1282C03D8E0B2FFF795FFFE
:103D000024E00020FFF791FF4FF47A76042C01D2D3
:103D1000042402E0B44200D93446B6FBF4F0401E5D
:103D20008DF8000028686B460122417868680078A9
:103D3000FEF766FE08B1384617E79DF80000401C04
:103D4000B6FBF0F0E8814008FFF73CFF00200CE7ED
:103D500038B5884C4FF0FF35A17A19B3022806D048
:103D6000042806D008280ED010281BD10DE0002012
:103D700000E008208DF80000607A9DF80010B0EB9C
:103D8000D10F04D005E01020F4E71820F2E700205E
:103D900038BD20686B460122C17960680078FEF763
:103DA0002FFE08B1284638BD9DF80000C00860729B
:103DB000EDE738B56F4C4FF0FF35A17A31B3FA28F3
:103DC00009D0B0F5FA7F08D0B0F57A7F0FD0B0F502
:103DD000FA6F1BD10DE0002000E008208DF80000F4
:103DE000207A9DF80010B0EBD10F04D005E0102030
:103DF000F4E71820F2E7002038BD20686B46012266
:103E0000817960680078FEF7FBFD08B1284638BD6F
:103E10009DF80000C0082072EDE72DE9FC41554CEB
:103E200080208DF8000020686B460122817C60684C
:103E30000078FEF7E5FD4FF0FF37002832D164200F
:103E4000FDF72AFF00258DF8005020686B460122FF
:103E5000817C60680078FEF7D3FD002870D120686F
:103E60006B460622817D60680078FEF725FE0028FB
:103E700066D19DF805009DF80310C007400F01F0C2
:103E8000010140EA41019DF801004FF0010600F0F8
:103E90000100014309D0012905D0022915D036A01F
:103EA00002F026F84CE0E67410E020686B46012230
:103EB000C17860680078FEF7FFFD40BB9DF8000008
:103EC00010F00F0020D0042822D0E574FF2004F861
:103ED0000A0F4FF6FF7104F8020C04F8010C607031
:103EE000A180A0712072A67026766576E572A57213
:103EF000E56025616561A576E576A5834FF4FA60F6
:103F0000FFF757FF18B907E0254801F0F1FF17E068
:103F100024A001F0EDFFC6E70220FFF719FF78B9F2
:103F20002A20FFF74FFE58B93220FFF7D7FE38B9E5
:103F30000020FFF71DFE18B90020FFF708FD10B1A3
:103F40003846BDE8FC810020FFF7A8FC0020F8E718
:103F500070477CB5044607484FF0FF35817A11F071
:103F6000700F32D0016840686B46097B00780622EA
:103F700028E0000048010020556E737570706F7264
:103F800074656420736F6674776172652070726FF8
:103F900064756374207265762025642E0A00000023
:103FA0006C92000848616C662073656E7369746971
:103FB00076697479207061727420666F756E642EF4
:103FC0000D0A0000FEF778FD08B128467CBDBDF85B
:103FD000000040BA2080BDF8020040BA6080BDF801
:103FE000040040BAA08000207CBD7CB50446FE4899
:103FF0004FF0FF35817A090708D5016840686B46A4
:10400000497B00780622FEF757FD08B128467CBDA3
:10401000BDF8000040BA2080BDF8020040BA6080C0
:10402000BDF8040040BAA08000207CBDF8B5EE4C7D
:1040300007464FF0FF35A07A40B120686B46022258
:10404000817B60680078FEF737FD08B128468CE573
:10405000BDF80000646840BA05B2E08803F09EFF36
:104060000646B4F9080003F081FF0446284603F031
:104070007DFF214604F0E2F8314603F079FEDB498A
:1040800003F002FE102104F0AEF903F033FF3860B4
:1040900000206AE52DE9FC4104004FF0FF3862D0B2
:1040A000206820B9606810B9A06800285CD0CE4FA5
:1040B00003226B46786811460078FEF7FDFCE0BBF2
:1040C0009DF80010082000EB111101F00F029DF87F
:1040D00001109DF8023000EB111100EB1310236862
:1040E00040325B0093FBF2F216B2626801F00F01FE
:1040F0005200403192FBF1F10DB2A16800F00F00C7
:104100004900403091FBF0F004B2786806226B461B
:1041100000781146FEF7D0FC78B9BDF80000BDF874
:10412000021040BABDF80420304449BA52BA030A1A
:10413000294422448DF8003000E014E08DF801009D
:10414000080A8DF80200100A8DF804008DF803109B
:104150008DF80520786806226B4600781146FEF738
:104160004FFC002800D04046EBE69F49097A39B160
:10417000012907D002290AD003290BD0002103E02E
:10418000FA2101E04FF4FA710180002070474FF4EA
:104190007A71F9E74FF4FA61F6E7934A517A41B13F
:1041A000012908D002290FD003290FD04FF0FF308A
:1041B0007047022100E004210170D17C11B1017827
:1041C00049000170002070470821F5E71021F3E74E
:1041D0008549C97A072913D2DFE801F01204060ADB
:1041E0000C0E1000BC2100E062210180002070470D
:1041F0002A21FAE71421F8E70A21F6E70521F4E776
:104200000021F2E7784991F8242012B14FF0FF30F5
:104210007047C98901800020704700210180481E35
:1042200070474FF0FF3070476F49097A41B101295B
:1042300008D002290AD003290AD04FF0FF30704776
:104240006B4900E06B490160002070476A49FAE75A
:104250006A49F8E7644A517A41B1012909D0022933
:1042600011D0032912D04FF0FF3070474FF4804136
:1042700001E041F69C710180D17C11B101884908AF
:104280000180002070474FF48051F4E74FF4006143
:10429000F1E75549097C0170002070475249897A3D
:1042A00001B1012101700020704738B505464E4824
:1042B0004FF0FF34817A41B1016840686B46097C58
:1042C00000780222FEF7F8FB08B1204638BDBDF8A1
:1042D000000040BA2880002038BD2DE9FE4F8846F6
:1042E00041498146002491F824001E4625464FF09E
:1042F000FF3BD0BB00203070887AB0B3087CA0B3FD
:10430000420600D50224820600D5A41CC20600D5B0
:10431000A41C000700D5A41D8A460968DAF8040029
:104320006B46897A00780222FEF7C6FBE8B9BDF831
:10433000000047BAA74263D3DAF804004188B7EB1C
:10434000510F13D9DAF8001000786B46497C01222E
:10435000FEF7B2FB48B99DF80000C00606D5FFF78E
:1043600060FB6FF00100BDE8FE8F0AE0DAF8001094
:10437000DAF804006B46C97A00782246FEF79CFB07
:1043800008B15846EFE7B7FBF4F00C99401E0870EF
:1043900000203070A4B39AF8101050460A076946FE
:1043A00013D5BDF80020062552BAA8F80020BDF8A4
:1043B000022052BAA8F80220BDF8042052BAA8F888
:1043C0000420327842F008023270A5421AD0027CF2
:1043D000520617D54A19128852BAA9F80020327825
:1043E00042F0400232700CE04801002000000C4214
:1043F00000000343000083423333034233338341DD
:104400001EE0AD1CA5420CD0027C920609D54A19CB
:10441000AD1C128852BAA9F80220327842F020026C
:104420003270A5420CD09AF81000C00608D5481981
:10443000008840BAA9F80400307840F010003070CD
:10444000002090E72DE9F843FA4E0546174696F806
:10445000240089464FF0FF3888B3B07A78B33068CB
:104460006B460222817A70680078FEF725FB30BB2C
:10447000BDF8000044BAAC4202D2002038701EE001
:1044800070684188B4EB510F10D9316800786B46E1
:10449000497C0122FEF710FB88B99DF80000C00698
:1044A00004D5FFF7BEFA6FF001000BE43068EAB202
:1044B0004B46C17A70680078FEF7FEFA08B14046B4
:1044C0000BE4B4FBF5F0401E3870002005E4D94938
:1044D00081F82200002070472DE9FE4F054601209B
:1044E000D44E8DF800004FF000088DF80180306840
:1044F0000C461746817C70686B4602220078FEF7F6
:104500007FFA4FF0FF3A00287AD1C820FDF7C4FBAC
:104510008DF8008030686B460122C17B706800789E
:10452000FEF76EFA0028EFD130686B460122417920
:1045300070680078FEF764FA0028E5D130686B46B1
:104540000122817C70680078FEF75AFA0028DBD1DE
:1045500030686B460122C17D70680078FEF750FA22
:104560000028D1D130686B4601220179706800784B
:10457000FEF746FA0028C7D14FF00C098DF80090DD
:1045800030686B460122017970680078FEF738FACE
:10459000002835D10F20FDF77FFBB06A6B46012262
:1045A000407A8DF800003068817870680078FEF7F6
:1045B00027FA002824D1B06A6B460122007A8DF8D0
:1045C00000003068417870680078FEF719FA00281A
:1045D00073D1B06A807A0FB140F0E0008DF800002E
:1045E00030686B460122817970680078FEF708FA1E
:1045F000002862D12FB1B06AC07A40F0E00001E03B
:104600004AE018208DF8000030686B460122C1791D
:1046100070680078FEF7F4F9F0BB17B1C820FDF719
:104620003BFB40208DF8000030686B460122017989
:1046300070680078FEF7E4F970BB78208DF8000010
:1046400030686B460122417970680078FEF7D8F92E
:1046500010BB3220FDF720FB8DF800803068474604
:104660006B464179706801220078FEF7C9F998B964
:1046700031687068B046897A00786B460222FEF78E
:104680001BFA48B9BDF80000AF6040BAB0FBF9F0C2
:104690006F60C6B22F6000E00FE0A7606760276020
:1046A000002738E0D8F80010D8F804006B46C97A23
:1046B00000780C22FEF700FA08B1504653E6BDF828
:1046C0000000236840BA02B2BDF802001A4440BAA2
:1046D00001B2BDF804002260626840BA1144616012
:1046E000A16800B20844A060BDF806002B6840BA7B
:1046F00002B2BDF808001A4440BA01B2BDF80A007F
:104700002A606A6840BA11446960A96800B2084426
:104710007F1CFFB2A860B742C4D328688322C117A8
:10472000090441EA10410004002301F0BDFB3246B8
:10473000002301F0B9FB286068688322C1170904CF
:1047400041EA10410004002301F0AEFB3246002391
:1047500001F0AAFB6860A8688322C117090441EA36
:1047600010410004002301F09FFB3246002301F0BA
:104770009BFBA86020684FF40065C117090441EA5B
:10478000104100042A46002301F08EFB324600232C
:1047900001F08AFB206060682A46C117090441EADB
:1047A00010410004002301F07FFB3246002301F09A
:1047B0007BFB6060A0682A46C117090441EA1041EA
:1047C0000004002301F070FB3246002301F06CFB73
:1047D000A060002802DDA0F5803001E000F5803007
:1047E000A0600020BFE538B5124C94F82410814237
:1047F0001DD00025E8B194F82500E8B10020FEF7AF
:10480000BFFF0020FFF7A3F8E08CFFF767FA8DF8F1
:10481000005060686B46012200782321FEF7F0F813
:10482000012084F82400FEF7ABFFFFF7FAF8002020
:1048300038BD04E0480100204FF0FF30F8E70020C9
:10484000FEF79EFF207C8DF8000060686B46012219
:1048500000782321FEF7D4F884F82450E5E72DE909
:10486000F047FA4E82468AB096F824000F4620B1EF
:104870000020FFF7B8FF012500E0002507A8FFF79B
:1048800074FC06A8FFF789FC09A8FFF7A1FC08A89B
:10489000FFF7B8FC96F80A9096F8108000240022E2
:1048A00039465046FFF718FE10B1641C022CF6DBA7
:1048B000022C1AD00024012203A96846FFF70CFE3F
:1048C00010B1641C022CF6DB022C0ED003A9384672
:1048D00000F0BEF9C7B26946504600F0F0F910F09A
:1048E000FF0F4FF0000402D002E0002403E0012497
:1048F0000FB944F00204FF2030727072F0724FF66C
:10490000FF71F181B072307401203073BDF81C006A
:10491000FFF74FFA9DF81800FFF71AFABDF82400C8
:10492000FFF750F9BDF82000FFF7D8F94846FEF729
:10493000B5FF4046FFF71CF915B10120FFF753FF03
:104940000AB02046BDE8F087F8B517000D464FF0D5
:10495000FF341FD0BD4EB17AE1B1010A8DF80010CD
:10496000C0B28DF80100411970684289914211D896
:10497000316800786B46097E0222FEF741F848B99B
:104980003068EAB23B46417D70680078FEF738F83F
:10499000002800D02046F8BDF8B517000D464FF0AE
:1049A000FF341FD0A94EB17AE1B1010A8DF8001091
:1049B000C0B28DF80100411970684289914211D846
:1049C000316800786B46097E0222FEF719F848B973
:1049D0003068EAB23B46417D70680078FEF76CF8BB
:1049E000002800D02046F8BD2DE9FF4FDFF85CA27B
:1049F000054685B09AF82500914688464FF0FF3B62
:104A0000C0BBB8F1000F35D000241FE0281B1028D0
:104A100000DD102086B208EB04073A4631462046F6
:104A2000FFF792FF30BB6A4631462046FFF7B4FFDE
:104A300000BB38463246694601F0AEFB20B16FF04C
:104A4000010009B0BDE8F08FA01984B2AC42DDD3FB
:104A50004FEA19208DF810008DF81190DAF8000057
:104A6000544604AB817EDAF8040002220078FDF798
:104A7000C7FF08B15846E4E7012084F825000898EC
:104A8000E0840020DDE7714991F8241001700020D6
:104A900070474FF0FF3070474FF0FF3070472DE9FF
:104AA000F84F6A4C0F4604F1160115004FF0FF3B1A
:104AB0008A464FF000094FF0010877D0B0F5FF5F4C
:104AC00001D9FF2605E0202801D2012601E0C0F32C
:104AD000471607B90127282D6AD8607DF0B994F8E8
:104AE000240028B10020FFF77EFE84F8208001E03A
:104AF00084F820905046FFF738FB54481830FFF7F1
:104B00004CFB52481A30FFF763FB50481C30FFF74C
:104B100079FBA07AA0774D48217CC1770020FEF771
:104B20002FFE0020FFF781F88DF8009020686B467B
:104B30000122817860680078FDF762FF002837D194
:104B400040208DF8000020686B460122C17B606820
:104B50000078FDF755FF50BB8DF800608DF80170AF
:104B600020686B460222017A60680078FDF748FFF2
:104B7000E8B90520FDF790F8607A072606EBC0003B
:104B80008DF8000020686B460122C17960680078CA
:104B9000FDF736FF58B920208DF80000012D08D010
:104BA000052D0AD840468DF801800DE01DE01FE07C
:104BB00049E048468DF8019006E0142D01D8022006
:104BC00000E003208DF80100C0B206EB80108DF8E4
:104BD000010020686B460222817C60680078FDF746
:104BE0000FFF28B984F8158027E000200A5C3AB34B
:104BF000FF2020726072E0724FF6FF71E181A072B7
:104C0000207484F80C80A07FFEF748FEE08AFFF74E
:104C1000D0F8207EFFF79CF8608BFEF7D3FFA08BC7
:104C2000FFF75CF8E07FFEF7A3FF94F8200010B1D7
:104C30000120FFF7D8FD84F815900020BDE8F88F1B
:104C4000401C0C28D2D35846F8E700004801002049
:104C50002DE9FE4F80460F460025684600F08FF88C
:104C600000246FF00F0AE946012658F8240057F88F
:104C70002410401A00D5404203F078F9514603F061
:104C8000B2FB59F8241011F0FF4F0BD003F070F86D
:104C90004FF07E5103F0D2FA604920F00040884284
:104CA00005DC07E05E4908445E49884202D306FA03
:104CB00004F00543641C032CD7DB2846FEE42DE9F1
:104CC000F84F824658488946002540686B460322C3
:104CD00000780D21FDF7F0FE08B10720AEE79DF842
:104CE0000000002400F01F008DF800009DF8010076
:104CF0006F4600F01F008DF801009DF802004FF094
:104D0000010800F01F008DF802005AF8241059F82D
:104D10002400081A00D5404203F028F96FF00F0173
:104D200003F061FB0646385DE0B1404ADFF800B1B0
:104D300004E05946104603F079F90246385D401EFA
:104D400010F0FF003855F4D11146304603F010F84A
:104D50004FF07E5103F072FA304920F00040884253
:104D600005DC07E033483044B0F1D97F02D908FAB6
:104D700004F00543641C032CC7DB28465EE72DE9DD
:104D8000FC47054628486B46042240680D21007800
:104D9000FDF792FE10B10720BDE8FC879DF80000EA
:104DA0001C2101EAD0029DF80300DFF88C90C0F3CB
:104DB00001131A438DF804209DF80120C0F38103EC
:104DC00001EAD2021A438DF805209DF8022000F076
:104DD000030001EAD20101430024184F8DF80610A8
:104DE000A04601AE305D10B145F8249009E045F8C9
:104DF00024800CE055F82400394603F017F945F8F3
:104E00002400305D401E10F0FF003055F2D1641CCC
:104E1000E4B2032CE6D30020BEE70000295C0F3E7D
:104E2000666666C19A99D900480100200000C84111
:104E300054E3853F0000E0BE7B14AE3E1D5A843F24
:104E4000C8234FF48062FE4940F6F630FFF7CCBD30
:104E50002DE9FF410446FBA002AB00680290FAA0D6
:104E600000680390F9A00668F9A0056804F0030043
:104E7000195C8DF80010C4F3C1015A5C8DF8012053
:104E8000C4F381129B5C8DF8023003AB185C8DF883
:104E90000400585C8DF80500985C8DF806006A46A1
:104EA000032140F22640FFF74FFD4FF0FF37E0BBF4
:104EB00001AA032140F22A40FFF746FDA8BBCDE935
:104EC000006560070BD59DF8000040F001008DF8EB
:104ED00000009DF8040040F001008DF80400A006D9
:104EE0000BD59DF8010040F001008DF801009DF800
:104EF000050040F001008DF80500E0050BD59DF898
:104F0000020040F001008DF802009DF8060040F01C
:104F100001008DF806006A4603214FF48860FFF710
:104F200013FD10B901AA032100E004E040F2314072
:104F3000FFF70AFD18B1384604B0BDE8F081C54856
:104F400004810020F8E7F8B5C249098901F003029D
:104F500050F822404A0700D56442C1F3C10250F81C
:104F600022308A0600D55B42C1F3811250F822201C
:104F7000C80500D55242B84984FB0140850045EA86
:104F8000947083FB014382FB0121950F45EA810563
:104F9000010E8DF80010010C8DF80110010A8DF83A
:104FA0000210A40F8DF8030044EA83046A4604212A
:104FB0004FF47470FFF7C8FC4FF0FF3688B9200E2D
:104FC0008DF80000200C8DF80100200A8DF80200F9
:104FD0008DF803406A4604214FF47570FFF7B4FC66
:104FE00008B13046F8BD280E8DF80000280C8DF869
:104FF0000100280A8DF802008DF803506A4604214A
:105000004FF47670FFF7A0FCF8BD2DE9FF41044690
:1050100003A8FFF71FF9BDF80C00420CC3038D482D
:10502000018901F003004D0754F8200000D54042EB
:10503000C1F3C1058E0654F8255000D56D42C1F369
:105040008116C90554F8264000D56442A0FB0367C9
:10505000C11701FB037100FB0210810041EA967049
:10506000A5FB0367E91701FB037105FB02118D0026
:1050700045EA9671A4FB0367E51705FB037304FB80
:105080000232930043EA9672030E8DF80030030C4F
:105090008DF80130030A8DF802308DF80300080EF8
:1050A0008DF80400080C8DF80500080A8DF806003C
:1050B000100E8DF80800100C8DF80900100A8DF8FC
:1050C0000A008DF807108DF80B206A460C214FF46A
:1050D0002570FFF739FC2FE730B504465FA185B096
:1050E00007C98DE807004FF0FF35C82C16D8C82037
:1050F000B0FBF4F1491E080A8DF80C008DF80D1074
:1051000003AA022140F21620FFF71EFC30B96A46BE
:105110000C2140F6C120FFF717FC10B1284605B05E
:1051200030BD4C4884810020F9E74A4989890180D3
:10513000002070472DE9FC41054640074FF0FF363F
:105140007CD0B1F5C86F79D8084602F027FF4649F0
:1051500002F00EFE074601A8FFF71FF89DF80400B5
:10516000022806D004280DD008282ED0102865D19A
:1051700034E00E21384603F036F902F0D7FE84B24F
:105180003A4907E00D21384603F02DF902F0CEFE32
:10519000374984B2384602F049FF02F0C7FE210ABF
:1051A0008DF8001080B28DF80140010A8DF80210D0
:1051B0008DF80300E8076C4620D0224602214FF408
:1051C000EA70FFF7C1FBC8BB11E00C21384603F0C1
:1051D0000AF902F0ABFE84B22649DBE70B21384620
:1051E00003F001F902F0A2FE84B22349D2E7A21C27
:1051F00002214FF49270FFF7A7FBF8B9A8070DD56D
:105200006A4602214FF4EC70FFF79EFBB0B9A21C76
:1052100002214FF49470FFF797FB78B9680731D5F6
:105220006A4602214FF4EE70FFF78EFB30B9A21CE4
:1052300002214FF49670FFF787FB1FE01FE000008C
:10524000B48400084CCD6C000CC92C003656760096
:10525000264666000802002009E3CA02FEF2ABC43B
:10526000AAF1DFDFBBAFDFDF0000484300004046AC
:105270000000C045000040450000C04410B1304669
:10528000BDE8FC810020FBE708B500218DF8001087
:10529000C10702D030218DF80010810705D59DF897
:1052A000001041F00C018DF80010400705D59DF865
:1052B000000040F003008DF800006A4601214FF421
:1052C000A470FFF741FB08BD08B560B1042800D900
:1052D0000420401E8DF800006A46012140F24F1064
:1052E000FFF732FB08BD0120F3E70521B0FBF1F029
:1052F00008B5010A8DF800108DF801006A460221F8
:105300004FF4EF70FFF720FB08BD0521B0FBF1F073
:1053100008B5010A8DF800108DF801006A460221D7
:105320004FF4ED70FFF710FB08BD4FF47A7290FB5D
:10533000F2F008B54843010E8DF80010010C8DF80D
:105340000110010A8DF802108DF803006A4604214D
:105350004FF4AE70FFF7F8FA08BD0521B0FBF1F08D
:1053600008B5010A8DF800108DF801006A46022187
:105370004FF4AD70FFF7E8FA08BD0521B0FBF1F07E
:1053800008B5010A8DF800108DF801006A46022167
:105390004FF4AC70FFF7D8FA08BD38B504004FF0F1
:1053A000FF3506D06A4604214FF45870FFF7F4FA2F
:1053B00008B1284638BD00989DF8031000BA20F0C7
:1053C000FF0008432060002038BD08B5010E8DF8AD
:1053D0000010010C8DF80110010A8DF802108DF8F3
:1053E00003006A4604214FF45870FFF7ADFA08BD78
:1053F00038B504004FF0FF3506D06A4604214FF45B
:105400007170FFF7C9FA08B1284638BD009800BA94
:1054100020F0FF019DF80300014301EB81008000B3
:105420002060002038BD1421B0FBF1F008B5010E5A
:105430008DF80010010C8DF80110010A8DF8021092
:105440008DF803006A4604214FF47170FFF77CFA6F
:1054500008BD08B560B120208DF8000028208DF827
:10546000010030208DF8020038208DF8030004E0A0
:10547000A3220421684600F0BBFE6A46042140F6E0
:105480009E20FFF761FAFEF7CCFA08BD08B560B1BF
:10549000C0208DF80000C2208DF80100C4208DF8D6
:1054A0000200C6208DF8030004E08B220421684628
:1054B00000F09EFE6A46042140F69820FFF744FA69
:1054C000FEF7AFFA08BD0EB54FF4976308B1E1A03F
:1054D00000E0E3A007C88DE807006A4609211846E6
:1054E000FFF732FA0EBD3EB5044602208DF80000EB
:1054F000CA208DF80100E3208DF8020009208DF804
:1055000003006A4604216820FFF71EFAA3208DF8E5
:105510000000610609D5C0218DF80110C8218DF861
:105520000210C2218DF8031005E08DF801008DF8FE
:1055300002008DF8030014F4C07F09D0C4218DF857
:105540000410CC218DF80510C6218DF8061005E059
:105550008DF804008DF805008DF806008DF8080020
:105560008DF807008DF809006A460A2140F6A72049
:10557000FFF7EAF9A0074FF0D80503D020208DF8F7
:10558000000001E08DF800506A46012140F6B62087
:10559000FFF7DAF9A00601D5012000E00020FFF7AF
:1055A00092FF14F4C07F1ED0E0050AD5B2208DF81A
:1055B00000008B208DF80100B6208DF802009B20A2
:1055C00009E0B0208DF8000080208DF80100B420A3
:1055D0008DF8020090208DF803006A46042140F601
:1055E000A220FFF7B1F9E0074FF40B6323D0F820B6
:1055F0008DF800006A4601211846FFF7A5F9FA2147
:105600000720FFF797FD0720FFF73EFE0120FFF779
:105610005BFE6420FFF769FE4FF4FA70FFF775FE3A
:10562000C8219248FFF781FE2820FFF796FE0A2046
:10563000FFF7A3FE06E08DF800506A4601211846E8
:10564000FFF782F9A00703D5D9208DF8000001E00B
:105650008DF800506A46012140F23D70FFF774F961
:10566000600701D5012000E00020FFF70FFFE006F2
:1056700001D5012000E00020FFF7EBFE7C4D44F057
:1056800008006881FEF7CDF90020A873600601D5F7
:105690000620A87314F4C07F02D0A87B801DA873D5
:1056A00014F0140F02D0A87B1030A873A00702D00A
:1056B000A87B001DA87300203EBD6D49498901806B
:1056C0000020704700B56BA187B00EC98DE80E00B1
:1056D0006BA10DF10C0C0EC98CE80E0040F6822374
:1056E000012807D0022803D04FF0FF3007B000BDDB
:1056F0006A4600E003AA0B211846FFF725F9F5E7F3
:105700002DE9FF4F89B01646DDE916520024DFF877
:1057100060810F4681462C80A24698F80E006946AB
:10572000FEF790FE4FF0FF3B18B158460DB0BDE8B4
:10573000F08FB8F80A0010F0140F3CD0009909BAA5
:1057400021F0FF0C9DF803104CEA010CC6F800C0D4
:10575000019909BA21F0FF039DF807100B4373600C
:1057600002999DF80B2009BA21F0FF011143B160A5
:10577000039A9DF80F4012BA22F0FF022243F26012
:105780004FEA2C4609141B1412147643494303FBB9
:10579000036302FB021119441024A1F17061B1F1FD
:1057A000007F04D9FEF73DF9A5F800A0BDE72988E0
:1057B00041F48071298041066A460ED51119A41D55
:1057C0000B885BBA3B804B885BBA7B80898849BA7F
:1057D000B980298841F00801298010F4C07F11D0D8
:1057E0001119A41D0B885BBAA9F800304B885BBA6D
:1057F000A9F80230898849BAA9F80410298841F02B
:1058000070012980800718D01444E07800F0C005AA
:1058100000F03F016078C00707D0C80801F0070119
:10582000D8F80020491C02B190476078000704D5E1
:10583000D8F8041009B1A80988470C98FEF788FB2E
:10584000002073E70A490860002070470849486053
:1058500000207047B8AAB38DB4980D355D000000E4
:10586000B8AAAAAAB088C3C5C700000009E3CA0243
:1058700008020020D8B1B9F38BA391B609B4D900BE
:10588000DAB1B9F38BA391B6DAB4DA0090F900106B
:10589000002902DD4FF00000704702DA4FF00400EB
:1058A000704790F90110002902DD4FF001007047A8
:1058B00002DA4FF00500704790F90200002802DD7F
:1058C0004FF00200704702DA4FF0060070474FF0C9
:1058D00007007047F0B5FC4FDDE905EC012507EB4B
:1058E000450437F8156024F8026CE68AA682A68D76
:1058F0006685B4F84260A4F84060B4F85860A4F833
:1059000056606D1CB4F86E60EDB2A4F86C600A2DA0
:10591000E5D378823985FA87A7F85430A7F86AE08A
:105920000021A7F880C0084637F91020401CC0B2FB
:1059300011440A28F8D30A2291FBF2F0B882002120
:10594000084607EB4003401CB3F91630C0B21944B7
:105950000A28F6D391FBF2F078850021084607EB80
:105960004003401CB3F92C30C0B219440A28F6D3C6
:1059700091FBF2F0A7F840000021084607EB400336
:10598000401CB3F94230C0B219440A28F6D391FB47
:10599000F2F0A7F856000021084607EB4003401C30
:1059A000B3F95830C0B219440A28F6D391FBF2F08B
:1059B000A7F86C000021084607EB4003401CB3F930
:1059C0006E30C0B219440A28F6D391FBF2F0A7F862
:1059D0008200F0BD08B50323009002226B21D02085
:1059E000FDF71AF908BD08B50223009004221B2117
:1059F000D020FDF711F908BD08B50223009004225C
:105A00001C21D020FDF708F908BD034606226B21B2
:105A1000D020FDF730B9AC4B10B50E3B01227521FB
:105A2000D020FDF79EF8A8480E38007810BD10B5BC
:105A3000FFF7F1FF682801D0002010BD012010BD44
:105A4000034605226A21D020FDF715B9034601223D
:105A50003721D020FDF70FB910B50220FFF7BAFFAC
:105A60000320FFF7C0FF0020FFF7C6FF0020FFF76D
:105A7000CCFF0020FFF7E4FFBDE810400020E5E781
:105A800038B5002000906B46012275216820FDF793
:105A900013F88EA000F02CFA9DF80000682809D0B9
:105AA00093480168934A01F4E06111430160BFF338
:105AB0004F8FFEE7FEF7B1F9002849D17820FDF7B6
:105AC000EDFE10B981A000F013FA7820FEF750F82F
:105AD00010B989A000F00CFAC820FEF7FFF810B941
