:020000040800F2
:10000000F0170020B9020008133500080B3500086E
:100010000F3500080F240008AD370008000000006D
:100020000000000000000000000000004135000852
:1000300013240008000000001535000843350008AF
:10004000D3020008D3020008D3020008D30200083C
:10005000D3020008D3020008D3020008D30200082C
:10006000D3020008D3020008D3020008D30200081C
:10007000D3020008D3020008D3020008D30200080C
:10008000D3020008D3020008D3020008D3020008FC
:10009000D3020008D3020008D3020008D3020008EC
:1000A000D3020008D3020008D3020008D3020008DC
:1000B000D3020008D3020008D3020008D3020008CC
:1000C000D3020008D3020008D3020008D3020008BC
:1000D000D30200089D370008D3020008D3020008AD
:1000E000D3020008D3020008D3020008D30200089C
:1000F000D3020008D3020008D3020008D30200088C
:10010000D3020008D3020008D3020008D30200087B
:10011000D3020008D3020008D3020008D30200086B
:10012000D3020008D3020008D3020008D30200085B
:1001300000F002F800F0B0F80AA090E8000C824449
:100140008344AAF10107DA4501D100F0A5F8AFF226
:10015000090EBAE80F0013F0010F18BFFB1A43F0A5
:1001600001031847F0BB000010BC00000A444FF028
:10017000000C10F8013B13F0070408BF10F8014B06
:100180001D1108BF10F8015B641E05D010F8016B4B
:10019000641E01F8016BF9D113F0080F1EBF10F8AF
:1001A000014BAD1C0C1B09D16D1E58BF01F801CBD2
:1001B000FAD505E014F8016B01F8016B6D1EF9D555
:1001C0009142D6D37047000000230024002500266A
:1001D000103A28BF78C1FBD8520728BF30C148BFAA
:1001E0000B6070476E2900F0E684702900F087816B
:1001F00066290BF0848465290BF0818467290BF054
:100200007E8461290BF07D8403681B0A28BF41F0BE
:100210008001692900F0F880642900F0F5807529D3
:1002200000F0F2806F2900F0C085782900F053813A
:10023000E92900F05B85E42900F05885F52900F0F4
:100240005585EF2900F0BD85F82900F0528103683B
:10025000DB0928BF41F08001632900F0CA847329BB
:1002600000F0CF84E32901F02F82F32901F03482DA
:10027000002070471FB501F043FC0400002000215E
:100280000AF052FF401C6060002000210AF036FF97
:10029000E0601FBD10B510BD01F004FC1146FFF772
:1002A000E9FF04F0A3FE01F0E1FC03B4FFF7F2FF65
:1002B00003BC03F0D6FA000009488047094800470C
:1002C000FEE7FEE7FEE7FEE7FEE7FEE7FEE7FEE706
:1002D000FEE7FEE704480549054A064B7047000063
:1002E0004B35000831010008F0110020F017002004
:1002F000F0130020F0130020704710B54C1084EA72
:10030000530404D54042C1F1000138BF491E1B42CD
:1003100004D55242C3F1000338BF5B1E00F05EFB00
:1003200014F0804F04D04042C1F1000138BF491E93
:1003300014F0004F04D05242C3F1000338BF5B1EDB
:1003400010BD00000A46014900F060BC38000020E2
:100350000FB4044910B503AA029800F057FC10BC72
:100360005DF814FB3800002070B50446856900680C
:10037000C10601D5302600E02026C00707D070BD99
:10038000D4E9012130469047206A401C20626D1E4E
:10039000F6D570BD70B5044685690078C00707D1F1
:1003A00070BDD4E9012120209047206A401C2062C2
:1003B0006D1EF6D570BD70B50C460546012A05D0F8
:1003C0002878800600D5EA69002302E0012305E0D1
:1003D0005B1C934202D2E05C0028F9D1A869E618C0
:1003E000C01AA861286A184428622846FFF7BCFF93
:1003F00004E0D5E9012114F8010B9047B442F8D389
:100400002846FFF7C7FF70BD2DE9F04106460024DE
:1004100010687529314616A510D000F061FB002840
:1004200002DA404213A507E031688A0701D512A518
:1004300002E0490704D511A5012401E000F059FBB1
:1004400000210A2206F1240709E0B0FBF2FCB0FB10
:10045000F2F302FB1C00303078541846491C002887
:10046000F3D123462A463046BDE8F04100F04ABBAE
:10047000000000002D0000002B0000002000000004
:10048000F0B40D460188090502D5214C7C4402E0F8
:100490001F4C7C440E34002100F1240608E002F0D9
:1004A0000F071209E75D42EA03721B097754491CE2
:1004B00052EA0307F3D102780023120704D5702D06
:1004C00006D009B1022311342246F0BC00F01ABB59
:1004D00001231034F8E770B504460D462146106834
:1004E00000F007FB024629462046BDE87040002385
:1004F000C6E7D21D22F00703D3E90023C0E7036853
:10050000126843F0200303600823C3610023B7E7A8
:100510006EB700002DE9F05F894604464FF0000AEF
:10052000DFF874B1FB44C0F820A02046E16888479A
:10053000002874D0252806D0D4E901219047206AEC
:10054000401C2062F1E700265F462046E1688847AC
:100550002028054607DB312D05D2781910F8200C2C
:1005600008B10643F1E7B00701D526F00406C4F848
:100570001CA00027C4F818A02A2D09D0284603F093
:1005800069F938B304EB8708303DC8F8185019E012
:1005900059F8041B204604EB87029161E168884703
:1005A000012F054618D1E069002820DA26F0200640
:1005B0001DE0D8F8180000EB800005EB4000303853
:1005C000C8F818002046E1688847054603F042F95C
:1005D0000028EED1012F0AD02E2D08D12046E16847
:1005E00088477F1C0546022F46F02006C4DBA06921
:1005F000002803DA404246F00106A061F00701D06E
:1006000026F010066C2D0BD0682D09D04C2D39D05A
:100610006A2D35D0742D35D07A2D33D016E038E0E0
:10062000E1682F4620468847B842054609D16C2F1D
:1006300026D04FF48060E16806432046884705468F
:1006400004E06C2F1AD04FF4807006430DB3A5F16F
:100650004100192802D8203546F400664A4629464A
:10066000204626604E46FFF7BDFD80B101280BD025
:10067000F61D26F0070000F1080956E74020E4E7E0
:100680008020D8E70020D6E706F104094DE7284688
:1006900052E7206ABDE8F09FFEB600000FB400B537
:1006A0008DB010A9099000910B904FF0FF300A9087
:1006B00000200C90064878440690064878446A4624
:1006C00007900F9909A800F09BFB0DB05DF814FB93
:1006D000670700007F0700002DE9FF5F1D464FF010
:1006E000FF3B91464FF000085F46D5E90146A969F6
:1006F00001987F1C8847296A824688470028F6D1DE
:10070000BAF1FF3F0CD0002E24F4C06419DD60065E
:1007100014D5BAF12B0F09D0BAF12D0F0ED103E089
:10072000584604B0BDE8F09F44F48064A96901987C
:100730007F1C8847761E8246002E02DDBAF1300FFC
:1007400003D0B9F1000F26D032E0A969761E0198D6
:100750007F1C44F400748847002E824605DDBAF100
:10076000780F06D0BAF1580F03D0B9F1000F10D0AE
:100770001EE0B9F1000F02D0B9F1100F18D1A9692C
:10078000761E01987F1C24F400748847824610204E
:1007900002E0082000E00A20814609E0A96908FB80
:1007A0000908761E01987F1C44F40074884782462D
:1007B000002E05DD4946504600F00EFB0028EDDA1C
:1007C000E96901988847A00502D46FF00100A8E705
:1007D000E00725D1600613D5600502D5C8F10000F9
:1007E00000E0404629680A1D2A600968220501D5F3
:1007F000087015E0220701D5088011E008600FE0BD
:100800002868011D29600068210502D580F8008054
:1008100006E0210702D5A0F8008001E0C0F80080C2
:1008200038467EE740EA010310B59B070FD1042A42
:100830000DD310C808C9121F9C42F8D020BA19BAAB
:10084000884201D9012010BD4FF0FF3010BD1AB110
:10085000D30703D0521C07E0002010BD10F8013B65
:1008600011F8014B1B1B07D110F8013B11F8014B8C
:100870001B1B01D1921EF1D1184610BD032A40F274
:10088000308010F0030C00F0158011F8013BBCF132
:10089000020F624498BF11F801CB00F8013B38BF4A
:1008A00011F8013BA2F1040298BF00F801CB38BF58
:1008B00000F8013B11F0030300F0D282083AC0F0C7
:1008C000088051F8043B083A51F804CBA0E808101E
:1008D000F5E7121D5CBF51F8043B40F8043BAFF351
:1008E0000080D20724BF11F8013B11F801CB48BFAB
:1008F00011F8012B24BF00F8013B00F801CB48BFE1
:1009000000F8012B70474FF0000200B513469446E3
:100910009646203922BFA0E80C50A0E80C50B1F157
:100920002001BFF4F7AF090728BFA0E80C5048BF6B
:100930000CC05DF804EB890028BF40F8042B08BF09
:10094000704748BF20F8022B11F0804F18BF00F805
:10095000012B70474FF0013C50F8042B51F8043B39
:100960009A4221D1A2EB0C03934313EACC1317D183
:1009700050F8042B51F8043B9A4215D1A2EB0C031A
:10098000934313EACC130BD150F8042B51F8043BDA
:100990009A4209D1A2EB0C03934313EACC13DBD0A8
:1009A0004FF00000704700BFD01A01BAB1FA81F1D0
:1009B00001F0180122FA01F0CB40C1F12001DBB2B5
:1009C000C0B2C01A2CFA01F3D11A914311EAC31133
:1009D000E6D17047704770477047704753EA020C82
:1009E00000F069802DE9F04B4FF00006002B1FBF8F
:1009F000B3FA83F503FA05F424FA05F65E4012BF54
:100A00001643B2FA82F502FA05F4C5F120051EBFBD
:100A100022FA05FC44EA0C04203556EA044C4FEA5D
:100A2000144418BF641C4FF000084FF000099042B6
:100A300071EB030C39D3002919BFB1FA81F701FA20
:100A400007F6B0FA80F700FA07F6C7F120071EBFD5
:100A500020FA07FC46EA0C062037B6FBF4FCA7EBAD
:100A60000507103F07F01F0BCBF120060CFA0BFB1C
:100A70002CFA06F644BFB3460026202FA4BF5E46DC
:100A80004FF0000B5BEA060C08BF4FF0010B19EBAF
:100A90000B09ABFB027C48EB0608C01B06FB02CC33
:100AA0000BFB03CC71EB0C01C1E70B460246414640
:100AB0004846BDE8F08B13B54FF000004FF0000141
:100AC000AFF30080BDE81C40704710B500F0FAF9A4
:100AD000006810BD10B5044600F0F4F9046010BDC4
:100AE00009684A0501D540B27047C905FCD500B276
:100AF000704709684A0501D5C0B27047C905FCD5E1
:100B000080B270472DE9F0470D469946924604465B
:100B100000F124080168880604D5E06921F010017D
:100B2000216000E00120A84201DD471B00E0002712
:100B3000A1697A1902EB0900081AA0612078C006A1
:100B400002D42046FFF710FC002608E0D4E901217A
:100B50001AF806009047206A401C761C20624E4519
:100B6000F4DB2078C0060AD52046FFF7FDFB06E03F
:100B7000D4E9012130209047206A401C2062381EB1
:100B8000A7F10107F4DC07E0D4E9012118F805001A
:100B90009047206A401C2062281EA5F10105F3DC65
:100BA0002046FFF7F7FB2078000602D50220BDE8BB
:100BB000F0870120FBE711680268006A530501D540
:100BC00008700AE0D30501D5088006E0130603D5B6
:100BD000C217C1E9000200E008600120704710B5AB
:100BE000436913B1AFF3008001E0FFF7E4FB01209C
:100BF00010BD127800F124010A7000224A7001220F
:100C0000EDE711684FF0FF32E9E70000074B70B5E0
:100C10000D467B4400F03BFD0446284600F01AFFD9
:100C200010B14FF0FF3070BD204670BDDB3D0000BD
:100C30002DE9FF5F15468A460446DFF8AC80F8448C
:100C40000027D8E900103E46CDE9001010E03AF840
:100C500016106A4602A800F001FF411C07D0217857
:100C6000890603D5E269391891420DD80744761CEC
:100C70002078800602D5E069B84205DDAE42E6DBA9
:100C80003AF816000028E2D1A069C01BA0612046F6
:100C9000FFF76AFBD8E90010CDE90010002017E04B
:100CA0003AF818106A4602A800F0D8FEB0F1FF3FEB
:100CB00081460BD000250DF1080B05E0D4E9012198
:100CC0001BF8050090476D1C4D45F7D308F1010056
:100CD000B0428046E4DB206A384420622046FFF7B9
:100CE00059FBBDE8FF9F0000F6AF00002DE9F04181
:100CF0008046D21D22F007020025D2E90002F52924
:100D000015A614D0011E72F1000106DA0023D0EB03
:100D1000030063EB020211A608E0D8F800108B076D
:100D200001D50FA602E0490701D50EA601251146FF
:100D3000002408F1240704E000F0C8F830323A55E6
:100D4000641C50EA0102F7D12B4632462146404648
:100D5000BDE8F041FFF7D6BE000000002D00000006
:100D60002B0000002000000030B4002100F124041A
:100D700008E002F00705D208303542EA4372DB088A
:100D80006554491C52EA0305F3D10468002310A2FC
:100D9000250707D5A40600D421B1C46901230DA2FB
:100DA000641EC46130BCFFF7ADBE10B504462146D9
:100DB0001068FFF79EFE02462046BDE81040002363
:100DC000D2E7D21D22F00701D1E90023CCE70000D1
:100DD00000000000300000003A2800D2303820F037
:100DE0002002412A01D3A2F13700884201D34FF0FB
:100DF000FF3070470268114413780160184670474D
:100E0000D160054979445161044979441162002156
:100E10001161114600F064BCEDFFFFFF49010000C5
:100E2000426842B1016811F8013B23B1521EC0E98A
:100E30000012184670470121C160881E7047426841
:100E40005AB1C368016843B983688B4205D0491E13
:100E5000521CC0E90012002070474FF0FF3070476D
:100E600010B5203AC0F00B80B1E81850203AA0E845
:100E70001850B1E81850A0E81850BFF4F5AF5FEA79
:100E8000027C24BFB1E81850A0E8185044BF18C92C
:100E900018C0BDE810405FEA827C24BF51F8043BD3
:100EA00040F8043B08BF7047D20728BF31F8023B27
:100EB00048BF11F8012B28BF20F8023B48BF00F8BB
:100EC000012B7047004870479011002030B5B0F1F9
:100ED0000A024FEA900E71F100034EEA817EB0EBF8
:100EE0000E0061EB91014FEA101E4EEA017E10EBFD
:100EF0000E0041EB11114FEA102E4EEA016E10EB7D
:100F00000E0041EB11214FEA104E4EEA014E10EB5C
:100F10000E0041EB1141401841F100014FEAD000B1
:100F200040EA41704FEAD10110EB80054FEA81049D
:100F300044EA907444EB01046D1944EB0404521B21
:100F4000A3414FF0000348BF0A3200D530BD401C1A
:100F500041F1000130BD10B5044600F0C9FD006844
:100F6000005D00F0010010BD70472DE9FF4F0C46F9
:100F70001E464FF0FF378BB0D2E90001DDF86080EC
:100F80000A908A46C1F30A5505B93D460021084634
:100F90004FF00000BAF1000F00F4400005DA00EB5A
:100FA00080004FF4400101EA50004FEA9059B9F136
:100FB000010F00DDB9460A9850EA4A000ED044F607
:100FC0001050A5F2FF3545432F14B8F1000F1ED085
:100FD0007542291E1EDDC9F100021CE0B8F1010FA7
:100FE0004FF0000001D0302103E0F24305E021542E
:100FF000401CB042FBDB30460022002121540B99FB
:10100000C1F80880C1E900200FB0BDE8F08FBD1B1A
:101010006D1CDEE74A4600DA694206A800F0B4FD1E
:1010200006AB93E8070003AB83E8070050460A9934
:1010300000F025FE8DE80700A0F500501F38009055
:101040000398002D0ADD42F21F014A46084400239E
:1010500003A90390684601F08EF809E0A0F500505E
:101060004A461F38002303A90390684601F098F808
:101070008DE807000004000C03D04FF0FF3041085A
:1010800000E01046B8F1000F03D000220092154690
:101090001EE0751E05D4FFF719FF303262556D1E34
:1010A000F9D5B3460122084302D000227F1C04E098
:1010B0002078302801D100227F1E002A099784D091
:1010C0001DE0112D07DAFFF701FF303262556D1C6C
:1010D00050EA0102F5D1084302D00098C8B10EE0F1
:1010E0000021681E05E0235C625C63542254401EAC
:1010F000491C8142F7DBAB46A81B401E099000202B
:1011000004F80B000B98099AC0F80880C0E9002B7E
:101110007AE711264FF0000857E72DE9F04F88468F
:101120000446D21D22F0070191B0D1E90001CDE9BA
:101130000A0102F03DFB02460B98C00F01D02D20A2
:1011400007E02068810701D52B2002E0202101EA79
:10115000C000032A099001D0072A05DB0346414657
:10116000204600F0D1FC0BE12078800601D5E06933
:1011700000E00620B8F1650F814606D0B8F1660F91
:1011800018D0B8F1670F70D131E00020B9F1110F1C
:10119000009001DB112301E009F101030AAA01A972
:1011A0000CA8FFF7E2FEDDE90C70002609F101054D
:1011B000834647E001204B4600904FF000470AAAC3
:1011C00001A90CA8FFF7D1FEDDE90DB00C995D4631
:1011D000002610B909F101000D18B9EB050003D480
:1011E000C0F1FF3609F10105A5EB09002BE0B9F1CB
:1011F000010F01DA4FF001090020B9F1110F009041
:10120000484601DD112300E003460AAA01A90CA803
:10121000FFF7ABFEDDE90C704D46002683462078D3
:1012200000070AD4AB4500DA5D4601A8012D04DDB4
:10123000411911F8011C302907D04F4502DA17F186
:10124000040F04DA012082460FE06D1EEEE7002F46
:1012500002DCED1B3E4403E0781CA84200DD7D1C4F
:10126000B81B00F1010A4FF000472078000703D4B3
:10127000AA4501DB4FF0FF3A0021B7F1004F0DF115
:1012800043088DF8431024D002202B23002F01DACD
:101290007F422D230A21021EA0F1010000DC5FB174
:1012A00097FBF1FC97FBF1F201FB1C7C17460CF15C
:1012B000300C08F801CDEEE7A8F101000370218899
:1012C000090501D5452100E06521A0F1010800F8DC
:1012D000011C09980FA9A1EB0807FF1D00B101200F
:1012E000411901EBEA70A1693844081A401EA06157
:1012F0002078C00602D42046FFF736F8099828B1B6
:10130000D4E901219047206A401C20622078C00661
:1013100022D52046FFF728F81EE0002E04DBB34557
:1013200002DD01A8805D00E03020D4E90121904772
:10133000206A401C2062761CAAF101005FEA000AC4
:101340000AD100F0DDFBC0680168405CD4E90121EE
:101350009047206A401C2062281EA5F10105DCDCB4
:1013600007E0D4E9012118F8010B9047206A401CDE
:101370002062381EA7F10107F3DC2046FFF70AF8C8
:10138000032011B041E600002DE9F04F04460D4660
:10139000D21D22F0070089B0D0E9009748463946AF
:1013A00002F006FA0246F80F01D02D2307E020686C
:1013B000810701D52B2302E0202101EAC0038DF82B
:1013C00020300BB1012000E00020032A824601D02A
:1013D000072A04DB2946204600F096FB3FE12078EF
:1013E000800601D40D2500E0E569C7F30A560D2DEE
:1013F00049DA00214FEA175B08464FF00000002F42
:1014000000F4400007DA00EB80004FF4400100EBED
:10141000D07001EA60008115012901DD4FF0FF3134
:1014200000224FEA850CBCF1180F06D31346ACF12D
:1014300018004FF08052C24003E04FF4801323FAAB
:101440000CF30CF10C0CBCF1200F04D3ACF1200C0C
:1014500009FA0CF001E007FA0CF000294FF00048FF
:1014600001DD18B90FE00ED140450CD319EB02098C
:101470005F4121B9404502D19F4329EA0209BBEBF4
:10148000175F00D0761C2088000502D57B48784481
:1014900002E07A487844193808AA302302F80A3062
:1014A000037C0AF10101002E0AF1020A53546A4634
:1014B00002DC4FF0300101E04FF031014FF0010844
:1014C0008DF8001002D0A6F2FF3603E059EA47017A
:1014D00000D06B4E002D02DC2178090704D54FF0B7
:1014E00002082E218DF80110C44600210BE0C7F33D
:1014F00003433F01C35C491C6D1E02F808300529F7
:1015000008F1010801DA002DF1DC00210CE000EB0C
:101510001973491C1B786D1E082902F808304FEA20
:10152000091908F1010801DA002DF0DC21688B06A9
:1015300002D516E0A8F10108E04505DD02EB08033D
:1015400013F8013C302BF5D0B8F1000F09DD02EBA8
:10155000080313F8013C2E2B03D1090701D4A8F18D
:101560000108002D05DD3E2102F808106D1E08F16E
:101570000108407C002E02F8080008F1010804DA96
:101580002D20764202F8080002E02B2002F8080025
:101590000A214FF47A70864208F101080BDB96FBB2
:1015A000F0F3303302F8083096FBF0F308F101084D
:1015B00000FB136601E0642E0CDB642096FBF0F365
:1015C000303302F8083096FBF0F308F1010800FB15
:1015D000136601E00A2E06DB96FBF1F0303002F8CC
:1015E000080008F1010896FBF1F001FB10603030B3
:1015F00002F80800A16908F1010808EB050202EBF6
:101600000A00081AA0612078C00602D42046FEF71E
:10161000ABFE216A08AE01EB0A00206204E0D4E9C7
:10162000012116F8010B9047BAF1010AF7D2207890
:10163000C00602D52046FEF797FE6E4609E016F872
:10164000010B3E280FD0D4E901219047206A401CAD
:101650002062B8F10108F2D22046FEF79BFE09B0E5
:101660000320BDE8F08F206A2844206203E0D4E91B
:101670000121302090476D1EEBD3F8E7C1A7000091
:1016800002FCFFFF01694A1C02610878704700B53F
:101690008FB0CDE901310021059105497944CDE9AB
:1016A000031011466846FEF735FF0FB000BD00007D
:1016B000E5FFFFFF10B5436913B1AFF3008001E010
:1016C000FFF7B6FA012010BD128800F124018284D0
:1016D0000022C2840122EDE711684FF0FF32E9E7F2
:1016E0002DE9F34F4FF0000A0C4656468DB001200D
:1016F0000C9001F10C000B9062690B98012190474E
:10170000051E2DD0252D2CD0216A8847C0B16269D5
:101710000B9801219047216A88470028F7D1626918
:10172000411E0B98904700E0761CA1690D988847F0
:10173000216A88470028F7D1E1690D988847DBE7DF
:10174000A1690D988847A842074601D1761CD3E7C6
:10175000E1690D9888477F1C02D1BAF1000F6FD064
:101760006BE162690B9800273D46394690472A286D
:1017700004D162690B98012190470125DFF8D082DE
:1017800062690B9801219047A0F130010A290AD221
:101790004745E5DC07EB870100EB4107303FDFD42D
:1017A00045F01005ECE7E90601D46FF000476C281E
:1017B0000AD04C2814D0682815D06A280DD0742877
:1017C0001CD07A281AD01DE062690B98012190473D
:1017D0006C2802D045F0040514E045F002050DE048
:1017E00045F020050AE062690B98012190476828BE
:1017F00002D045F0080505E045F4006562690B98E4
:1018000001219047C4E9015765283DD019DC5828CB
:101810007AD00CDC452837D004DC252826D0412896
:101820009ED131E046282FD0472899D12CE05B2863
:1018300077D0612828D063287CD0642823D15AE04F
:10184000F6E06F2848D008DC66281DD067281BD03A
:10185000692821D06E2816D127E0702845D073283A
:1018600068D0752847D078280DD14DE0A1690D9832
:101870008847252805463FF469AFE1690D988847F8
:101880006D1C3FF46AAFD8E00D9923466A466FF0AD
:101890000100AFF30080C5E045F0400023464FF063
:1018A00000026060A80736D43EE0E8077FF447AF47
:1018B0002068011D21600068290501D506701BE71D
:1018C000290701D5068017E7A90703D5F117C0E955
:1018D000006111E706600FE745F0400023464FF036
:1018E00008026060A80716D41EE040F60E0125EA43
:1018F0000100606016E045F0400023464FF00A0208
:101900006060A80707D40FE045F040006060A807BA
:1019100008D5234610220D996FF00100AFF3008027
:1019200080E007E0102223460D996FF00100FEF7DA
:10193000D3FE77E04FF0000963284F46C8464B4678
:10194000CB4602D05B2806D038E0E80601D401205F
:10195000A060012732E06269D4F80CB00B98012135
:1019600090475E2807D14FF0010949466269D4F8D3
:101970000CB00B989047216939B900210A4603AB96
:1019800043F82120491C0829FADBD8B3216949B35F
:1019900008F1010862690B98012190475D28F4D194
:1019A000B9F1000F09D0002003A951F82020D2433B
:1019B00041F82020401C0828F7DB03AB20690028F1
:1019C00020794FEA40701ED05B462246CDF8008059
:1019D000CDE901970D9900286FF0010020DAAFF3EF
:1019E00000801FE0C11703AA00EBD1614B1121F069
:1019F0001F0102EB8302411A136801208840034350
:101A00001360C7E719E00D99224600286FF0010026
:101A1000009702DAAFF3008004E0AFF3008001E04A
:101A2000AFF3008000280ADA401C06D10C9820B1E0
:101A30004FF0FF300FB0BDE8F08F5046FAE7E907EE
:101A400001D10AF1010A064400200C9054E600007E
:101A5000CCCCCC0C007B00F08000704770B51646F3
:101A60000C46054600F044F8036893F8010101288C
:101A700006D0FF2C0FD8185D68B101202C7070BD06
:101A8000D3F807013246214603F2071303442846E0
:101A9000BDE8704018474FF0FF3070BD00487047F8
:101AA000901100207546FFF7F9FFAE460500694624
:101AB000534620F00700854618B020B5FEF70AFC13
:101AC000BDE820404FF000064FF000074FF000083F
:101AD0004FF0000B21F00701AC46ACE8C009ACE8C0
:101AE000C009ACE8C009ACE8C0098D4670470000E9
:101AF00010B500F005F8001D10BD00BF2D960000C8
:101B000000487047B01100202DE9F0411F460446FF
:101B100003260168072A01F4006004DB08B116A55A
:101B200005E016A503E008B115A500E015A521F014
:101B300010002060A069C01EA0610FB1401EA0610E
:101B40002046FEF711FC4FB1D4E9012138469047F9
:101B5000206A401C2062C01C206206E0206AFAE76E
:101B6000D4E9012115F8010B9047761EF8D22046E2
:101B7000FEF710FCBDE8F0814E414E006E616E0034
:101B8000494E4600696E66002DE9F04781461646CB
:101B90008AB0354878440DC88DE80D003248784445
:101BA000801C03AC0DC884E80D0041F69B3008444E
:101BB000372190FBF1F290FBF1F5A5F1800501FBD7
:101BC00012041B3C02D56442012000E00020DFF833
:101BD00098A080460027FA44AAF1BE0A0EE0E0076A
:101BE0000AD03246684607EB470101230AEB810120
:101BF00000F0D6FA8DE8070064107F1C002CEED1AF
:101C0000194F7F44AE3F19E0E80715D007EB0410E9
:101C10000DF1180A90E80E008AE80E00C068F04244
:101C200001D1981908903246012306A903A800F0B3
:101C3000B7FA03AB83E807006D10641C002DE3D1F5
:101C40004FF0010332466946B8F1000F03A802D0F5
:101C500000F091FA01E000F0A3FAC9E90001C9F827
:101C600008200AB0BDE8F0874CA1000010B504467A
:101C7000AFF300802046BDE81040FEF716BB5FEAD8
:101C8000400C08BF91F0000F4FEA8C234FEAC122AD
:101C900043EA51514FEA1C5018BF00F5F0404FEA9B
:101CA000300018BF41F000415FEA6C5C00F0298011
:101CB000BCF1FF3F08BF40F080407047130C06BFE7
:101CC00012044FF0100C4FF0000C130E04BF120260
:101CD0000CF1080C130F04BF12010CF1040C930F4C
:101CE00004BF92000CF1020CD30F04BF52000CF1A0
:101CF000010C11464FF00002A0F11F00A0EB0C00F8
:101D0000704711F0004F08BF704731F000413FF4B9
:101D1000D5AF0B0C06BF09044FF0100C4FF0000CB0
:101D20000B0E04BF09020CF1080C0B0F04BF0901D4
:101D30000CF1040C8B0F04BF89000CF1020CCB0FCB
:101D400004BF49000CF1010CCCF12003A0EB0C0006
:101D500022FA03F302FA0CF241EA030100F1010056
:101D6000704720F07F4C80EA030023F07F47ACEB04
:101D7000070303F57C5300F0004003F1FF032DE956
:101D800080494FEA154B09B44FEA144325EA0B4E3C
:101D900024EA03480FF2042606EB132749083E788D
:101DA0005FEA320203FB0667C7F5000707FB06F68A
:101DB0004FEA54374FEAD64606F1020607FB066C97
:101DC000CCF1005C4FEA1C472CEA074C07FB06F4F9
:101DD0000CFB06F504EB15464FEA961634BF0020BF
:101DE0004FF000404FEAD13706FB07FC4FEA1C4C8E
:101DF0000CFB0BF7D21B03FB0CF761EB07010CFB91
:101E00000EF7B0EB074072EB17420CFB08F734BF3C
:101E1000A2EB0742B2EB074261EB17414FEA0C44D9
:101E20004FEA910706FB07FC4FEA1C4C0CFB0BF733
:101E3000B0EBC74072EB573203FB0CF734BFA2EB99
:101E4000C742B2EBC74261EB57310CFB0EF7B0EB68
:101E5000C70072EB57720CFB08F734BFA2EBC70246
:101E6000B2EBC70261EB5771039F4FEA816141EA10
:101E7000921104EBCC044FEAD1374FEA826206FBA1
:101E800007FC42EA90124FEA80604FEA1C4C0CFBC0
:101E90000BF7D21B03FB0CF761EB07010CFB0EF7F2
:101EA000B0EB074072EB17420CFB08F734BFA2EB14
:101EB0000742B2EB074261EB17414FEA8C554FEAFC
:101EC000910704EB9C2406FB07FC4FEA1C4C0CFB1F
:101ED0000BF7B0EBC74072EB573203FB0CF734BF84
:101EE000A2EBC742B2EBC74261EB57310CFB0EF7D6
:101EF000B0EBC70072EB57720CFB08F734BFA2EBD4
:101F0000C702B2EBC70261EB577115EB4C254FEAE4
:101F1000816141EA92114FEA82624FEAD13742EA87
:101F2000901206FB07FC44F100044FEA80604FEA80
:101F30001C4C0CFB0BF7D21B03FB0CF761EB0701EE
:101F40000CFB0EF7B0EB074072EB17420CFB08F7E7
:101F500034BFA2EB0742B2EB074261EB174115EB2E
:101F60001C154FEA813141EA92414FEA823242EA3E
:101F700090424FEA80304FEA0C7644F1000448EA80
:101F800003434EEA0B484FF0000EB2EB080C71EB26
:101F9000030724BF624639464EEB0E0E4FF0000B8E
:101FA0000018524149414BEB0B0BB2EB080C71EBA3
:101FB00003077BF1000B24BF624639464EEB0E0E41
:101FC0004FF0000B0018524149414BEB0B0BB2EBA9
:101FD000080C71EB03077BF1000B24BF6246394606
:101FE0004EEB0E0E51EA020718BF46F0010616EB43
:101FF0000E7655F1000254F1000103D5BDE88901C8
:10200000BDE80088BDE88901BDE80048B619524125
:1020100041EB0101A3F10103704780807F7E7D7C4D
:102020007B7A7978777676757473727171706F6E6A
:102030006E6D6C6C6B6A6A69686867666665646415
:10204000636362616160605F5F5E5E5D5D5C5C5B9F
:102050005B5A5A595958585757565655555554540E
:10206000535352525251515050504F4F4F4E4E4D6C
:102070004D4D4C4C4C4B4B4B4A4A4A4949494848B8
:1020800048474747474646464545454444444443F8
:1020900043434342424242414141002B9C4630D49B
:1020A00077002BD01CB54FEA370703B44FF0100070
:1020B0004FF01001BAF1000F06D0BCF1000FDCBFE9
:1020C00040F0080040F008014FF000000FBCBDE8F0
:1020D00010400BF1010BBBF1010F08BF5FEA1707BE
:1020E00022BF12F1010211F101014FF0004143F151
:1020F000000300F0004043EA00007047F9D357089E
:10210000D0E746EA064613F1400F4FEA16461FDDB8
:1021100013F1200FDFBF16430A46002120335B4234
:10212000BED0C3F1200746EA064602FA07F74FEA97
:10213000164646EA0706C3F1200722FA03F201FA1F
:1021400007F721FA03F14FF0000342EA0702A7E77D
:1021500046EA020646EA06464FEA164646EA0106FF
:10216000BCBF46EA0646360C4FF000034FF00002B3
:102170004FF0000194E72DE9804C9A46934670B4E5
:1021800091E8380007C831EA400C48BF34EA430CF4
:1021900003D5FFF7E6FDFFF780FFF0BCBDE8008C3C
:1021A0002DE9804C9A46934670B491E8380007C8F0
:1021B00010F0804F08BF13F0804F03D100F005F8F6
:1021C000FFF76BFFF0BCBDE8008C20F07F4780EA92
:1021D000030023F07F4C07EB0C03A3F57C5300F0C6
:1021E0000040A3F1FE0392F0000F00F0B38095F0E1
:1021F000000F00F077802DE901494FEA11404FEAC6
:10220000144621EA004800FB06FC24EA064708FBC6
:1022100006F607FB08F800FB07F718EB06484CEB3F
:10222000164C4FEA124B18EB07484FEA15464CEB99
:10223000174022EA0B4E0BFB06FC25EA06470EFB75
:1022400006F607FB0EFE0BFB07F71EEB064E4CEBEC
:10225000164C4FF000061EEB074E4CEB174B18EBDD
:102260000B0840F1000018EB0E0B58EB000840F192
:1022700000008F1A4FF000013CBFC943661B14BF1A
:10228000B5EB040C00213CBFC943F61B4FEA1744D1
:102290004EEA8E0E27EA04454FEA1C4704FB07620C
:1022A0002CEA074C05FB07F70CFB05F604FB0CFCBE
:1022B00016EB074642EB174216EB0C4642EB1C426C
:1022C0001BEB060658EB0202414146EA9E0601D589
:1022D000BDE80189B619524141EB0101A3F10103A7
:1022E000BDE801894FEA14454FEA114724EA054643
:1022F00021EA074C05FB07F406FB07F70CFB06F188
:1023000005FB0CFC11EB074144EB17444FEA124765
:1023100011EB0C4144EB1C4422EA074C05FB07F28D
:1023200006FB07F70CFB06F605FB0CFC16EB074655
:1023300042EB174216EB0C4642EB1C456A1854F16F
:10234000000148BF7047B619524141EB0101A3F1AA
:102350000103704795F0000F37D04FEA11424FEA62
:10236000144721EA024624EA074C02FB07F106FB68
:1023700007F70CFB06F402FB0CFC14EB074441EBE3
:1023800017414FEA154714EB0C4441EB1C4125EA79
:10239000074C02FB07F506FB07F70CFB06F602FBF2
:1023A0000CFC16EB074645EB174516EB0C4645EBC8
:1023B0001C42121951F1000148BF7047B619524131
:1023C00041EB0101A3F1010370474FEA14454FEAC5
:1023D000114724EA054621EA074C05FB07F106FBF5
:1023E00007F70CFB06F24FF0000605FB0CFC12EBA6
:1023F000074241EB174112EB0C4251EB1C4148BF25
:102400007047921841EB0101A3F10103704700BF2F
:10241000FEE7704770B50446002594F821000228B5
:1024200003D00420A0630125C1E02068006820F0EB
:102430000E00216808602068006820F00100216813
:1024400008605C492068884252D95A497839206826
:10245000884201D1012047E056496439206888420A
:1024600001D1102040E0534950392068884201D101
:10247000801539E04F493C392068884201D18014E9
:1024800032E04C4928392068884202D14FF480302C
:102490002AE0484914392068884202D14FF480105C
:1024A00022E044492068884201D140041CE04249AE
:1024B0002068884201D1012016E03F49143120688C
:1024C000884201D110200FE03B4928312068884222
:1024D00001D1801508E038493C312068884201D19B
:1024E000801401E04FF480303349091F086051E047
:1024F000304978392068884201D1012047E02D49D0
:1025000064392068884201D1102040E029495039BF
:102510002068884201D1801539E026493C3920687D
:10252000884201D1801432E022492839206888424B
:1025300002D14FF480302AE01E49143920688842C5
:1025400002D14FF4801022E01A492068884201D15C
:1025500040041CE018492068884201D1012016E09F
:10256000154914312068884201D110200FE012492A
:1025700028312068884201D1801508E00E493C319D
:102580002068884201D1801401E04FF4803009496D
:1025900080394860012084F8210000BF002084F8C1
:1025A000200000BF606B10B12046616B8847284651
:1025B00070BD000080000240080402402DE9F84789
:1025C000024600239C467BE14FF0010808FA03F421
:1025D000D1F8008008EA0400A0427DD1DFF8F4A21F
:1025E000D1F80480A8EB0A09D0453AD014DCB8F140
:1025F000030F50D009DCB8F1000F31D0B8F1010F52
:102600001CD0B8F1020F49D120E0B8F1110F18D059
:10261000B8F1120F42D11EE0B9F5881F25D006DCB3
:10262000B9F5803F20D0B9F5801F37D11AE0B9F550
:10263000001F18D0B9F5041F30D117E0D1F80CC035
:102640002DE0D1F80C8008F1040C28E0D1F80C80C2
:1026500008F1080C23E0D1F80C8008F10C0C1EE006
:1026600000BF00BF00BF00BF00BF00BFD1F808809F
:10267000B8F1000F02D14FF0040C0BE0D1F8088044
:10268000B8F1010F03D14FF0080C146102E04FF0D4
:10269000080C546103E04FF0000C00E000BF00BFE5
:1026A000FF2801D8904601E002F104084646FF28C1
:1026B00002D84FEA830803E0A3F108084FEA88082C
:1026C0004746D6F800804FF00F0909FA07F928EAC3
:1026D00009080CFA07F900E07AE048EA0908C6F8A8
:1026E0000080D1F8048008F08058B8F1805F6FD185
:1026F00000BFDFF8E481D8F8188048F00108DFF85F
:10270000D891C9F81880C846D8F8188008F0010890
:10271000CDF8008000BF00BF4FEAB9384FEA9309F7
:1027200058F829504FEA83784FEA18794FF00F088C
:1027300008FA09F825EA0805DFF8A081424502D128
:102740004FF0000824E0DFF89881424502D14FF0B5
:1027500001081DE0DFF88C81424502D14FF00208EC
:1027600016E0DFF88481424502D14FF003080FE004
:10277000DFF87881424502D14FF0040808E0DFF825
:102780007081424502D14FF0050801E04FF0060884
:102790004FEA83794FEA197908FA09F848EA0505FA
:1027A000DFF850814FEA930948F82950D1F80480A6
:1027B00008F48038B8F5803F0BD1DFF83C81D8F8B9
:1027C000008048EA0008DFF83091C9F800800AE08C
:1027D00075E0DFF82481D8F8008028EA0008DFF8E7
:1027E0001891C9F80080D1F8048008F40038B8F5D1
:1027F000003F0ED1DFF8008108F10408D8F800800E
:1028000048EA0008DFF8F09009F10409C9F80080EF
:102810000DE0DFF8E48008F10408D8F8008028EA29
:102820000008DFF8D49009F10409C9F80080D1F854
:10283000048008F48018B8F5801F0ED1DFF8B88046
:1028400008F10808D8F8008048EA0008DFF8A890E6
:1028500009F10809C9F800800DE0DFF89C8008F153
:102860000808D8F8008028EA0008DFF88C9009F101
:102870000809C9F80080D1F8048008F40018B8F5F8
:10288000001F0ED1DFF8708008F10C08D8F8008026
:1028900048EA0008DFF8609009F10C09C9F80080E7
:1028A0000DE0DFF8548008F10C08D8F8008028EA21
:1028B0000008DFF8449009F10C09C9F800805B1C9E
:1028C000D1F8008028FA03F8B8F1000F7FF47CAE4D
:1028D000BDE8F88700001110001002400008014018
:1028E000000C01400010014000140140001801409C
:1028F000001C0140080001400004014002469368AA
:102900000B400BB1012000E0002070470AB10161CB
:1029100001E00B0403617047014800687047000044
:102920004000002003480068034909780844014931
:1029300008607047400000204800002010B508489B
:10294000006840F0100006490860052000F080F89B
:102950000F2000F007F800F02BF8002010BD000059
:102960000020024070B504460E4800784FF47A719A
:10297000B1FBF0F00C490968B1FBF0F5284600F016
:10298000E3FB08B1012070BD102C07D200222146C4
:10299000501E00F01EF80548046001E00120F2E737
:1029A0000020F0E748000020300000204400002014
:1029B000704701460846002809DB00F01F0301228A
:1029C0009A4043099B0003F1E023C3F8002100BFB4
:1029D00070472DE9F05F80460D461646002700F04F
:1029E0000FFF074639462A46334601F00700C0F17B
:1029F000070ABAF1040F02D94FF0040A01E0C0F14E
:102A0000070AD14600F1040ABAF1070F02D24FF0CB
:102A1000000A01E0A0F1030AD4464FF0010A0AFAC5
:102A200009FAAAF1010A0AEA020A0AFA0CFA4FF0B4
:102A3000010B0BFA0CFBABF1010B0BEA030B4AEA9F
:102A40000B042146404600F0E3FEBDE8F09F000085
:102A500000BF00F00702064B19684FF6FF0319404C
:102A6000044B0B4343EA0221014B196000BF70473E
:102A70000CED00E00000FA0570B504460D460CB9F7
:102A8000012070BD5A48006800F00700A8420ED22D
:102A90005748006820F00700284355490860084659
:102AA000006800F00700A84201D00120E9E7207883
:102AB00000F0020002281DD1207800F00400042854
:102AC00005D14C48406840F4E0604A4948602078AD
:102AD00000F00800082805D14648406840F46050DE
:102AE000444948604348406820F0F000A16808432A
:102AF00040494860207800F0010078B36068012800
:102B000006D13C48006800F4003090B90120B8E7D5
:102B10006068022806D13748006800F0007040B9AC
:102B20000120AEE73348006800F0020008B9012038
:102B3000A7E73048406820F00300616808432D494A
:102B40004860FFF7E9FE064609E0FFF7E5FE801B57
:102B500041F28831884202D9032092E707E02548F4
:102B6000406800F00C006168B0EB810FEDD12048A7
:102B7000006800F00700A8420ED91D48006820F048
:102B8000070028431A4908600846006800F007005B
:102B9000A84201D0012074E7207800F00400042846
:102BA00007D11448406820F4E060E1680843114907
:102BB0004860207800F00800082808D10D484068D7
:102BC00020F46050216940EAC1000A49486000F0E1
:102BD0003FF808494968C1F30311074A515CC840EE
:102BE0000649086006480068FFF7BCFE002048E779
:102BF0000020024000100240E6BB00083000002028
:102C000044000020014800687047000030000020A8
:102C100000B5FFF7F7FF04494968C1F30221034AF1
:102C2000515CC84000BD000000100240F6BB000827
:102C300000B5FFF7E7FF04494968C1F3C221034A21
:102C4000515CC84000BD000000100240F6BB000807
:102C5000F0B585B00FF26C0C9CE8E01001A8A0E87C
:102C6000E0101CA52D6800950021002200230024FF
:102C70000020194D696801F00C05F5B1042D02D052
:102C8000082D19D101E0154819E001ADC1F38346C3
:102C9000AC5D01F4803555B10F4D6D68C5F340450D
:102CA0001DF805200D4D6543B5FBF2F302E00C4D18
:102CB00004FB05F3184602E000BF084800BF00BF50
:102CC00005B0F0BD02030405060708090A0B0C0D48
:102CD0000E0F1010010200000010024000127A00D6
:102CE00000093D00F8B504460CB90120F8BD207874
:102CF00000F00100002878D0F848406800F00C008F
:102D000004280CD0F548406800F00C00082811D1C8
:102D1000F248406800F48030B0F5803F0AD1EF48B7
:102D2000006800F4003000285FD0606800285CD1A3
:102D30000120DBE700BF6068B0F5803F06D1E748BF
:102D4000006840F48030E549086028E0606858B9C0
:102D5000E248006820F48030E049086008460068D6
:102D600020F4802008601AE06068B0F5A02F0BD135
:102D7000DA48006840F48020D849086008460068B6
:102D800040F4803008600AE0D448006820F48030C5
:102D9000D24908600846006820F48020086000BF1F
:102DA000606888B1FFF7B8FD054606E0FFF7B4FD9F
:102DB000401B642801D9032098E7C848006800F444
:102DC00000300028F2D010E0FFF7A6FD054606E02F
:102DD000FFF7A2FD401B642801D9032086E7BF4806
:102DE000006800F400300028F2D1207800F00200E2
:102DF000022857D1B948406800F00C0050B1B748DC
:102E0000406800F00C00082818D1B448406800F46D
:102E1000803098B9B148006800F0020020B1206904
:102E2000012801D0012061E7AC48006820F0F800DB
:102E3000616940EAC100A949086033E02069E8B14E
:102E40000120A7490860FFF767FD054606E0FFF788
:102E500063FD401B022801D9032047E79F48006813
:102E600000F002000028F2D09C48006820F0F80032
:102E7000616940EAC1009949086013E0002098495F
:102E80000860FFF749FD054606E0FFF745FD401BDA
:102E9000022801D9032029E79048006800F00200C9
:102EA0000028F2D1207800F0080008282DD1A06970
:102EB000B8B101208B490860FFF72EFD054606E0FA
:102EC000FFF72AFD401B022801D903200EE78348A3
:102ED000406A00F002000028F2D0012000F01CFB44
:102EE00013E000207F490860FFF716FD054606E065
:102EF000FFF712FD401B022801D90320F6E67748B0
:102F0000406A00F002000028F2D1207800F00400AE
:102F1000042873D100277148C06900F0805070B94F
:102F200000BF6E48C06940F080506C49C8610846D7
:102F3000C06900F08050009000BF00BF01276A48C0
:102F4000006800F48070B0B96748006840F4807091
:102F500065490860FFF7E0FC054606E0FFF7DCFC8A
:102F6000401B642801D90320C0E65F48006800F4D4
:102F700080700028F2D000BFE068012806D15748D1
:102F8000006A40F001005549086227E0E06858B93E
:102F90005248006A20F00100504908620846006A61
:102FA00020F00400086219E0E06805280BD14B48C6
:102FB000006A40F00400494908620846006A40F08F
:102FC000010008620AE04548006A20F00100434918
:102FD00008620846006A20F00400086200BFE0684A
:102FE000A0B1FFF799FC054609E0FFF795FC401BEF
:102FF00041F28831884202D9032077E622E037483F
:10300000006A00F002000028EFD012E0FFF784FC15
:10301000054608E0FFF780FC401B41F288318842FA
:1030200001D9032062E62D48006A00F00200002862
:10303000F0D1012F05D12948C06920F080502749DF
:10304000C86100BFE069C8B32448406800F00C00C4
:10305000082860D0E069022848D10020204908668D
:10306000FFF75AFC054606E0FFF756FC401B022816
:1030700001D903203AE61948006800F000700028E2
:10308000F2D1206AB0F5803F07D11448406820F49F
:103090000030A168084311494860D4E90801084399
:1030A0000E49496821F4741108430C494860012015
:1030B0000B490866FFF730FC054607E03DE0FFF7E7
:1030C0002BFC401B022801D903200FE603480068AF
:1030D00000F000700028F2D02FE000000010024045
:1030E0000000424280044242007000400020144927
:1030F0000866FFF711FC054606E0FFF70DFC401BD4
:10310000022801D90320F1E50E48006800F00070A4
:103110000028F2D111E0E069012800D1E6E5094874
:10312000466806F48031206A814204D106F47011A9
:10313000606A814201D00120D8E50020D6E5000078
:10314000000042420010024070B504462546681E49
:10315000B0F1807F01D301200FE0681E4FF0E02125
:1031600048610F214FF0FF3000F052FB00204FF07C
:10317000E021886107200861002070BD70470000D1
:103180002DE9F0470446206805682068C668206875
:1031900047694FF00008C14605F00F08B8F1000F6D
:1031A0000AD105F0200038B106F0200020B12046F9
:1031B00000F0F6F9BDE8F087B8F1000F71D007F024
:1031C000010018B906F4907000286AD005F00100DB
:1031D00030B106F4807018B1E06B40F00100E0639C
:1031E00005F0040030B107F0010018B1E06B40F0C9
:1031F0000200E06305F0020030B107F0010018B1F1
:10320000E06B40F00400E06305F0080048B106F010
:10321000200010B907F0010018B1E06B40F0080081
:10322000E063E06B68B305F0200028B106F02000F1
:1032300010B1204600F0B4F920684069C0F380194D
:10324000E06B00F0080010B9B9F1000F22D0204661
:1032500000F086F92068406900F04000B0B12068B5
:10326000406920F0400021684861606B50B1184807
:10327000616B4863606BFFF7CDF810B1606B416B19
:1032800088470CE02046FFF779FF08E02046FFF76B
:1032900075FF04E02046FFF771FF0020E06389E737
:1032A000FFE705F0800030B106F0800018B120463D
:1032B00000F044FA7EE705F0400030B106F040002F
:1032C00018B1204600F05CF974E700BF72E7000017
:1032D0004D35000810B504460CB9012010BDA06999
:1032E00000B100E000BF94F8390028B9002084F84C
:1032F0003800204600F028F8242084F8390020689F
:10330000C06820F400502168C860204600F098F999
:103310002068006920F490402168086120684069B5
:1033200020F02A00216848612068C06840F40050FD
:103330002168C8600020E063202084F8390084F808
:103340003A000020CAE7000010B586B004462849BC
:10335000206888424AD100BF00BF2648806940F0FB
:103360000400244988610846806900F00400019047
:1033700000BF00BF00BF00BF00BF0846806940F02B
:10338000040088610846806900F00400019000BFD5
:1033900000BF00BF00BF00BF0846806940F4804006
:1033A00088610846806900F48040019000BF00BF3A
:1033B00000BF4815029002200390012004900320D2
:1033C000059002A90C48FFF7F9F84FF480600290CD
:1033D0000020039002A90848FFF7F0F82520FFF726
:1033E000E8FA032211462520FFF7F3FA06B010BDD4
:1033F00000380140001002400008014010B50346AB
:1034000093F83A0020282FD101B10AB9012010BD4C
:1034100000BF93F83800012801D10220F7E701200E
:1034200083F8380000BF99629A85DA850020D86356
:10343000222083F83A0000BF002083F8380000BF44
:103440001868C06840F480701C68E06018684069C3
:1034500040F001001C6860611868C06840F02000FE
:103460001C68E0600020D2E70220D0E710B50446D7
:103470002049206888423BD11F48008800F4004062
:1034800088BB1D48008800F4804070B11B4800785C
:103490000A2803D000201849088024E01648008834
:1034A00040F40040144908801DE0144800780D28BD
:1034B00006D11148008840F480400F49088012E08E
:1034C0000E4800780C490988C1F30D010C4A50548C
:1034D00009480088401C0849088008460088C72819
:1034E00001DD00200880012204490648FFF786FF1D
:1034F00010BD0000003801403C0000203E000020CC
:10350000580C0020200D0020704700BFFEE700BFD0
:10351000FEE770477047000008B508490968C90808
:103520004FF47A72B1FBF2F14143009100BF00BF4A
:1035300000994A1E00920029F9D108BD30000020F0
:10354000704710B5FFF7EEF910BD704770B505462E
:103550006C6A0020E085E0842046FFF70FFE70BD16
:103560000168C96821F490710268D16001684969F5
:1035700021F0010102685161202180F83A10704762
:1035800010B504462068C06820F040002168C8607B
:10359000202084F839002046FFF7B6FF002010BD38
:1035A00070B5044694F83A00222847D1A068B0F5D7
:1035B000805F0CD1206950B90025A66A2068406858
:1035C000C0F308003080A06A801CA06215E0A56AE4
:1035D0000026A068B0F5805F03D0A06828B92069F4
:1035E00018B920684068287004E02068406800F03E
:1035F0007F002870A06A401CA062E08D401E80B24F
:10360000E085C8B92068C06820F020002168C86043
:103610002068C06820F480702168C8602068406914
:1036200020F0010021684861202084F83A002046FB
:10363000FFF71CFF002070BD0020FCE70220FAE726
:1036400070B504462168096921F44051E2681143CC
:10365000226811612269A1681143626941EA020589
:103660002168C96841F20C62914329432268D16004
:103670002168496921F44071A269114322685161AE
:103680002D4A2168914202D1FFF7D2FA01E0FFF7FB
:10369000BFFA00EBC00101EB001162689200B1FBC0
:1036A000F2F100EBC00202EB001263689B00B2FB78
:1036B000F3F26423B2FBF3F202EBC20303EB021258
:1036C000A1EB8201322202EB01116422B1FBF2F183
:1036D00001F0F00100EBC00202EB001263689B00F6
:1036E000B2FBF3F26423B2FBF3F201EB021200EB44
:1036F000C00101EB001163689B00B1FBF3F100EB2B
:10370000C00303EB00136668B600B3FBF6F3642650
:10371000B3FBF6F303EBC30606EB0313A1EB830144
:10372000322303EB01116423B1FBF3F101F00F012C
:1037300011442268916070BD00380140014691F843
:103740003900212828D18868B0F5805F0BD108693D
:1037500048B90A6A1088C0F308000B685860086A04
:10376000801C086205E00B6A581C086218780B6818
:103770005860C88C401E80B2C88458B90868C068B8
:1037800020F080000B68D8600868C06840F04000F6
:103790000B68D860002070470220FCE710B5024893
:1037A000FFF7EEFC10BD0000200D002000BFFEE77B
:1037B000490050EAC12018BF04204A0D18BF40F04C
:1037C000010040F2FF72B2EB515F08BF40F002000F
:1037D000012808BF052070474100080218BF0420D7
:1037E0000A0E18BF40F001004FF07F4232EA01019B
:1037F00008BF40F00200012808BF05207047000004
:1038000002480068C0F30220704700000CED00E0A1
:1038100010B5002804DB0A07130E054A135406E00E
:103820000A07140E034A00F00F031B1FD45410BDE7
:1038300000E400E018ED00E0012108F096B907F07F
:1038400087BD0021084607F0F7BD6FF05E0108074D
:1038500008F08BB930380A2801D2012070470020C7
:10386000704700BF704700002DE9F74F84B00E4647
:103870009146002501A9049800F08CF818B10120A8
:1038800007B0BDE8F08F00244CE056F8240059F84A
:103890002410471A002F01DB394600E07942084620
:1038A00007F0C8FE80464FF08F4107F0C5FD824605
:1038B00001A951F82400002108F0ACF820F00047DD
:1038C0001A49384607F0E2FF1CD201A850F824102C
:1038D000504607F0B1FD07464FF07E5108F09AF8C8
:1038E0008346584607F008FD21F0004107464FF097
:1038F00000520F4B07F0CAFC12D20120A04028430F
:10390000C5B20DE00B49504607F0C0FE04D30A498A
:10391000504607F0BBFF03D20120A0402843C5B2A8
:10392000601CC4B2032CB0DB2846A9E7BD3786353E
:1039300085EBC13F9A99993E3333733F2DE9F047A8
:1039400004460D46E87800F0C007E87800F03F062E
:10395000687800F0010090B14FEAE6083046F117B0
:1039600006EB5171C910A6EBC101491C01F0FF091A
:10397000206A18B149464046226A904700BF6878DD
:1039800000F0080020B1606A10B1B811616A884780
:10399000BDE8F0872DE9FC4106460D46042301AA47
:1039A0000D21304600F0B8FA074617B10120BDE8F6
:1039B000FC819DF80700C0F301109DF8041001F090
:1039C000E00140EAE1008DF800009DF80700C0F337
:1039D00081009DF8051001F0E00140EAE1008DF85A
:1039E00001009DF8070000F003009DF8061001F0AB
:1039F000E00140EAE1008DF8020000241CE01DF81F
:103A0000040018B9002045F8240013E00C4845F8DC
:103A1000240006E055F824000A4907F06BFE45F83B
:103A200024001DF80400401EC0B20DF80400002858
:103A3000F0D100BF601CC4B2032CE0DB0020B6E76D
:103A40007B14AE3E1D5A843F2DE9F04F87B080466F
:103A50000D461446994601208DF8100000208DF87F
:103A60001100022304AA6B21404600F068FA0646C2
:103A70001EB1012007B0BDE8F08FC820D8F814109F
:103A8000884700208DF81000012304AA3821404601
:103A900000F055FA06460EB10120EBE7012304AA17
:103AA0002321404600F04BFA06460EB10120E1E723
:103AB000012304AA6B21404600F041FA06460EB1EC
:103AC0000120D7E7012304AA2421404600F037FA59
:103AD00006460EB10120CDE7012304AA6A21404623
:103AE00000F02DFA06460EB10120C3E70C208DF838
:103AF0001000012304AA6A21404600F020FA06467D
:103B00000EB10120B6E70F20D8F814108847012025
:103B10008DF81000012304AA1A21404600F00FFA84
:103B200006460EB10120A5E700208DF81000012304
:103B300004AA1921404600F002FA06460EB10120FF
:103B400098E7B9F1000F03D0E0208DF8100002E0F3
:103B500000208DF81000012304AA1B21404600F02C
:103B6000EEF906460EB1012084E7B9F1000F03D04B
:103B7000F8208DF8100002E018208DF810000123C5
:103B800004AA1C21404600F0DAF906460EB10120D5
:103B900070E7B9F1000F03D0C820D8F81410884797
:103BA00040208DF81000012304AA6A21404600F04D
:103BB000C6F906460EB101205CE778208DF81000AA
:103BC000012304AA2321404600F0B9F906460EB1AC
:103BD00001204FE73220D8F81410884700208DF8D4
:103BE0001000012304AA2321404600F0A8F906464C
:103BF0000EB101203EE7022304AA7221404600F0E4
:103C00008BF906460EB1012034E79DF811009DF8AE
:103C1000101040EA012B0C209BFBF0F087B2002033
:103C200028606860A86020606060A060824661E0F3
:103C30000C2304AA7421404600F06EF906460EB12A
:103C4000012017E79DF811009DF8101040EA0120AF
:103C500000B2ADF808009DF813009DF8121040EA7C
:103C6000012000B2ADF80A009DF815009DF814106F
:103C700040EA012000B2ADF80C00BDF90810206840
:103C800008442060BDF90A10606808446060BDF90E
:103C90000C10A0680844A0609DF817009DF816104D
:103CA00040EA012000B2ADF800009DF819009DF82F
:103CB000181040EA012000B2ADF802009DF81B0088
:103CC0009DF81A1040EA012000B2ADF80400BDF9D9
:103CD0000010286808442860BDF90210686808448C
:103CE0006860BDF90410A8680844A8600AF10100E2
:103CF0001FFA80FABA459BDB2868C117090441EA1C
:103D00001041000483220023CDE90001FCF7F5FAFD
:103D10003A460023CDE90201FCF7EFFA2860696812
:103D2000C817000440EA1140090483220023CDE9AA
:103D3000001008460199FCF7E0FA3A460023CDE965
:103D40000201FCF7DAFA6860A868C117090441EAC1
:103D50001041000483220023CDE90001FCF7CDFAD5
:103D60003A460023CDE90201FCF7C7FAA8602068B3
:103D7000C117090441EA104100044FF40062002316
:103D8000CDE90001FCF7B9FA3A460023CDE902017A
:103D9000FCF7B3FA20606068C117090441EA1041DA
:103DA00000044FF400620023CDE90001FCF7A5FAFE
:103DB0003A460023CDE90201FCF79FFA6060A06853
:103DC000C117090441EA104100044FF400620023C6
:103DD000CDE90001FCF791FA3A460023CDE9020152
:103DE000FCF78BFAA060A068002804DDA068A0F5AD
:103DF0008030A06003E0A06800F58030A060002063
:103E000038E600002DE9F74F84B00E46174600252E
:103E1000032302AA0D21049800F07EF80390039872
:103E200018B1012007B0BDE8F08F9DF8080000F040
:103E30001F008DF808009DF8090000F01F008DF8A4
:103E400009009DF80A0000F01F008DF80A00002408
:103E500054E056F8240057F82410A0EB010BBBF1F6
:103E6000000F01DB594601E0CBF10001084607F0E5
:103E7000E1FB4FF08F41019007F0DEFA814602A886
:103E8000005D58B3DFF87C8004E01F49404607F02E
:103E900031FC804602A8005D401EC0B202A9085550
:103EA0000028F2D14146484607F0C6FA83464FF053
:103EB0007E5107F0AFFD8246504607F01DFA21F013
:103EC00000414FF00052114BCDE9000107F0DEF93F
:103ED00012D20120A0402843C5B20DE00C4948464B
:103EE00007F0D4FB04D30B49484607F0CFFC03D2BC
:103EF0000120A0402843C5B2601CC4B2032CA8DB3B
:103F000028468FE70000C84154E3853F85EBC13F59
:103F1000000020410000D2422DE9F04104460D4648
:103F200016461F4620783B4632462946D4F80CC038
:103F3000E04710B10120BDE8F0810020FBE72DE94A
:103F4000F04104460D4616461F4620783B46324651
:103F50002946D4F810C0E04710B10120BDE8F08137
:103F60000020FBE770B50546284600F00FF8044630
:103F7000E81C00F00BF844EAC00084B2A81D00F071
:103F800005F844EA801084B2204670BD014691F9DC
:103F90000020002A01DD00201EE091F90020002A07
:103FA00001DA042018E091F90120002A01DD012046
:103FB00012E091F90120002A01DA05200CE091F9C4
:103FC0000220002A01DD022006E091F90220002AE9
:103FD00001DA062000E007207047F8B504460D46D8
:103FE00017461E46280A8DF80000E8B28DF8010039
:103FF0009DF801003044B0F5807F01DD0220F8BD5E
:10400000207802236A466D21D4F810C0E04708B139
:104010000120F4E7207833463A466F21D4F80CC0EB
:10402000E04708B10120EAE70020E8E77FB5044651
:10403000012302AA38212046FFF76EFF05462DB165
:104040004FA0A1698847012004B070BD012301AAD7
:1040500023212046FFF760FF054625B153A0A16943
:1040600088470120F0E701236A466A212046FFF7CE
:1040700053FF054625B158A0A16988470120E3E711
:1040800000200390012303AA38212046FFF757FFA1
:10409000054625B15BA0A16988470120D4E700202F
:1040A0000390012303AA23212046FFF748FF05467A
:1040B00025B15FA0A16988470120C5E79DF80000F0
:1040C00020F0400000909DF8000020F0800000905B
:1040D00094F82900012805D19DF8000040F00C005B
:1040E000009004E09DF8000040F0040000900123DF
:1040F0006A466A212046FFF722FF054625B158A0EF
:10410000A169884701209FE732206169884794F8B8
:104110002900012805D19DF8000040F0C000009062
:1041200004E09DF8000040F04000009001236A4642
:104130006A212046FFF703FF054625B148A0A16983
:104140008847012080E7012302AA38212046FFF793
:10415000F6FE054625B12BA0A1698847012073E72B
:10416000012301AA23212046FFF7E9FE054625B1D8
:104170002FA0A1698847012066E7002064E70000BE
:104180006D7075363035303A207265616420696E25
:104190007420656E61626C65207265676973746511
:1041A00072206661696C65642E0A00006D70753658
:1041B0003035303A2072656164206669666F20652B
:1041C0006E61626C652072656769737465722066E2
:1041D00061696C65642E0A006D7075363035303A51
:1041E00020726561642075736572206374726C203F
:1041F0007265676973746572206661696C65642EA7
:104200000A0000006D7075363035303A20777269DB
:10421000746520696E7420656E61626C65207265DC
:10422000676973746572206661696C65642E0A0043
:104230006D7075363035303A207772697465206656
:1042400069666F20656E61626C652072656769736F
:10425000746572206661696C65642E0A0000000056
:104260006D7075363035303A207772697465207517
:10427000736572206374726C20726567697374650C
:1042800072206661696C65642E0A0000F8B5044608
:104290000D4617461E46280A8DF80000E8B28DF834
:1042A00001009DF801003044B0F5807F01DD02205F
:1042B000F8BD207802236A466D21D4F810C0E0478B
:1042C00008B10120F4E7207833463A466F21D4F84C
:1042D00010C0E04708B10120EAE70020E8E700004D
:1042E0002DE9F04104464FF00E4000EB4400B0F1E0
:1042F000506F204655D84FF0FC41B1EB440F1CD213
:1043000024F000404FF07E5107F0F1FA4FF0FF31FA
:1043100007F02BFC054606F061FE14F0004F1DBFB0
:104320002F4F304E80F000402F4F08BF2F4E4FF0E0
:10433000404107F0DFF9044605E000273E4601460C
:1043400007F0D8F905462A49284607F0D3F9294944
:1043500006F0FEFF294607F0CDF9274906F0F8FFE1
:10436000294607F0C7F9254906F0F2FF294607F06C
:10437000C1F9234906F0ECFF80462946204607F0A4
:10438000B9F9414607F0B6F905463146204606F030
:10439000DFFF294606F0DCFF3946BDE8F04106F0B4
:1043A000D7BF4FF0E441B1EB440F08D9FFF714FA3F
:1043B000042808BFFFF749FA2046BDE8F0814FF016
:1043C0007F41B1EB440F03D2BDE8F041FFF734BAAF
:1043D0000120FCF77FFBBDE8F041FFF732BA000097
:1043E0000000C9BF22AAFDB90000C93F22AAFD39B9
:1043F00024FE1C3DC78AD83C1E67383D1B93993D5F
:10440000AFAA2A3E2DE9F0474FF0684202EB400385
:104410000C460546B3F1654F3CBF02EB4102B2F1D9
:10442000654F7CD2C0F3C753C1F3C7529A1A1B2AF7
:1044300006DD10F0004F14BF76487748BDE8F087DE
:1044400012F11A0F17DA11F0004F06D010F0004FDA
:104450000CBF72487248BDE8F0872146284606F036
:10446000EBFF0446FFF7B8F9042808BFFFF7EDF9A2
:104470002046BDE8F0874200B2EB410F25D910F08D
:10448000004F19BF674F684E684F694E224685F04E
:10449000004415460A4680F0004110460A1A5200B0
:1044A000B2F1807F40D248406249DFF88CA110F021
:1044B000004F18D04FF03F48384607F0ABFA074698
:1044C0005146304607F0A6FA17E011F0004F04BF3E
:1044D00000263746E2D010F0004F19BF574F584E14
:1044E000584F594EDAE74FF07C58384606F030FF07
:1044F00007465146304606F02BFF06464146284601
:1045000007F0F8F8214606F023FF82462146404690
:1045100007F0F0F8294607F0EAF9514600E037E0E5
:1045200006F08AFF044604E02146284606F084FF90
:104530000446014607F0DEF88046444907F0DAF801
:10454000434906F005FF414607F0D4F8414906F01B
:10455000FFFE414607F0CEF83F4906F0F9FE41461E
:1045600007F0C8F83D4906F0F3FE054641462046EF
:1045700007F0C0F8294607F0BDF8314606F0E8FE1E
:10458000214606F0E5FE3946BDE8F04706F0E0BEFC
:104590004FF07F42B2EB400F28BFB2EB410F03D286
:1045A000BDE8F047FFF74BB940EA01035B0008BFE5
:1045B00044F0FF410AD0B2EB400F08BFB2EB410F0D
:1045C00006D125F0804024F0804105460C4629E7BD
:1045D000B2EB400F12BF5FEA410245F0FF4004F02A
:1045E00000413FF41FAF4A0092EA40033FF51AAF83
:1045F000002AACBF4FF09F464FF03E56314607F0C1
:1046000079F805463146204607F074F804462846F6
:10461000214607E7DB0FC9BFDB0FC93FDB0F49406E
:10462000DB0F49C00000C9BF22AAFDB90000C93F85
:1046300022AAFD390060ED3EC30ACE37000049C012
:1046400022AA7DBA0000494022AA7D3A2DAD65BD5F
:104650008FB8D53D0FB511BE61C84C3EA8AAAABE01
:104660002DE9F04F8FB00025A846A94600200590FF
:104670000490002758A0FBF76BFE00262CE006A84C
:1046800006F0F2FB18BB06A800F03AF904464046D3
:104690000C9906F05DFE804648460D9906F058FEDE
:1046A00081460E99059806F053FE05902146049820
:1046B00006F04EFE04902146204607F01BF8824685
:1046C000394606F045FE0746681C85B200BF052046
:1046D00000F04AF9701C86B2C82ED0D3002D74D0D9
:1046E000284606F0BFFF83465946049806F0A4FE0C
:1046F00004462146204606F0FDFF0290284606F0BB
:10470000B1FF01460190384606F096FE83460299B5
:1047100007F080F903900021039807F0B7F803D25F
:10472000039806F05BFC00E000208246284606F075
:1047300099FF83465946404606F07EFE2C490860A4
:10474000284606F08FFF83465946484606F074FE19
:1047500028490860284606F085FF83465946059893
:1047600006F06AFE244908602448046018212448A1
:10477000FCF7C9F82248046022480460294622A0B8
:10478000FBF7E6FD1A48006806F042FA25A0FBF7A1
:10479000DFFD1848006806F03BFA25A0FBF7D8FDBE
:1047A0001548006806F034FA24A0FBF7D1FD204636
:1047B00006F02EFA25A0FBF7CBFD504606F028FAAE
:1047C00025A0FBF7C5FD03E0FFE724A0FBF7C0FD34
:1047D0000FB0BDE8F08F000043414C2C53544152C0
:1047E000542C6B6565705F7374617469630D0A00A6
:1047F000180000201C0000202000002024000020C1
:10480000400C00202800002043414C2C444F4E45D2
:104810002C636F756E743D25752C67785F626961D6
:10482000733D00002C67795F626961733D00000091
:104830002C677A5F626961733D0000002C706974B7
:1048400063685F6D65616E3D000000002C706974E7
:1048500063685F7374643D000D0A000043414C2C93
:104860004641494C2C6E6F5F7261775F73616D706A
:104870006C65730D0A0000002DE9F05F06460D46D9
:104880001446DFF864900021204606F0FFFE04D9AC
:104890001649204606F0FAFF08D21548006806F0CF
:1048A000E1FE0746134906F0C7FD044612493046AB
:1048B00006F020FF82462146284606F01BFF83466D
:1048C0000E480168584606F043FD8046064906F04A
:1048D00011FF0746514606F03BFD084908600846AF
:1048E0000068BDE8F09F000048E17A3FCDCC4C3E27
:1048F0000800002000007A4400D7A33C24000020D8
:104900002DE9F04104466169084606F0F3FE0746CA
:10491000E168084606F0EEFE8046394606F018FDCE
:10492000064606F05BFB05460A49284606F0AEFE41
:1049300000D2084D29462069FFF764FD07464FF075
:104940007E5106F0D7FE0646034906F0D3FEBDE8C9
:10495000F081000017B7D138E12E654201490860A7
:10496000704700003400002010B504464FF47A71FF
:1049700004FB01F000F002F810BD000070B5034622
:1049800000224FF0E02675690D4E366803FB06F4F1
:104990004FF0E026B16910E04FF0E026B0698842A0
:1049A0000BD0884202D20E1A324402E02E1A0E4474
:1049B00032440146A24200D300E0EDE700BF70BDE3
:1049C0003400002010B50446042C02D101A0FBF7EE
:1049D000BFFC10BD4556454E542C444D505F4649D2
:1049E000464F5F4F564552464C4F570D0A00000048
:1049F00000BF054A126802F04002002AF9D0C2B294
:104A0000014B1B1D1A6070470038014038B5044641
:104A10000020009063A12046FBF79CFF10B906F030
:104A200039F9BCE061A12046FBF794FF10B906F00C
:104A300089F9B4E05FA12046FBF78CFF10B9FFF7BE
:104A40000FFEACE06A465CA12046FBF727FE01287A
:104A50000CD1009808B1012000E0002058490870EE
:104A60000846017857A0FBF773FC98E058A1204650
:104A7000FBF770FF30B900205849087058A0FBF7C9
:104A800067FC8CE05AA12046FBF764FF30B9012097
:104A90005249087059A0FBF75BFC80E05BA12046FF
:104AA000FBF758FF30B902204C4908705AA0FBF7B9
:104AB0004FFC74E05CA12046FBF74CFF30B90320AB
:104AC000464908705BA0FBF743FC68E05EA1204606
:104AD000FBF740FF30B90420404908705DA0FBF7A8
:104AE00037FC5CE05FA12046FBF734FF30B90020C3
:104AF0006049087060A0FBF72BFC50E063A12046E2
:104B0000FBF728FF30B901205A49087062A0FBF773
:104B10001FFC44E064A12046FBF71CFF30B90220D3
:104B20005449087063A0FBF713FC38E06A4666A19D
:104B30002046FBF7B3FD01282DD10098142803D19E
:104B400032206449086011E00098322803D1142013
:104B5000604908600AE00098642803D10A205D4992
:104B6000086003E05CA0FBF7F3FB38BD5948006820
:104B70000A2802D20A20574908605648006832289D
:104B800002D9322053490860524802685AA000995D
:104B9000FBF7DEFB03E021465EA0FBF7D9FB00BF7D
:104BA000E3E7000048454C500000000053544154D6
:104BB0005553000043414C004C4F4720256C640086
:104BC000020000204F4B2C4C4F472C25750D0A003E
:104BD0004D4F444520524157000000000000002086
:104BE0004F4B2C4D4F44452C5241570D0A000000AD
:104BF0004D4F444520444D50000000004F4B2C4D7C
:104C00004F44452C444D500D0A0000004D4F444583
:104C100020434F4D500000004F4B2C4D4F44452C2E
:104C2000434F4D500D0A00004D4F4445204B414C21
:104C30004D414E004F4B2C4D4F44452C4B414C4D5C
:104C4000414E0D0A000000004D4F444520414C4CA0
:104C5000000000004F4B2C4D4F44452C414C4C0D57
:104C60000A000000535441544520535441544943D1
:104C700000000000010000204F4B2C5354415445CC
:104C80002C5354415449430D0A00000053544154DD
:104C9000452054494C5400004F4B2C53544154452B
:104CA0002C54494C540D0A00535441544520534848
:104CB000414B45004F4B2C53544154452C534841D4
:104CC0004B450D0A000000005241544520256C64FC
:104CD00000000000080000204552522C524154456B
:104CE0005F455850454354535F32305F35305F3134
:104CF00030300D0A000000004F4B2C524154452C1F
:104D0000256C642C706572696F645F6D733D256CF2
:104D1000750D0A004552522C554E4B4E4F574E5F63
:104D2000434F4D4D414E442C25730D0A00000000A9
:104D300008B50020009003E000BF0098401C0090E0
:104D400000982A28F8D308BD70B50546002406F05F
:104D500023F9002610E06006040E06F009F9FFF7BB
:104D6000E7FF06F02DF908B144F0010406F00AF956
:104D7000FFF7DEFF701CC6B2082EECD315B106F0AB
:104D800015F901E006F008F9FFF7D2FF06F0F0F898
:104D9000FFF7CEFF06F0F6F806F0FEF8FFF7C8FFC3
:104DA000204670BD10B506F0F7F806F0E1F8FFF701
:104DB000BFFF06F0FBF8FFF7BBFF06F0E3F8FFF7D5
:104DC000B7FF10BD10B506F0F1F8FFF7B1FF06F020
:104DD000CFF8FFF7ADFF06F0DFF8FFF7A9FF10BD32
:104DE00070B50446002513E004F0800010B106F011
:104DF000D3F801E006F0DAF8FFF79AFF06F0B8F80A
:104E0000FFF796FF06F0BEF86006040E681CC5B2F8
:104E1000082DE9D306F0C0F8FFF78AFF06F0A8F8DE
:104E2000FFF786FF06F0CCF8064606F0ABF8FFF772
:104E30007FFF304670BD000010B5054B054A06499E
:104E4000D02000F099FC08B1002010BD0120FCE743
:104E5000159400083D940008C54900082DE9F04F5D
:104E60008BB004460F4690461D465A480A905A4851
:104E700009904FF07C5008900021284606F006FC6F
:104E800004D95649284606F001FD08D25448006866
:104E900006F0E8FB8346534906F0CEFA0546404645
:104EA000616806F0B7FD07902846079906F022FCD6
:104EB0008346216806F04CFA20602846616906F0B6
:104EC00019FC0090E16806F0A5FD0190216906F04B
:104ED000A1FD83463F4906F03BFA2946029006F0C1
:104EE00009FC0390A16806F033FAA06028466169C6
:104EF00006F000FC8346E16806F0F9FCE060284615
:104F0000616906F0F7FB8346216906F0F0FC206139
:104F10002946314806F0EEFB8346616906F018FA2F
:104F200060614FF07C51A06806F012FA06462E49E7
:104F3000304606F0ABFB00D22B4E3146A06806F09F
:104F40007BFA06903146206906F076FA05903846DD
:104F5000216806F05FFD04900499069806F0CAFBEC
:104F60008346216806F0F4F92060DDE9041006F0BC
:104F7000C1FB8346616806F0EBF96060D4F80890E5
:104F8000D4F80CA04946069806F0B4FB8346A16805
:104F900006F0ADFCA0605146069806F0ABFB8346D8
:104FA000E16806F0A4FCE0604946059806F0A2FB23
:104FB0008346216906F09BFC20615146059806F066
:104FC00099FB8346616906F092FC606120680BB032
:104FD000BDE8F08F6F12833AA69B443BCDCC4C3E8C
:104FE0000800002000007A4417B7D1388EB0FDF7D2
:104FF000A5FC4FF4E01006F027F84820FFF7AEFCC0
:105000004FF4E13006F054F85FA0FBF7A1F967A078
:10501000FBF79EF975A0FBF79BF984A0FBF798F9C5
:1050200091A0FBF795F904F021FA05F021FD08B9EC
:10503000012000E0002098490870FFF7FDFE974925
:10504000087008460378944802789548017895A03E
:10505000FBF77EF99048007808B1FFF701FB05F0F7
:1050600019FEFDF759FC99490860FDF755FC054606
:10507000974909686E1885E0FDF74EFC044605F077
:1050800099FEA01B7DD4A4EB0508404606F0EAFA81
:105090008346904906F0D0F9814600270FF2382A5E
:1050A00025468B4800680644A01B89490968884248
:1050B00002DB87480068261805A805F0D5FEF8B978
:1050C00005A8FFF71DFC074684490B98096806F000
:1050D000A1FC83464A4659463846FFF7CDFB804936
:1050E00008607E490B98096806F094FC83464B469D
:1050F0005A4639467B48FFF7B1FE7B49086005E018
:10510000242105A8FBF7FFFB0FF2E01A63480078A3
:1051100030B1794805F072FE48B10FF2E01A06E0AE
:105120006DA15046FBF716FC08B90FF2DC1A674870
:105130000068201AB0F57A7F10D3764800684FF4E3
:105140007A71484361490968611AB0FBF1F072490C
:10515000086000206F4908605C4804606F48007870
:1051600070B1614800685E490968CDE9028ACDE9FD
:10517000001061483A4605A90368204605F0B8FCCE
:1051800000BF00BF78E700000D0A42353835204DDA
:1051900050553630353020415454495455444520FB
:1051A0004C41422052454144590D0A004D43553D62
:1051B00053544D333246313033524354362C2055FC
:1051C0004152543D555341525431203131353230E2
:1051D000302C204932433D504231342F504231353A
:1051E0002C20494E543D5042390D0A004353563A43
:1051F00020412C6D732C73746174652C6D6F646524
:105200002C61785F7261772C61795F7261772C61B4
:105210007A5F7261772C67785F7261772C67795F4C
:105220007261772C677A5F7261772C0061785F67B3
:105230002C61795F672C617A5F672C67785F647097
:10524000732C67795F6470732C677A5F6470732C5A
:1052500070697463685F6163632C70697463685F0D
:10526000646D702C0000000070697463685F636F88
:105270006D702C70697463685F6B616C6D616E2C0E
:10528000646D705F687A2C64745F6D732C737461E5
:105290007475730D0A000000040000200300002054
:1052A00005000020424F4F542C57484F5F414D5F3F
:1052B000493D3078253032582C5241573D25752CC8
:1052C000444D503D25750D0A000000000C000020E3
:1052D0000800002000007A444F4B00001800002016
:1052E00024000020400C0020280000205241575F7D
:1052F0004641494C000000002C000020444D505F06
:105300005741495400000000444D505F4641494C0C
:105310000000000010000020140000200200002007
:10532000014605290ED2DFE801F0030507090B004D
:1053300005A0704705A0FCE705A0FAE706A0F8E77E
:1053400007A0F6E707A0F4E752415700444D50008C
:10535000434F4D50000000004B414C4D414E00006A
:10536000414C4C00554E4B4E4F574E0038B50446FD
:105370000CB9022038BD94F82800012801D0032080
:10538000F8E74F20009001236A466B212046FEF784
:10539000D6FD054625B10CA0A16988470420E9E7A0
:1053A0000A2061698847A0688047054625B10FA09B
:1053B000A16988470120DDE7002084F8280084F8EF
:1053C000290000BFD6E700006D7075363035303AE1
:1053D00020777269746520707772206D676D742014
:1053E00031206661696C65642E0A00006D70753647
:1053F0003035303A20696963206465696E697420CC
:105400006661696C65642E0A000000002DE9FC5F8E
:1054100080460C4615461E460C9FB8F1000F02D17F
:105420000220BDE8FC9F98F82800012801D0032045
:10543000F7E798F82900012805D0B1A0D8F818108E
:1054400088470420EDE7012301AA1C214046FEF70E
:1054500063FD8146B9F1000F05D0B1A0D8F818104E
:1054600088470120DDE701236A461B214046FEF7FD
:1054700053FD8146B9F1000F05D0B2A0D8F818103D
:1054800088470120CDE79DF80400C0F3C1000190DA
:105490009DF80000C0F3C10000909DF8040020BBFF
:1054A000286806F0C7F883464FF08D4106F022F9D0
:1054B000824606F083F83860686806F0BBF88346D9
:1054C0004FF08D4106F016F9824606F077F87860C5
:1054D000A86806F0AFF883464FF08D4106F00AF950
:1054E000824606F06BF8B86075E09DF8040001286C
:1054F00024D1286806F09EF883464FF08C4106F0D0
:10550000F9F8824606F05AF83860686806F092F8B2
:1055100083464FF08C4106F0EDF8824606F04EF8D7
:105520007860A86806F086F883464FF08C4106F054
:10553000E1F8824606F042F8B8604CE09DF80400BD
:10554000022824D1286806F075F883464FF08B4175
:1055500006F0D0F8824606F031F83860686806F048
:1055600069F883464FF08B4106F0C4F8824606F096
:1055700025F87860A86806F05DF883464FF08B4107
:1055800006F0B8F8824606F019F8B86023E02868FB
:1055900006F050F883464FF08A4106F0ABF8824699
:1055A00006F00CF83860686806F044F883464FF05F
:1055B0008A4106F09FF8824606F000F87860A868F5
:1055C00006F038F883464FF08A4106F093F8824699
:1055D00005F0F4FFB8609DF8000008BB206806F0F5
:1055E00029F88346604906F085F8824605F0E6FF13
:1055F0003060606806F01EF883465B4906F07AF872
:10560000824605F0DBFF7060A06806F013F8834661
:10561000554906F06FF8824605F0D0FFB0606CE0A7
:105620009DF80000012821D1206806F003F8834688
:105630004E4906F05FF8824605F0C0FF30606068B2
:1056400005F0F8FF8346494906F054F8824605F014
:10565000B5FF7060A06805F0EDFF8346434906F092
:1056600049F8824605F0AAFFB06046E09DF80000C8
:10567000022821D1206805F0DDFF83463C4906F071
:1056800039F8824605F09AFF3060606805F0D2FF75
:105690008346374906F02EF8824605F08FFF70608A
:1056A000A06805F0C7FF8346314906F023F882461B
:1056B00005F084FFB06020E0206805F0BBFF834662
:1056C0002C4906F017F8824605F078FF30606068D4
:1056D00005F0B0FF8346274906F00CF8824605F036
:1056E0006DFF7060A06805F0A5FF8346214906F0B4
:1056F00001F8824605F062FFB060002091E60000EC
:105700006D7075363035303A20646D7020697320C5
:105710006E6F7420696E697465642E0A0000000063
:105720006D7075363035303A207265616420616382
:1057300063656C20636F6E666967206661696C657E
:10574000642E0A006D7075363035303A207265610E
:1057500064206779726F20636F6E66696720666187
:10576000696C65642E0A0000000003430000834258
:1057700033330342333383412DE9F04192B006467F
:105780000F4615469846E3A207CA02AC07C44FF479
:105790008661E348FBF7B7F8E248E1494860E24830
:1057A0008860E248C860E2480861E2484861E2482F
:1057B00088610846C761314604F0CCF8044634B12C
:1057C000DEA003F013FE012012B0BDE8F081D44842
:1057D00003F0C4FC044624B1E0A003F007FE01205E
:1057E000F2E7642003F00FFE0021CD4804F0BCFF77
:1057F00004463CB1DFA003F0F9FDC948FFF7B6FD50
:105800000120E1E700200E900F9010900B900C907B
:105810000D900BAA0EA9C24803F0F0FE04464CB14D
:1058200000200E900F9010900B900C900D90D8A02F
:1058300003F0DCFD0121BA4804F094F804463CB1C1
:10584000E3A003F0D3FDB648FFF790FD0120BBE7CE
:105850001321B34804F05CFF04463CB1E5A003F01B
:10586000C5FDAF48FFF782FD0120ADE70021AC4840
:1058700003F0AAFF04463CB1E9A003F0B7FDA84835
:10588000FFF774FD01209FE70321A54804F04CFBBE
:1058900004463CB1EDA003F0A9FDA148FFF766FD69
:1058A000012091E703219E4804F082FE04463CB1AA
:1058B000F0A003F09BFD9A48FFF758FD012083E715
:1058C0000121974805F012F804463CB1F3A003F01B
:1058D0008DFD9348FFF74AFD012075E700219048B0
:1058E00004F09EF804463CB1F7A003F07FFD8C481D
:1058F000FFF73CFD012067E70021894805F058F8D3
:1059000004463CB1F9A003F071FD8548FFF72EFD78
:10591000012059E700220521814804F085FF044653
:105920003CB1FCA003F062FD7D48FFF71FFD0120A4
:105930004AE7002204217A4804F076FF04463CB18D
:10594000F4A003F053FD7648FFF710FD01203BE77C
:1059500000220321724804F067FF04463CB1EDA029
:1059600003F044FD6E48FFF701FD01202CE7002203
:1059700002216B4804F058FF04463CB1E5A003F057
:1059800035FD6748FFF7F2FC01201DE700220121E9
:10599000634804F049FF04463CB1DEA003F026FD55
:1059A0005F48FFF7E3FC01200EE7002211465C4848
:1059B00004F03AFF04463CB1D6A003F017FD584866
:1059C000FFF7D4FC0120FFE600220721544804F031
:1059D00009FB04463CB1D8A003F008FD5048FFF78E
:1059E000C5FC0120F0E6002206214D4804F0FAFA39
:1059F00004463CB1D0A003F0F9FC4948FFF7B6FCDF
:105A00000120E1E600220521454804F0EBFA0446B6
:105A10003CB1C9A003F0EAFC4148FFF7A7FC012014
:105A2000D2E6002207213E4803F030FF04463CB195
:105A3000CBA003F0DBFC3A48FFF798FC0120C3E65B
:105A400000220621364803F021FF04463CB1C4A0E1
:105A500003F0CCFC3248FFF789FC0120B4E60022B9
:105A600005212F4803F012FF04463CB1BCA003F00F
:105A7000BDFC2B48FFF77AFC0120A5E60022072198
:105A8000274804F0D9F804463CB1C0A003F0AEFCAE
:105A90002348FFF76BFC012096E6002206212048F0
:105AA00004F0CAF804463CB1B8A003F09FFC1C48BF
:105AB000FFF75CFC012087E600220521184804F06E
:105AC000BBF804463CB1B1A003F090FC1448FFF7CA
:105AD0004DFC012078E600220421114804F0ACF8C6
